{
  "contracts/fibers.sol": {
    "Fibers": {
      "abi": [
        {
          "anonymous": false,
          "inputs": [
            {
              "indexed": false,
              "internalType": "bytes32",
              "name": "shipmentId",
              "type": "bytes32"
            },
            {
              "indexed": false,
              "internalType": "bytes32",
              "name": "senderCompany",
              "type": "bytes32"
            },
            {
              "indexed": false,
              "internalType": "bytes32",
              "name": "senderDepartment",
              "type": "bytes32"
            }
          ],
          "name": "ReceivedShipmentRegistered",
          "type": "event"
        },
        {
          "anonymous": false,
          "inputs": [
            {
              "indexed": false,
              "internalType": "bytes32",
              "name": "shipmentId",
              "type": "bytes32"
            },
            {
              "indexed": false,
              "internalType": "bytes32",
              "name": "recipientCompany",
              "type": "bytes32"
            },
            {
              "indexed": false,
              "internalType": "bytes32",
              "name": "recipientDepartment",
              "type": "bytes32"
            }
          ],
          "name": "SentShipmentRegistered",
          "type": "event"
        },
        {
          "anonymous": false,
          "inputs": [
            {
              "indexed": false,
              "internalType": "bytes32",
              "name": "shipmentId",
              "type": "bytes32"
            }
          ],
          "name": "ShipmentConfirmed",
          "type": "event"
        },
        {
          "inputs": [
            {
              "internalType": "uint256[2]",
              "name": "a",
              "type": "uint256[2]"
            },
            {
              "internalType": "uint256[2][2]",
              "name": "b",
              "type": "uint256[2][2]"
            },
            {
              "internalType": "uint256[2]",
              "name": "c",
              "type": "uint256[2]"
            },
            {
              "internalType": "bytes32",
              "name": "shipmentIdHash",
              "type": "bytes32"
            },
            {
              "internalType": "bytes32",
              "name": "receivedShipmentHash",
              "type": "bytes32"
            },
            {
              "internalType": "uint256",
              "name": "receivedMass",
              "type": "uint256"
            },
            {
              "internalType": "uint256",
              "name": "receivedDate",
              "type": "uint256"
            }
          ],
          "name": "confirmReceivedShipment",
          "outputs": [],
          "stateMutability": "nonpayable",
          "type": "function"
        },
        {
          "inputs": [
            {
              "internalType": "uint256[2]",
              "name": "a",
              "type": "uint256[2]"
            },
            {
              "internalType": "uint256[2][2]",
              "name": "b",
              "type": "uint256[2][2]"
            },
            {
              "internalType": "uint256[2]",
              "name": "c",
              "type": "uint256[2]"
            },
            {
              "internalType": "bytes32",
              "name": "shipmentIdHash",
              "type": "bytes32"
            },
            {
              "internalType": "bytes32",
              "name": "sentShipmentHash",
              "type": "bytes32"
            },
            {
              "internalType": "uint256",
              "name": "sentMass",
              "type": "uint256"
            },
            {
              "internalType": "uint256",
              "name": "sentDate",
              "type": "uint256"
            }
          ],
          "name": "confirmSentShipment",
          "outputs": [],
          "stateMutability": "nonpayable",
          "type": "function"
        },
        {
          "inputs": [
            {
              "internalType": "bytes32",
              "name": "shipmentIdHash",
              "type": "bytes32"
            }
          ],
          "name": "getShipment",
          "outputs": [
            {
              "components": [
                {
                  "internalType": "bytes32",
                  "name": "shipmentIdHash",
                  "type": "bytes32"
                },
                {
                  "internalType": "bytes32",
                  "name": "sentShipmentHash",
                  "type": "bytes32"
                },
                {
                  "internalType": "bytes32",
                  "name": "receivedShipmentHash",
                  "type": "bytes32"
                },
                {
                  "internalType": "uint256",
                  "name": "sentMass",
                  "type": "uint256"
                },
                {
                  "internalType": "uint256",
                  "name": "receivedMass",
                  "type": "uint256"
                },
                {
                  "internalType": "uint256",
                  "name": "sentDate",
                  "type": "uint256"
                },
                {
                  "internalType": "uint256",
                  "name": "receivedDate",
                  "type": "uint256"
                },
                {
                  "internalType": "bytes32",
                  "name": "senderCompany",
                  "type": "bytes32"
                },
                {
                  "internalType": "bytes32",
                  "name": "senderDepartment",
                  "type": "bytes32"
                },
                {
                  "internalType": "bytes32",
                  "name": "recipientCompany",
                  "type": "bytes32"
                },
                {
                  "internalType": "bytes32",
                  "name": "recipientDepartment",
                  "type": "bytes32"
                },
                {
                  "internalType": "bool",
                  "name": "isConfirmed",
                  "type": "bool"
                }
              ],
              "internalType": "struct Fibers.Shipment",
              "name": "s",
              "type": "tuple"
            }
          ],
          "stateMutability": "view",
          "type": "function"
        },
        {
          "inputs": [
            {
              "internalType": "bytes32",
              "name": "shipmentIdHash",
              "type": "bytes32"
            },
            {
              "internalType": "bytes32",
              "name": "receivedShipmentHash",
              "type": "bytes32"
            },
            {
              "internalType": "uint256",
              "name": "receivedMass",
              "type": "uint256"
            },
            {
              "internalType": "uint256",
              "name": "receivedDate",
              "type": "uint256"
            },
            {
              "internalType": "bytes32",
              "name": "senderCompany",
              "type": "bytes32"
            },
            {
              "internalType": "bytes32",
              "name": "senderDepartment",
              "type": "bytes32"
            },
            {
              "internalType": "bytes32",
              "name": "recipientCompany",
              "type": "bytes32"
            },
            {
              "internalType": "bytes32",
              "name": "recipientDepartment",
              "type": "bytes32"
            }
          ],
          "name": "registerReceivedShipment",
          "outputs": [],
          "stateMutability": "nonpayable",
          "type": "function"
        },
        {
          "inputs": [
            {
              "internalType": "bytes32",
              "name": "shipmentIdHash",
              "type": "bytes32"
            },
            {
              "internalType": "bytes32",
              "name": "sentShipmentHash",
              "type": "bytes32"
            },
            {
              "internalType": "uint256",
              "name": "sentMass",
              "type": "uint256"
            },
            {
              "internalType": "uint256",
              "name": "sentDate",
              "type": "uint256"
            },
            {
              "internalType": "bytes32",
              "name": "senderCompany",
              "type": "bytes32"
            },
            {
              "internalType": "bytes32",
              "name": "senderDepartment",
              "type": "bytes32"
            },
            {
              "internalType": "bytes32",
              "name": "recipientCompany",
              "type": "bytes32"
            },
            {
              "internalType": "bytes32",
              "name": "recipientDepartment",
              "type": "bytes32"
            }
          ],
          "name": "registerSentShipment",
          "outputs": [],
          "stateMutability": "nonpayable",
          "type": "function"
        },
        {
          "inputs": [
            {
              "internalType": "uint256[2]",
              "name": "a",
              "type": "uint256[2]"
            },
            {
              "internalType": "uint256[2][2]",
              "name": "b",
              "type": "uint256[2][2]"
            },
            {
              "internalType": "uint256[2]",
              "name": "c",
              "type": "uint256[2]"
            },
            {
              "internalType": "uint256[2]",
              "name": "input",
              "type": "uint256[2]"
            }
          ],
          "name": "verifyProof",
          "outputs": [
            {
              "internalType": "bool",
              "name": "r",
              "type": "bool"
            }
          ],
          "stateMutability": "view",
          "type": "function"
        }
      ],
      "evm": {
        "bytecode": {
          "linkReferences": {},
          "object": "608060405234801561001057600080fd5b5061285a806100206000396000f3fe608060405234801561001057600080fd5b50600436106100625760003560e01c80632bccbe46146100675780634d49694e1461008357806358cb7c411461009f578063d3c12bc3146100cf578063ed4c975d146100eb578063f5c9d69e14610107575b600080fd5b610081600480360381019061007c9190611bff565b610137565b005b61009d60048036038101906100989190611ead565b61029f565b005b6100b960048036038101906100b49190611f54565b6104ad565b6040516100c691906120b0565b60405180910390f35b6100e960048036038101906100e49190611ead565b610563565b005b61010560048036038101906101009190611bff565b610771565b005b610121600480360381019061011c91906120cc565b6108d9565b60405161012e9190612144565b60405180910390f35b6000801b6000808a81526020019081526020016000206000015414610191576040517f08c379a0000000000000000000000000000000000000000000000000000000008152600401610188906121bc565b60405180910390fd5b6101996119ca565b888160000181815250508781604001818152505086816080018181525050858160c0018181525050848160e0018181525050838161010001818152505082816101200181815250508181610140018181525050806000808b8152602001908152602001600020600082015181600001556020820151816001015560408201518160020155606082015181600301556080820151816004015560a0820151816005015560c0820151816006015560e082015181600701556101008201518160080155610120820151816009015561014082015181600a015561016082015181600b0160006101000a81548160ff021916908315150217905550905050505050505050505050565b6000801b60008086815260200190815260200160002060000154036102f9576040517f08c379a00000000000000000000000000000000000000000000000000000000081526004016102f090612228565b60405180910390fd5b60001515600080868152602001908152602001600020600b0160009054906101000a900460ff16151514610362576040517f08c379a000000000000000000000000000000000000000000000000000000000815260040161035990612294565b60405180910390fd5b6000801b60008086815260200190815260200160002060010154146103bc576040517f08c379a00000000000000000000000000000000000000000000000000000000081526004016103b390612326565b60405180910390fd5b600115156103e688888860405180604001604052808a60001c81526020018960001c8152506108d9565b151514610428576040517f08c379a000000000000000000000000000000000000000000000000000000000815260040161041f90612392565b60405180910390fd5b8260008086815260200190815260200160002060010181905550816000808681526020019081526020016000206003018190555080600080868152602001908152602001600020600501819055506001600080868152602001908152602001600020600b0160006101000a81548160ff02191690831515021790555050505050505050565b6104b56119ca565b6000808381526020019081526020016000206040518061018001604052908160008201548152602001600182015481526020016002820154815260200160038201548152602001600482015481526020016005820154815260200160068201548152602001600782015481526020016008820154815260200160098201548152602001600a8201548152602001600b820160009054906101000a900460ff1615151515815250509050919050565b6000801b60008086815260200190815260200160002060000154036105bd576040517f08c379a00000000000000000000000000000000000000000000000000000000081526004016105b490612228565b60405180910390fd5b60001515600080868152602001908152602001600020600b0160009054906101000a900460ff16151514610626576040517f08c379a000000000000000000000000000000000000000000000000000000000815260040161061d90612294565b60405180910390fd5b6000801b6000808681526020019081526020016000206002015414610680576040517f08c379a000000000000000000000000000000000000000000000000000000000815260040161067790612326565b60405180910390fd5b600115156106aa88888860405180604001604052808a60001c81526020018960001c8152506108d9565b1515146106ec576040517f08c379a00000000000000000000000000000000000000000000000000000000081526004016106e390612392565b60405180910390fd5b8260008086815260200190815260200160002060020181905550816000808681526020019081526020016000206004018190555080600080868152602001908152602001600020600601819055506001600080868152602001908152602001600020600b0160006101000a81548160ff02191690831515021790555050505050505050565b6000801b6000808a815260200190815260200160002060000154146107cb576040517f08c379a00000000000000000000000000000000000000000000000000000000081526004016107c2906121bc565b60405180910390fd5b6107d36119ca565b888160000181815250508781602001818152505086816060018181525050858160a0018181525050848160e0018181525050838161010001818152505082816101200181815250508181610140018181525050806000808b8152602001908152602001600020600082015181600001556020820151816001015560408201518160020155606082015181600301556080820151816004015560a0820151816005015560c0820151816006015560e082015181600701556101008201518160080155610120820151816009015561014082015181600a015561016082015181600b0160006101000a81548160ff021916908315150217905550905050505050505050505050565b60006108e3611a42565b604051806040016040528087600060028110610902576109016123b2565b5b60200201518152602001876001600281106109205761091f6123b2565b5b60200201518152508160000181905250604051806040016040528060405180604001604052808860006002811061095a576109596123b2565b5b6020020151600060028110610972576109716123b2565b5b60200201518152602001886000600281106109905761098f6123b2565b5b60200201516001600281106109a8576109a76123b2565b5b602002015181525081526020016040518060400160405280886001600281106109d4576109d36123b2565b5b60200201516000600281106109ec576109eb6123b2565b5b6020020151815260200188600160028110610a0a57610a096123b2565b5b6020020151600160028110610a2257610a216123b2565b5b60200201518152508152508160200181905250604051806040016040528085600060028110610a5457610a536123b2565b5b6020020151815260200185600160028110610a7257610a716123b2565b5b602002015181525081604001819052506000600267ffffffffffffffff811115610a9f57610a9e611ccb565b5b604051908082528060200260200182016040528015610acd5781602001602082028036833780820191505090505b50905060005b6002811015610b2657848160028110610aef57610aee6123b2565b5b6020020151828281518110610b0757610b066123b2565b5b6020026020010181815250508080610b1e90612410565b915050610ad3565b506000610b338284610b52565b03610b4357600192505050610b4a565b6000925050505b949350505050565b6000807f30644e72e131a029b85045b68181585d2833e84879b9709143e1f593f000000190506000610b82610d45565b905080608001515160018651610b989190612458565b14610bd8576040517f08c379a0000000000000000000000000000000000000000000000000000000008152600401610bcf906124fa565b60405180910390fd5b60006040518060400160405280600081526020016000815250905060005b8651811015610cc75783878281518110610c1357610c126123b2565b5b602002602001015110610c5b576040517f08c379a0000000000000000000000000000000000000000000000000000000008152600401610c5290612566565b60405180910390fd5b610cb282610cad8560800151600185610c749190612458565b81518110610c8557610c846123b2565b5b60200260200101518a8581518110610ca057610c9f6123b2565b5b60200260200101516111c0565b611298565b91508080610cbf90612410565b915050610bf6565b50610cf1818360800151600081518110610ce457610ce36123b2565b5b6020026020010151611298565b9050610d27610d038660000151611396565b8660200151846000015185602001518587604001518b60400151896060015161143b565b610d375760019350505050610d3f565b600093505050505b92915050565b610d4d611a75565b60405180604001604052807f2d4d9aa7e302d9df41749d5507949d05dbea33fbb16c643b22f599a2be6df2e281526020017f14bedd503c37ceb061d8ec60209fe345ce89830a19230301f076caff004d19268152508160000181905250604051806040016040528060405180604001604052807f0967032fcbf776d1afc985f88877f182d38480a653f2decaa9794cbc3bf3060c81526020017f0e187847ad4c798374d0d6732bf501847dd68bc0e071241e0213bc7fc13db7ab815250815260200160405180604001604052807f304cfbd1e08a704a99f5e847d93f8c3caafddec46b7a0d379da69a4d112346a781526020017f1739c1b1a457a8c7313123d24d2f9192f896b7c63eea05a9d57f06547ad0cec88152508152508160200181905250604051806040016040528060405180604001604052807f198e9393920d483a7260bfb731fb5d25f1aa493335a9e71297e485b7aef312c281526020017f1800deef121f1e76426a00665e5c4479674322d4f75edadd46debd5cd992f6ed815250815260200160405180604001604052807f090689d0585ff075ec9e99ad690c3395bc4b313370b38ef355acdadcd122975b81526020017f12c85ea5db8c6deb4aab71808dcb408fe3d1e7690c43d37b4ce6cc0166fa7daa8152508152508160400181905250604051806040016040528060405180604001604052807f2f18b0aecf85d2c5a891c57a53bd212ec667e91f11e83f31a88004ea8f2a30d781526020017f2664edc7f6aa80df0db615a18d803a1f45ff701de24ce4322c1ad711b0a1e204815250815260200160405180604001604052807f25c42cf0eb3abaa866391ba97e528dd3f70dd92b2c2f16460c184f96d62d400881526020017f2c02f23949fb0e18c3a55a09277b0f9f1507ed9b51173743a310c2b23696ffdb8152508152508160600181905250600367ffffffffffffffff81111561101457611013611ccb565b5b60405190808252806020026020018201604052801561104d57816020015b61103a611abc565b8152602001906001900390816110325790505b50816080018190525060405180604001604052807f174da0e6de7e99bd682b721c1dbb67649ca85f599348c3242283f1125faf43ce81526020017f2c4f882b45472ded04fcbec8cc3e6a687d72ba3bc10371785e988a38b907d77f81525081608001516000815181106110c3576110c26123b2565b5b602002602001018190525060405180604001604052807f1538889dbabc4b53eb5fa317f807aa238f11380e9a35806edf11b31cdf7a957781526020017e6782ecf67f73ec5df8474948a8ebf29dd220453bf231e70c0d69ae559fe14c815250816080015160018151811061113a576111396123b2565b5b602002602001018190525060405180604001604052807f02dd2cc3bcf0f2251c72793fe6be836c53190b8ab5bb45d9a41bfee0736cb0a981526020017f18fc828afd30955032d5ffec835054337c1c0748443440a86a4d39b617e5ec1981525081608001516002815181106111b2576111b16123b2565b5b602002602001018190525090565b6111c8611abc565b6111d0611ad6565b8360000151816000600381106111e9576111e86123b2565b5b60200201818152505083602001518160016003811061120b5761120a6123b2565b5b6020020181815250508281600260038110611229576112286123b2565b5b602002018181525050600060608360808460076107d05a03fa9050806000810361124f57fe5b5080611290576040517f08c379a0000000000000000000000000000000000000000000000000000000008152600401611287906125d2565b60405180910390fd5b505092915050565b6112a0611abc565b6112a8611af8565b8360000151816000600481106112c1576112c06123b2565b5b6020020181815250508360200151816001600481106112e3576112e26123b2565b5b602002018181525050826000015181600260048110611305576113046123b2565b5b602002018181525050826020015181600360048110611327576113266123b2565b5b602002018181525050600060608360c08460066107d05a03fa9050806000810361134d57fe5b508061138e576040517f08c379a00000000000000000000000000000000000000000000000000000000081526004016113859061263e565b60405180910390fd5b505092915050565b61139e611abc565b60007f30644e72e131a029b85045b68181585d97816a916871ca8d3c208c16d87cfd479050600083600001511480156113db575060008360200151145b156113ff576040518060400160405280600081526020016000815250915050611436565b604051806040016040528084600001518152602001828560200151611424919061268d565b8361142f91906126be565b8152509150505b919050565b600080600467ffffffffffffffff81111561145957611458611ccb565b5b60405190808252806020026020018201604052801561149257816020015b61147f611abc565b8152602001906001900390816114775790505b5090506000600467ffffffffffffffff8111156114b2576114b1611ccb565b5b6040519080825280602002602001820160405280156114eb57816020015b6114d8611b1a565b8152602001906001900390816114d05790505b5090508a82600081518110611503576115026123b2565b5b60200260200101819052508882600181518110611523576115226123b2565b5b60200260200101819052508682600281518110611543576115426123b2565b5b60200260200101819052508482600381518110611563576115626123b2565b5b60200260200101819052508981600081518110611583576115826123b2565b5b602002602001018190525087816001815181106115a3576115a26123b2565b5b602002602001018190525085816002815181106115c3576115c26123b2565b5b602002602001018190525083816003815181106115e3576115e26123b2565b5b60200260200101819052506115f88282611608565b9250505098975050505050505050565b6000815183511461164e576040517f08c379a00000000000000000000000000000000000000000000000000000000081526004016116459061273e565b60405180910390fd5b6000835190506000600682611663919061275e565b905060008167ffffffffffffffff81111561168157611680611ccb565b5b6040519080825280602002602001820160405280156116af5781602001602082028036833780820191505090505b50905060005b83811015611934578681815181106116d0576116cf6123b2565b5b6020026020010151600001518260006006846116ec919061275e565b6116f69190612458565b81518110611707576117066123b2565b5b602002602001018181525050868181518110611726576117256123b2565b5b602002602001015160200151826001600684611742919061275e565b61174c9190612458565b8151811061175d5761175c6123b2565b5b60200260200101818152505085818151811061177c5761177b6123b2565b5b60200260200101516000015160006002811061179b5761179a6123b2565b5b60200201518260026006846117b0919061275e565b6117ba9190612458565b815181106117cb576117ca6123b2565b5b6020026020010181815250508581815181106117ea576117e96123b2565b5b602002602001015160000151600160028110611809576118086123b2565b5b602002015182600360068461181e919061275e565b6118289190612458565b81518110611839576118386123b2565b5b602002602001018181525050858181518110611858576118576123b2565b5b602002602001015160200151600060028110611877576118766123b2565b5b602002015182600460068461188c919061275e565b6118969190612458565b815181106118a7576118a66123b2565b5b6020026020010181815250508581815181106118c6576118c56123b2565b5b6020026020010151602001516001600281106118e5576118e46123b2565b5b60200201518260056006846118fa919061275e565b6119049190612458565b81518110611915576119146123b2565b5b602002602001018181525050808061192c90612410565b9150506116b5565b5061193d611b40565b6000602082602086026020860160086107d05a03fa9050806000810361195f57fe5b50806119a0576040517f08c379a000000000000000000000000000000000000000000000000000000000815260040161199790612804565b60405180910390fd5b6000826000600181106119b6576119b56123b2565b5b602002015114159550505050505092915050565b60405180610180016040528060008019168152602001600080191681526020016000801916815260200160008152602001600081526020016000815260200160008152602001600080191681526020016000801916815260200160008019168152602001600080191681526020016000151581525090565b6040518060600160405280611a55611abc565b8152602001611a62611b1a565b8152602001611a6f611abc565b81525090565b6040518060a00160405280611a88611abc565b8152602001611a95611b1a565b8152602001611aa2611b1a565b8152602001611aaf611b1a565b8152602001606081525090565b604051806040016040528060008152602001600081525090565b6040518060600160405280600390602082028036833780820191505090505090565b6040518060800160405280600490602082028036833780820191505090505090565b6040518060400160405280611b2d611b62565b8152602001611b3a611b62565b81525090565b6040518060200160405280600190602082028036833780820191505090505090565b6040518060400160405280600290602082028036833780820191505090505090565b6000604051905090565b600080fd5b6000819050919050565b611ba681611b93565b8114611bb157600080fd5b50565b600081359050611bc381611b9d565b92915050565b6000819050919050565b611bdc81611bc9565b8114611be757600080fd5b50565b600081359050611bf981611bd3565b92915050565b600080600080600080600080610100898b031215611c2057611c1f611b8e565b5b6000611c2e8b828c01611bb4565b9850506020611c3f8b828c01611bb4565b9750506040611c508b828c01611bea565b9650506060611c618b828c01611bea565b9550506080611c728b828c01611bb4565b94505060a0611c838b828c01611bb4565b93505060c0611c948b828c01611bb4565b92505060e0611ca58b828c01611bb4565b9150509295985092959890939650565b600080fd5b6000601f19601f8301169050919050565b7f4e487b7100000000000000000000000000000000000000000000000000000000600052604160045260246000fd5b611d0382611cba565b810181811067ffffffffffffffff82111715611d2257611d21611ccb565b5b80604052505050565b6000611d35611b84565b9050611d418282611cfa565b919050565b600067ffffffffffffffff821115611d6157611d60611ccb565b5b602082029050919050565b600080fd5b6000611d84611d7f84611d46565b611d2b565b90508060208402830185811115611d9e57611d9d611d6c565b5b835b81811015611dc75780611db38882611bea565b845260208401935050602081019050611da0565b5050509392505050565b600082601f830112611de657611de5611cb5565b5b6002611df3848285611d71565b91505092915050565b600067ffffffffffffffff821115611e1757611e16611ccb565b5b602082029050919050565b6000611e35611e3084611dfc565b611d2b565b90508060408402830185811115611e4f57611e4e611d6c565b5b835b81811015611e785780611e648882611dd1565b845260208401935050604081019050611e51565b5050509392505050565b600082601f830112611e9757611e96611cb5565b5b6002611ea4848285611e22565b91505092915050565b6000806000806000806000610180888a031215611ecd57611ecc611b8e565b5b6000611edb8a828b01611dd1565b9750506040611eec8a828b01611e82565b96505060c0611efd8a828b01611dd1565b955050610100611f0f8a828b01611bb4565b945050610120611f218a828b01611bb4565b935050610140611f338a828b01611bea565b925050610160611f458a828b01611bea565b91505092959891949750929550565b600060208284031215611f6a57611f69611b8e565b5b6000611f7884828501611bb4565b91505092915050565b611f8a81611b93565b82525050565b611f9981611bc9565b82525050565b60008115159050919050565b611fb481611f9f565b82525050565b61018082016000820151611fd16000850182611f81565b506020820151611fe46020850182611f81565b506040820151611ff76040850182611f81565b50606082015161200a6060850182611f90565b50608082015161201d6080850182611f90565b5060a082015161203060a0850182611f90565b5060c082015161204360c0850182611f90565b5060e082015161205660e0850182611f81565b5061010082015161206b610100850182611f81565b50610120820151612080610120850182611f81565b50610140820151612095610140850182611f81565b506101608201516120aa610160850182611fab565b50505050565b6000610180820190506120c66000830184611fba565b92915050565b60008060008061014085870312156120e7576120e6611b8e565b5b60006120f587828801611dd1565b945050604061210687828801611e82565b93505060c061211787828801611dd1565b92505061010061212987828801611dd1565b91505092959194509250565b61213e81611f9f565b82525050565b60006020820190506121596000830184612135565b92915050565b600082825260208201905092915050565b7f536869706d656e7420616c726561647920726567697374657265640000000000600082015250565b60006121a6601b8361215f565b91506121b182612170565b602082019050919050565b600060208201905081810360008301526121d581612199565b9050919050565b7f536869706d656e74206e6f742072656769737465726564000000000000000000600082015250565b600061221260178361215f565b915061221d826121dc565b602082019050919050565b6000602082019050818103600083015261224181612205565b9050919050565b7f536869706d656e7420697320616c726561647920636f6e6669726d6564000000600082015250565b600061227e601d8361215f565b915061228982612248565b602082019050919050565b600060208201905081810360008301526122ad81612271565b9050919050565b7f53656e7420736869706d656e74206461746120697320616c726561647920616460008201527f6465640000000000000000000000000000000000000000000000000000000000602082015250565b600061231060238361215f565b915061231b826122b4565b604082019050919050565b6000602082019050818103600083015261233f81612303565b9050919050565b7f496e76616c69642070726f6f6600000000000000000000000000000000000000600082015250565b600061237c600d8361215f565b915061238782612346565b602082019050919050565b600060208201905081810360008301526123ab8161236f565b9050919050565b7f4e487b7100000000000000000000000000000000000000000000000000000000600052603260045260246000fd5b7f4e487b7100000000000000000000000000000000000000000000000000000000600052601160045260246000fd5b600061241b82611bc9565b91507fffffffffffffffffffffffffffffffffffffffffffffffffffffffffffffffff820361244d5761244c6123e1565b5b600182019050919050565b600061246382611bc9565b915061246e83611bc9565b9250827fffffffffffffffffffffffffffffffffffffffffffffffffffffffffffffffff038211156124a3576124a26123e1565b5b828201905092915050565b7f76657269666965722d6261642d696e7075740000000000000000000000000000600082015250565b60006124e460128361215f565b91506124ef826124ae565b602082019050919050565b60006020820190508181036000830152612513816124d7565b9050919050565b7f76657269666965722d6774652d736e61726b2d7363616c61722d6669656c6400600082015250565b6000612550601f8361215f565b915061255b8261251a565b602082019050919050565b6000602082019050818103600083015261257f81612543565b9050919050565b7f70616972696e672d6d756c2d6661696c65640000000000000000000000000000600082015250565b60006125bc60128361215f565b91506125c782612586565b602082019050919050565b600060208201905081810360008301526125eb816125af565b9050919050565b7f70616972696e672d6164642d6661696c65640000000000000000000000000000600082015250565b600061262860128361215f565b9150612633826125f2565b602082019050919050565b600060208201905081810360008301526126578161261b565b9050919050565b7f4e487b7100000000000000000000000000000000000000000000000000000000600052601260045260246000fd5b600061269882611bc9565b91506126a383611bc9565b9250826126b3576126b261265e565b5b828206905092915050565b60006126c982611bc9565b91506126d483611bc9565b9250828210156126e7576126e66123e1565b5b828203905092915050565b7f70616972696e672d6c656e677468732d6661696c656400000000000000000000600082015250565b600061272860168361215f565b9150612733826126f2565b602082019050919050565b600060208201905081810360008301526127578161271b565b9050919050565b600061276982611bc9565b915061277483611bc9565b9250817fffffffffffffffffffffffffffffffffffffffffffffffffffffffffffffffff04831182151516156127ad576127ac6123e1565b5b828202905092915050565b7f70616972696e672d6f70636f64652d6661696c65640000000000000000000000600082015250565b60006127ee60158361215f565b91506127f9826127b8565b602082019050919050565b6000602082019050818103600083015261281d816127e1565b905091905056fea264697066735822122087086a8b1270e175f372844ef3a2e0c80a858c02a5889786b23adba437039c5864736f6c634300080d0033",
          "opcodes": "PUSH1 0x80 PUSH1 0x40 MSTORE CALLVALUE DUP1 ISZERO PUSH2 0x10 JUMPI PUSH1 0x0 DUP1 REVERT JUMPDEST POP PUSH2 0x285A DUP1 PUSH2 0x20 PUSH1 0x0 CODECOPY PUSH1 0x0 RETURN INVALID PUSH1 0x80 PUSH1 0x40 MSTORE CALLVALUE DUP1 ISZERO PUSH2 0x10 JUMPI PUSH1 0x0 DUP1 REVERT JUMPDEST POP PUSH1 0x4 CALLDATASIZE LT PUSH2 0x62 JUMPI PUSH1 0x0 CALLDATALOAD PUSH1 0xE0 SHR DUP1 PUSH4 0x2BCCBE46 EQ PUSH2 0x67 JUMPI DUP1 PUSH4 0x4D49694E EQ PUSH2 0x83 JUMPI DUP1 PUSH4 0x58CB7C41 EQ PUSH2 0x9F JUMPI DUP1 PUSH4 0xD3C12BC3 EQ PUSH2 0xCF JUMPI DUP1 PUSH4 0xED4C975D EQ PUSH2 0xEB JUMPI DUP1 PUSH4 0xF5C9D69E EQ PUSH2 0x107 JUMPI JUMPDEST PUSH1 0x0 DUP1 REVERT JUMPDEST PUSH2 0x81 PUSH1 0x4 DUP1 CALLDATASIZE SUB DUP2 ADD SWAP1 PUSH2 0x7C SWAP2 SWAP1 PUSH2 0x1BFF JUMP JUMPDEST PUSH2 0x137 JUMP JUMPDEST STOP JUMPDEST PUSH2 0x9D PUSH1 0x4 DUP1 CALLDATASIZE SUB DUP2 ADD SWAP1 PUSH2 0x98 SWAP2 SWAP1 PUSH2 0x1EAD JUMP JUMPDEST PUSH2 0x29F JUMP JUMPDEST STOP JUMPDEST PUSH2 0xB9 PUSH1 0x4 DUP1 CALLDATASIZE SUB DUP2 ADD SWAP1 PUSH2 0xB4 SWAP2 SWAP1 PUSH2 0x1F54 JUMP JUMPDEST PUSH2 0x4AD JUMP JUMPDEST PUSH1 0x40 MLOAD PUSH2 0xC6 SWAP2 SWAP1 PUSH2 0x20B0 JUMP JUMPDEST PUSH1 0x40 MLOAD DUP1 SWAP2 SUB SWAP1 RETURN JUMPDEST PUSH2 0xE9 PUSH1 0x4 DUP1 CALLDATASIZE SUB DUP2 ADD SWAP1 PUSH2 0xE4 SWAP2 SWAP1 PUSH2 0x1EAD JUMP JUMPDEST PUSH2 0x563 JUMP JUMPDEST STOP JUMPDEST PUSH2 0x105 PUSH1 0x4 DUP1 CALLDATASIZE SUB DUP2 ADD SWAP1 PUSH2 0x100 SWAP2 SWAP1 PUSH2 0x1BFF JUMP JUMPDEST PUSH2 0x771 JUMP JUMPDEST STOP JUMPDEST PUSH2 0x121 PUSH1 0x4 DUP1 CALLDATASIZE SUB DUP2 ADD SWAP1 PUSH2 0x11C SWAP2 SWAP1 PUSH2 0x20CC JUMP JUMPDEST PUSH2 0x8D9 JUMP JUMPDEST PUSH1 0x40 MLOAD PUSH2 0x12E SWAP2 SWAP1 PUSH2 0x2144 JUMP JUMPDEST PUSH1 0x40 MLOAD DUP1 SWAP2 SUB SWAP1 RETURN JUMPDEST PUSH1 0x0 DUP1 SHL PUSH1 0x0 DUP1 DUP11 DUP2 MSTORE PUSH1 0x20 ADD SWAP1 DUP2 MSTORE PUSH1 0x20 ADD PUSH1 0x0 KECCAK256 PUSH1 0x0 ADD SLOAD EQ PUSH2 0x191 JUMPI PUSH1 0x40 MLOAD PUSH32 0x8C379A000000000000000000000000000000000000000000000000000000000 DUP2 MSTORE PUSH1 0x4 ADD PUSH2 0x188 SWAP1 PUSH2 0x21BC JUMP JUMPDEST PUSH1 0x40 MLOAD DUP1 SWAP2 SUB SWAP1 REVERT JUMPDEST PUSH2 0x199 PUSH2 0x19CA JUMP JUMPDEST DUP9 DUP2 PUSH1 0x0 ADD DUP2 DUP2 MSTORE POP POP DUP8 DUP2 PUSH1 0x40 ADD DUP2 DUP2 MSTORE POP POP DUP7 DUP2 PUSH1 0x80 ADD DUP2 DUP2 MSTORE POP POP DUP6 DUP2 PUSH1 0xC0 ADD DUP2 DUP2 MSTORE POP POP DUP5 DUP2 PUSH1 0xE0 ADD DUP2 DUP2 MSTORE POP POP DUP4 DUP2 PUSH2 0x100 ADD DUP2 DUP2 MSTORE POP POP DUP3 DUP2 PUSH2 0x120 ADD DUP2 DUP2 MSTORE POP POP DUP2 DUP2 PUSH2 0x140 ADD DUP2 DUP2 MSTORE POP POP DUP1 PUSH1 0x0 DUP1 DUP12 DUP2 MSTORE PUSH1 0x20 ADD SWAP1 DUP2 MSTORE PUSH1 0x20 ADD PUSH1 0x0 KECCAK256 PUSH1 0x0 DUP3 ADD MLOAD DUP2 PUSH1 0x0 ADD SSTORE PUSH1 0x20 DUP3 ADD MLOAD DUP2 PUSH1 0x1 ADD SSTORE PUSH1 0x40 DUP3 ADD MLOAD DUP2 PUSH1 0x2 ADD SSTORE PUSH1 0x60 DUP3 ADD MLOAD DUP2 PUSH1 0x3 ADD SSTORE PUSH1 0x80 DUP3 ADD MLOAD DUP2 PUSH1 0x4 ADD SSTORE PUSH1 0xA0 DUP3 ADD MLOAD DUP2 PUSH1 0x5 ADD SSTORE PUSH1 0xC0 DUP3 ADD MLOAD DUP2 PUSH1 0x6 ADD SSTORE PUSH1 0xE0 DUP3 ADD MLOAD DUP2 PUSH1 0x7 ADD SSTORE PUSH2 0x100 DUP3 ADD MLOAD DUP2 PUSH1 0x8 ADD SSTORE PUSH2 0x120 DUP3 ADD MLOAD DUP2 PUSH1 0x9 ADD SSTORE PUSH2 0x140 DUP3 ADD MLOAD DUP2 PUSH1 0xA ADD SSTORE PUSH2 0x160 DUP3 ADD MLOAD DUP2 PUSH1 0xB ADD PUSH1 0x0 PUSH2 0x100 EXP DUP2 SLOAD DUP2 PUSH1 0xFF MUL NOT AND SWAP1 DUP4 ISZERO ISZERO MUL OR SWAP1 SSTORE POP SWAP1 POP POP POP POP POP POP POP POP POP POP POP JUMP JUMPDEST PUSH1 0x0 DUP1 SHL PUSH1 0x0 DUP1 DUP7 DUP2 MSTORE PUSH1 0x20 ADD SWAP1 DUP2 MSTORE PUSH1 0x20 ADD PUSH1 0x0 KECCAK256 PUSH1 0x0 ADD SLOAD SUB PUSH2 0x2F9 JUMPI PUSH1 0x40 MLOAD PUSH32 0x8C379A000000000000000000000000000000000000000000000000000000000 DUP2 MSTORE PUSH1 0x4 ADD PUSH2 0x2F0 SWAP1 PUSH2 0x2228 JUMP JUMPDEST PUSH1 0x40 MLOAD DUP1 SWAP2 SUB SWAP1 REVERT JUMPDEST PUSH1 0x0 ISZERO ISZERO PUSH1 0x0 DUP1 DUP7 DUP2 MSTORE PUSH1 0x20 ADD SWAP1 DUP2 MSTORE PUSH1 0x20 ADD PUSH1 0x0 KECCAK256 PUSH1 0xB ADD PUSH1 0x0 SWAP1 SLOAD SWAP1 PUSH2 0x100 EXP SWAP1 DIV PUSH1 0xFF AND ISZERO ISZERO EQ PUSH2 0x362 JUMPI PUSH1 0x40 MLOAD PUSH32 0x8C379A000000000000000000000000000000000000000000000000000000000 DUP2 MSTORE PUSH1 0x4 ADD PUSH2 0x359 SWAP1 PUSH2 0x2294 JUMP JUMPDEST PUSH1 0x40 MLOAD DUP1 SWAP2 SUB SWAP1 REVERT JUMPDEST PUSH1 0x0 DUP1 SHL PUSH1 0x0 DUP1 DUP7 DUP2 MSTORE PUSH1 0x20 ADD SWAP1 DUP2 MSTORE PUSH1 0x20 ADD PUSH1 0x0 KECCAK256 PUSH1 0x1 ADD SLOAD EQ PUSH2 0x3BC JUMPI PUSH1 0x40 MLOAD PUSH32 0x8C379A000000000000000000000000000000000000000000000000000000000 DUP2 MSTORE PUSH1 0x4 ADD PUSH2 0x3B3 SWAP1 PUSH2 0x2326 JUMP JUMPDEST PUSH1 0x40 MLOAD DUP1 SWAP2 SUB SWAP1 REVERT JUMPDEST PUSH1 0x1 ISZERO ISZERO PUSH2 0x3E6 DUP9 DUP9 DUP9 PUSH1 0x40 MLOAD DUP1 PUSH1 0x40 ADD PUSH1 0x40 MSTORE DUP1 DUP11 PUSH1 0x0 SHR DUP2 MSTORE PUSH1 0x20 ADD DUP10 PUSH1 0x0 SHR DUP2 MSTORE POP PUSH2 0x8D9 JUMP JUMPDEST ISZERO ISZERO EQ PUSH2 0x428 JUMPI PUSH1 0x40 MLOAD PUSH32 0x8C379A000000000000000000000000000000000000000000000000000000000 DUP2 MSTORE PUSH1 0x4 ADD PUSH2 0x41F SWAP1 PUSH2 0x2392 JUMP JUMPDEST PUSH1 0x40 MLOAD DUP1 SWAP2 SUB SWAP1 REVERT JUMPDEST DUP3 PUSH1 0x0 DUP1 DUP7 DUP2 MSTORE PUSH1 0x20 ADD SWAP1 DUP2 MSTORE PUSH1 0x20 ADD PUSH1 0x0 KECCAK256 PUSH1 0x1 ADD DUP2 SWAP1 SSTORE POP DUP2 PUSH1 0x0 DUP1 DUP7 DUP2 MSTORE PUSH1 0x20 ADD SWAP1 DUP2 MSTORE PUSH1 0x20 ADD PUSH1 0x0 KECCAK256 PUSH1 0x3 ADD DUP2 SWAP1 SSTORE POP DUP1 PUSH1 0x0 DUP1 DUP7 DUP2 MSTORE PUSH1 0x20 ADD SWAP1 DUP2 MSTORE PUSH1 0x20 ADD PUSH1 0x0 KECCAK256 PUSH1 0x5 ADD DUP2 SWAP1 SSTORE POP PUSH1 0x1 PUSH1 0x0 DUP1 DUP7 DUP2 MSTORE PUSH1 0x20 ADD SWAP1 DUP2 MSTORE PUSH1 0x20 ADD PUSH1 0x0 KECCAK256 PUSH1 0xB ADD PUSH1 0x0 PUSH2 0x100 EXP DUP2 SLOAD DUP2 PUSH1 0xFF MUL NOT AND SWAP1 DUP4 ISZERO ISZERO MUL OR SWAP1 SSTORE POP POP POP POP POP POP POP POP JUMP JUMPDEST PUSH2 0x4B5 PUSH2 0x19CA JUMP JUMPDEST PUSH1 0x0 DUP1 DUP4 DUP2 MSTORE PUSH1 0x20 ADD SWAP1 DUP2 MSTORE PUSH1 0x20 ADD PUSH1 0x0 KECCAK256 PUSH1 0x40 MLOAD DUP1 PUSH2 0x180 ADD PUSH1 0x40 MSTORE SWAP1 DUP2 PUSH1 0x0 DUP3 ADD SLOAD DUP2 MSTORE PUSH1 0x20 ADD PUSH1 0x1 DUP3 ADD SLOAD DUP2 MSTORE PUSH1 0x20 ADD PUSH1 0x2 DUP3 ADD SLOAD DUP2 MSTORE PUSH1 0x20 ADD PUSH1 0x3 DUP3 ADD SLOAD DUP2 MSTORE PUSH1 0x20 ADD PUSH1 0x4 DUP3 ADD SLOAD DUP2 MSTORE PUSH1 0x20 ADD PUSH1 0x5 DUP3 ADD SLOAD DUP2 MSTORE PUSH1 0x20 ADD PUSH1 0x6 DUP3 ADD SLOAD DUP2 MSTORE PUSH1 0x20 ADD PUSH1 0x7 DUP3 ADD SLOAD DUP2 MSTORE PUSH1 0x20 ADD PUSH1 0x8 DUP3 ADD SLOAD DUP2 MSTORE PUSH1 0x20 ADD PUSH1 0x9 DUP3 ADD SLOAD DUP2 MSTORE PUSH1 0x20 ADD PUSH1 0xA DUP3 ADD SLOAD DUP2 MSTORE PUSH1 0x20 ADD PUSH1 0xB DUP3 ADD PUSH1 0x0 SWAP1 SLOAD SWAP1 PUSH2 0x100 EXP SWAP1 DIV PUSH1 0xFF AND ISZERO ISZERO ISZERO ISZERO DUP2 MSTORE POP POP SWAP1 POP SWAP2 SWAP1 POP JUMP JUMPDEST PUSH1 0x0 DUP1 SHL PUSH1 0x0 DUP1 DUP7 DUP2 MSTORE PUSH1 0x20 ADD SWAP1 DUP2 MSTORE PUSH1 0x20 ADD PUSH1 0x0 KECCAK256 PUSH1 0x0 ADD SLOAD SUB PUSH2 0x5BD JUMPI PUSH1 0x40 MLOAD PUSH32 0x8C379A000000000000000000000000000000000000000000000000000000000 DUP2 MSTORE PUSH1 0x4 ADD PUSH2 0x5B4 SWAP1 PUSH2 0x2228 JUMP JUMPDEST PUSH1 0x40 MLOAD DUP1 SWAP2 SUB SWAP1 REVERT JUMPDEST PUSH1 0x0 ISZERO ISZERO PUSH1 0x0 DUP1 DUP7 DUP2 MSTORE PUSH1 0x20 ADD SWAP1 DUP2 MSTORE PUSH1 0x20 ADD PUSH1 0x0 KECCAK256 PUSH1 0xB ADD PUSH1 0x0 SWAP1 SLOAD SWAP1 PUSH2 0x100 EXP SWAP1 DIV PUSH1 0xFF AND ISZERO ISZERO EQ PUSH2 0x626 JUMPI PUSH1 0x40 MLOAD PUSH32 0x8C379A000000000000000000000000000000000000000000000000000000000 DUP2 MSTORE PUSH1 0x4 ADD PUSH2 0x61D SWAP1 PUSH2 0x2294 JUMP JUMPDEST PUSH1 0x40 MLOAD DUP1 SWAP2 SUB SWAP1 REVERT JUMPDEST PUSH1 0x0 DUP1 SHL PUSH1 0x0 DUP1 DUP7 DUP2 MSTORE PUSH1 0x20 ADD SWAP1 DUP2 MSTORE PUSH1 0x20 ADD PUSH1 0x0 KECCAK256 PUSH1 0x2 ADD SLOAD EQ PUSH2 0x680 JUMPI PUSH1 0x40 MLOAD PUSH32 0x8C379A000000000000000000000000000000000000000000000000000000000 DUP2 MSTORE PUSH1 0x4 ADD PUSH2 0x677 SWAP1 PUSH2 0x2326 JUMP JUMPDEST PUSH1 0x40 MLOAD DUP1 SWAP2 SUB SWAP1 REVERT JUMPDEST PUSH1 0x1 ISZERO ISZERO PUSH2 0x6AA DUP9 DUP9 DUP9 PUSH1 0x40 MLOAD DUP1 PUSH1 0x40 ADD PUSH1 0x40 MSTORE DUP1 DUP11 PUSH1 0x0 SHR DUP2 MSTORE PUSH1 0x20 ADD DUP10 PUSH1 0x0 SHR DUP2 MSTORE POP PUSH2 0x8D9 JUMP JUMPDEST ISZERO ISZERO EQ PUSH2 0x6EC JUMPI PUSH1 0x40 MLOAD PUSH32 0x8C379A000000000000000000000000000000000000000000000000000000000 DUP2 MSTORE PUSH1 0x4 ADD PUSH2 0x6E3 SWAP1 PUSH2 0x2392 JUMP JUMPDEST PUSH1 0x40 MLOAD DUP1 SWAP2 SUB SWAP1 REVERT JUMPDEST DUP3 PUSH1 0x0 DUP1 DUP7 DUP2 MSTORE PUSH1 0x20 ADD SWAP1 DUP2 MSTORE PUSH1 0x20 ADD PUSH1 0x0 KECCAK256 PUSH1 0x2 ADD DUP2 SWAP1 SSTORE POP DUP2 PUSH1 0x0 DUP1 DUP7 DUP2 MSTORE PUSH1 0x20 ADD SWAP1 DUP2 MSTORE PUSH1 0x20 ADD PUSH1 0x0 KECCAK256 PUSH1 0x4 ADD DUP2 SWAP1 SSTORE POP DUP1 PUSH1 0x0 DUP1 DUP7 DUP2 MSTORE PUSH1 0x20 ADD SWAP1 DUP2 MSTORE PUSH1 0x20 ADD PUSH1 0x0 KECCAK256 PUSH1 0x6 ADD DUP2 SWAP1 SSTORE POP PUSH1 0x1 PUSH1 0x0 DUP1 DUP7 DUP2 MSTORE PUSH1 0x20 ADD SWAP1 DUP2 MSTORE PUSH1 0x20 ADD PUSH1 0x0 KECCAK256 PUSH1 0xB ADD PUSH1 0x0 PUSH2 0x100 EXP DUP2 SLOAD DUP2 PUSH1 0xFF MUL NOT AND SWAP1 DUP4 ISZERO ISZERO MUL OR SWAP1 SSTORE POP POP POP POP POP POP POP POP JUMP JUMPDEST PUSH1 0x0 DUP1 SHL PUSH1 0x0 DUP1 DUP11 DUP2 MSTORE PUSH1 0x20 ADD SWAP1 DUP2 MSTORE PUSH1 0x20 ADD PUSH1 0x0 KECCAK256 PUSH1 0x0 ADD SLOAD EQ PUSH2 0x7CB JUMPI PUSH1 0x40 MLOAD PUSH32 0x8C379A000000000000000000000000000000000000000000000000000000000 DUP2 MSTORE PUSH1 0x4 ADD PUSH2 0x7C2 SWAP1 PUSH2 0x21BC JUMP JUMPDEST PUSH1 0x40 MLOAD DUP1 SWAP2 SUB SWAP1 REVERT JUMPDEST PUSH2 0x7D3 PUSH2 0x19CA JUMP JUMPDEST DUP9 DUP2 PUSH1 0x0 ADD DUP2 DUP2 MSTORE POP POP DUP8 DUP2 PUSH1 0x20 ADD DUP2 DUP2 MSTORE POP POP DUP7 DUP2 PUSH1 0x60 ADD DUP2 DUP2 MSTORE POP POP DUP6 DUP2 PUSH1 0xA0 ADD DUP2 DUP2 MSTORE POP POP DUP5 DUP2 PUSH1 0xE0 ADD DUP2 DUP2 MSTORE POP POP DUP4 DUP2 PUSH2 0x100 ADD DUP2 DUP2 MSTORE POP POP DUP3 DUP2 PUSH2 0x120 ADD DUP2 DUP2 MSTORE POP POP DUP2 DUP2 PUSH2 0x140 ADD DUP2 DUP2 MSTORE POP POP DUP1 PUSH1 0x0 DUP1 DUP12 DUP2 MSTORE PUSH1 0x20 ADD SWAP1 DUP2 MSTORE PUSH1 0x20 ADD PUSH1 0x0 KECCAK256 PUSH1 0x0 DUP3 ADD MLOAD DUP2 PUSH1 0x0 ADD SSTORE PUSH1 0x20 DUP3 ADD MLOAD DUP2 PUSH1 0x1 ADD SSTORE PUSH1 0x40 DUP3 ADD MLOAD DUP2 PUSH1 0x2 ADD SSTORE PUSH1 0x60 DUP3 ADD MLOAD DUP2 PUSH1 0x3 ADD SSTORE PUSH1 0x80 DUP3 ADD MLOAD DUP2 PUSH1 0x4 ADD SSTORE PUSH1 0xA0 DUP3 ADD MLOAD DUP2 PUSH1 0x5 ADD SSTORE PUSH1 0xC0 DUP3 ADD MLOAD DUP2 PUSH1 0x6 ADD SSTORE PUSH1 0xE0 DUP3 ADD MLOAD DUP2 PUSH1 0x7 ADD SSTORE PUSH2 0x100 DUP3 ADD MLOAD DUP2 PUSH1 0x8 ADD SSTORE PUSH2 0x120 DUP3 ADD MLOAD DUP2 PUSH1 0x9 ADD SSTORE PUSH2 0x140 DUP3 ADD MLOAD DUP2 PUSH1 0xA ADD SSTORE PUSH2 0x160 DUP3 ADD MLOAD DUP2 PUSH1 0xB ADD PUSH1 0x0 PUSH2 0x100 EXP DUP2 SLOAD DUP2 PUSH1 0xFF MUL NOT AND SWAP1 DUP4 ISZERO ISZERO MUL OR SWAP1 SSTORE POP SWAP1 POP POP POP POP POP POP POP POP POP POP POP JUMP JUMPDEST PUSH1 0x0 PUSH2 0x8E3 PUSH2 0x1A42 JUMP JUMPDEST PUSH1 0x40 MLOAD DUP1 PUSH1 0x40 ADD PUSH1 0x40 MSTORE DUP1 DUP8 PUSH1 0x0 PUSH1 0x2 DUP2 LT PUSH2 0x902 JUMPI PUSH2 0x901 PUSH2 0x23B2 JUMP JUMPDEST JUMPDEST PUSH1 0x20 MUL ADD MLOAD DUP2 MSTORE PUSH1 0x20 ADD DUP8 PUSH1 0x1 PUSH1 0x2 DUP2 LT PUSH2 0x920 JUMPI PUSH2 0x91F PUSH2 0x23B2 JUMP JUMPDEST JUMPDEST PUSH1 0x20 MUL ADD MLOAD DUP2 MSTORE POP DUP2 PUSH1 0x0 ADD DUP2 SWAP1 MSTORE POP PUSH1 0x40 MLOAD DUP1 PUSH1 0x40 ADD PUSH1 0x40 MSTORE DUP1 PUSH1 0x40 MLOAD DUP1 PUSH1 0x40 ADD PUSH1 0x40 MSTORE DUP1 DUP9 PUSH1 0x0 PUSH1 0x2 DUP2 LT PUSH2 0x95A JUMPI PUSH2 0x959 PUSH2 0x23B2 JUMP JUMPDEST JUMPDEST PUSH1 0x20 MUL ADD MLOAD PUSH1 0x0 PUSH1 0x2 DUP2 LT PUSH2 0x972 JUMPI PUSH2 0x971 PUSH2 0x23B2 JUMP JUMPDEST JUMPDEST PUSH1 0x20 MUL ADD MLOAD DUP2 MSTORE PUSH1 0x20 ADD DUP9 PUSH1 0x0 PUSH1 0x2 DUP2 LT PUSH2 0x990 JUMPI PUSH2 0x98F PUSH2 0x23B2 JUMP JUMPDEST JUMPDEST PUSH1 0x20 MUL ADD MLOAD PUSH1 0x1 PUSH1 0x2 DUP2 LT PUSH2 0x9A8 JUMPI PUSH2 0x9A7 PUSH2 0x23B2 JUMP JUMPDEST JUMPDEST PUSH1 0x20 MUL ADD MLOAD DUP2 MSTORE POP DUP2 MSTORE PUSH1 0x20 ADD PUSH1 0x40 MLOAD DUP1 PUSH1 0x40 ADD PUSH1 0x40 MSTORE DUP1 DUP9 PUSH1 0x1 PUSH1 0x2 DUP2 LT PUSH2 0x9D4 JUMPI PUSH2 0x9D3 PUSH2 0x23B2 JUMP JUMPDEST JUMPDEST PUSH1 0x20 MUL ADD MLOAD PUSH1 0x0 PUSH1 0x2 DUP2 LT PUSH2 0x9EC JUMPI PUSH2 0x9EB PUSH2 0x23B2 JUMP JUMPDEST JUMPDEST PUSH1 0x20 MUL ADD MLOAD DUP2 MSTORE PUSH1 0x20 ADD DUP9 PUSH1 0x1 PUSH1 0x2 DUP2 LT PUSH2 0xA0A JUMPI PUSH2 0xA09 PUSH2 0x23B2 JUMP JUMPDEST JUMPDEST PUSH1 0x20 MUL ADD MLOAD PUSH1 0x1 PUSH1 0x2 DUP2 LT PUSH2 0xA22 JUMPI PUSH2 0xA21 PUSH2 0x23B2 JUMP JUMPDEST JUMPDEST PUSH1 0x20 MUL ADD MLOAD DUP2 MSTORE POP DUP2 MSTORE POP DUP2 PUSH1 0x20 ADD DUP2 SWAP1 MSTORE POP PUSH1 0x40 MLOAD DUP1 PUSH1 0x40 ADD PUSH1 0x40 MSTORE DUP1 DUP6 PUSH1 0x0 PUSH1 0x2 DUP2 LT PUSH2 0xA54 JUMPI PUSH2 0xA53 PUSH2 0x23B2 JUMP JUMPDEST JUMPDEST PUSH1 0x20 MUL ADD MLOAD DUP2 MSTORE PUSH1 0x20 ADD DUP6 PUSH1 0x1 PUSH1 0x2 DUP2 LT PUSH2 0xA72 JUMPI PUSH2 0xA71 PUSH2 0x23B2 JUMP JUMPDEST JUMPDEST PUSH1 0x20 MUL ADD MLOAD DUP2 MSTORE POP DUP2 PUSH1 0x40 ADD DUP2 SWAP1 MSTORE POP PUSH1 0x0 PUSH1 0x2 PUSH8 0xFFFFFFFFFFFFFFFF DUP2 GT ISZERO PUSH2 0xA9F JUMPI PUSH2 0xA9E PUSH2 0x1CCB JUMP JUMPDEST JUMPDEST PUSH1 0x40 MLOAD SWAP1 DUP1 DUP3 MSTORE DUP1 PUSH1 0x20 MUL PUSH1 0x20 ADD DUP3 ADD PUSH1 0x40 MSTORE DUP1 ISZERO PUSH2 0xACD JUMPI DUP2 PUSH1 0x20 ADD PUSH1 0x20 DUP3 MUL DUP1 CALLDATASIZE DUP4 CALLDATACOPY DUP1 DUP3 ADD SWAP2 POP POP SWAP1 POP JUMPDEST POP SWAP1 POP PUSH1 0x0 JUMPDEST PUSH1 0x2 DUP2 LT ISZERO PUSH2 0xB26 JUMPI DUP5 DUP2 PUSH1 0x2 DUP2 LT PUSH2 0xAEF JUMPI PUSH2 0xAEE PUSH2 0x23B2 JUMP JUMPDEST JUMPDEST PUSH1 0x20 MUL ADD MLOAD DUP3 DUP3 DUP2 MLOAD DUP2 LT PUSH2 0xB07 JUMPI PUSH2 0xB06 PUSH2 0x23B2 JUMP JUMPDEST JUMPDEST PUSH1 0x20 MUL PUSH1 0x20 ADD ADD DUP2 DUP2 MSTORE POP POP DUP1 DUP1 PUSH2 0xB1E SWAP1 PUSH2 0x2410 JUMP JUMPDEST SWAP2 POP POP PUSH2 0xAD3 JUMP JUMPDEST POP PUSH1 0x0 PUSH2 0xB33 DUP3 DUP5 PUSH2 0xB52 JUMP JUMPDEST SUB PUSH2 0xB43 JUMPI PUSH1 0x1 SWAP3 POP POP POP PUSH2 0xB4A JUMP JUMPDEST PUSH1 0x0 SWAP3 POP POP POP JUMPDEST SWAP5 SWAP4 POP POP POP POP JUMP JUMPDEST PUSH1 0x0 DUP1 PUSH32 0x30644E72E131A029B85045B68181585D2833E84879B9709143E1F593F0000001 SWAP1 POP PUSH1 0x0 PUSH2 0xB82 PUSH2 0xD45 JUMP JUMPDEST SWAP1 POP DUP1 PUSH1 0x80 ADD MLOAD MLOAD PUSH1 0x1 DUP7 MLOAD PUSH2 0xB98 SWAP2 SWAP1 PUSH2 0x2458 JUMP JUMPDEST EQ PUSH2 0xBD8 JUMPI PUSH1 0x40 MLOAD PUSH32 0x8C379A000000000000000000000000000000000000000000000000000000000 DUP2 MSTORE PUSH1 0x4 ADD PUSH2 0xBCF SWAP1 PUSH2 0x24FA JUMP JUMPDEST PUSH1 0x40 MLOAD DUP1 SWAP2 SUB SWAP1 REVERT JUMPDEST PUSH1 0x0 PUSH1 0x40 MLOAD DUP1 PUSH1 0x40 ADD PUSH1 0x40 MSTORE DUP1 PUSH1 0x0 DUP2 MSTORE PUSH1 0x20 ADD PUSH1 0x0 DUP2 MSTORE POP SWAP1 POP PUSH1 0x0 JUMPDEST DUP7 MLOAD DUP2 LT ISZERO PUSH2 0xCC7 JUMPI DUP4 DUP8 DUP3 DUP2 MLOAD DUP2 LT PUSH2 0xC13 JUMPI PUSH2 0xC12 PUSH2 0x23B2 JUMP JUMPDEST JUMPDEST PUSH1 0x20 MUL PUSH1 0x20 ADD ADD MLOAD LT PUSH2 0xC5B JUMPI PUSH1 0x40 MLOAD PUSH32 0x8C379A000000000000000000000000000000000000000000000000000000000 DUP2 MSTORE PUSH1 0x4 ADD PUSH2 0xC52 SWAP1 PUSH2 0x2566 JUMP JUMPDEST PUSH1 0x40 MLOAD DUP1 SWAP2 SUB SWAP1 REVERT JUMPDEST PUSH2 0xCB2 DUP3 PUSH2 0xCAD DUP6 PUSH1 0x80 ADD MLOAD PUSH1 0x1 DUP6 PUSH2 0xC74 SWAP2 SWAP1 PUSH2 0x2458 JUMP JUMPDEST DUP2 MLOAD DUP2 LT PUSH2 0xC85 JUMPI PUSH2 0xC84 PUSH2 0x23B2 JUMP JUMPDEST JUMPDEST PUSH1 0x20 MUL PUSH1 0x20 ADD ADD MLOAD DUP11 DUP6 DUP2 MLOAD DUP2 LT PUSH2 0xCA0 JUMPI PUSH2 0xC9F PUSH2 0x23B2 JUMP JUMPDEST JUMPDEST PUSH1 0x20 MUL PUSH1 0x20 ADD ADD MLOAD PUSH2 0x11C0 JUMP JUMPDEST PUSH2 0x1298 JUMP JUMPDEST SWAP2 POP DUP1 DUP1 PUSH2 0xCBF SWAP1 PUSH2 0x2410 JUMP JUMPDEST SWAP2 POP POP PUSH2 0xBF6 JUMP JUMPDEST POP PUSH2 0xCF1 DUP2 DUP4 PUSH1 0x80 ADD MLOAD PUSH1 0x0 DUP2 MLOAD DUP2 LT PUSH2 0xCE4 JUMPI PUSH2 0xCE3 PUSH2 0x23B2 JUMP JUMPDEST JUMPDEST PUSH1 0x20 MUL PUSH1 0x20 ADD ADD MLOAD PUSH2 0x1298 JUMP JUMPDEST SWAP1 POP PUSH2 0xD27 PUSH2 0xD03 DUP7 PUSH1 0x0 ADD MLOAD PUSH2 0x1396 JUMP JUMPDEST DUP7 PUSH1 0x20 ADD MLOAD DUP5 PUSH1 0x0 ADD MLOAD DUP6 PUSH1 0x20 ADD MLOAD DUP6 DUP8 PUSH1 0x40 ADD MLOAD DUP12 PUSH1 0x40 ADD MLOAD DUP10 PUSH1 0x60 ADD MLOAD PUSH2 0x143B JUMP JUMPDEST PUSH2 0xD37 JUMPI PUSH1 0x1 SWAP4 POP POP POP POP PUSH2 0xD3F JUMP JUMPDEST PUSH1 0x0 SWAP4 POP POP POP POP JUMPDEST SWAP3 SWAP2 POP POP JUMP JUMPDEST PUSH2 0xD4D PUSH2 0x1A75 JUMP JUMPDEST PUSH1 0x40 MLOAD DUP1 PUSH1 0x40 ADD PUSH1 0x40 MSTORE DUP1 PUSH32 0x2D4D9AA7E302D9DF41749D5507949D05DBEA33FBB16C643B22F599A2BE6DF2E2 DUP2 MSTORE PUSH1 0x20 ADD PUSH32 0x14BEDD503C37CEB061D8EC60209FE345CE89830A19230301F076CAFF004D1926 DUP2 MSTORE POP DUP2 PUSH1 0x0 ADD DUP2 SWAP1 MSTORE POP PUSH1 0x40 MLOAD DUP1 PUSH1 0x40 ADD PUSH1 0x40 MSTORE DUP1 PUSH1 0x40 MLOAD DUP1 PUSH1 0x40 ADD PUSH1 0x40 MSTORE DUP1 PUSH32 0x967032FCBF776D1AFC985F88877F182D38480A653F2DECAA9794CBC3BF3060C DUP2 MSTORE PUSH1 0x20 ADD PUSH32 0xE187847AD4C798374D0D6732BF501847DD68BC0E071241E0213BC7FC13DB7AB DUP2 MSTORE POP DUP2 MSTORE PUSH1 0x20 ADD PUSH1 0x40 MLOAD DUP1 PUSH1 0x40 ADD PUSH1 0x40 MSTORE DUP1 PUSH32 0x304CFBD1E08A704A99F5E847D93F8C3CAAFDDEC46B7A0D379DA69A4D112346A7 DUP2 MSTORE PUSH1 0x20 ADD PUSH32 0x1739C1B1A457A8C7313123D24D2F9192F896B7C63EEA05A9D57F06547AD0CEC8 DUP2 MSTORE POP DUP2 MSTORE POP DUP2 PUSH1 0x20 ADD DUP2 SWAP1 MSTORE POP PUSH1 0x40 MLOAD DUP1 PUSH1 0x40 ADD PUSH1 0x40 MSTORE DUP1 PUSH1 0x40 MLOAD DUP1 PUSH1 0x40 ADD PUSH1 0x40 MSTORE DUP1 PUSH32 0x198E9393920D483A7260BFB731FB5D25F1AA493335A9E71297E485B7AEF312C2 DUP2 MSTORE PUSH1 0x20 ADD PUSH32 0x1800DEEF121F1E76426A00665E5C4479674322D4F75EDADD46DEBD5CD992F6ED DUP2 MSTORE POP DUP2 MSTORE PUSH1 0x20 ADD PUSH1 0x40 MLOAD DUP1 PUSH1 0x40 ADD PUSH1 0x40 MSTORE DUP1 PUSH32 0x90689D0585FF075EC9E99AD690C3395BC4B313370B38EF355ACDADCD122975B DUP2 MSTORE PUSH1 0x20 ADD PUSH32 0x12C85EA5DB8C6DEB4AAB71808DCB408FE3D1E7690C43D37B4CE6CC0166FA7DAA DUP2 MSTORE POP DUP2 MSTORE POP DUP2 PUSH1 0x40 ADD DUP2 SWAP1 MSTORE POP PUSH1 0x40 MLOAD DUP1 PUSH1 0x40 ADD PUSH1 0x40 MSTORE DUP1 PUSH1 0x40 MLOAD DUP1 PUSH1 0x40 ADD PUSH1 0x40 MSTORE DUP1 PUSH32 0x2F18B0AECF85D2C5A891C57A53BD212EC667E91F11E83F31A88004EA8F2A30D7 DUP2 MSTORE PUSH1 0x20 ADD PUSH32 0x2664EDC7F6AA80DF0DB615A18D803A1F45FF701DE24CE4322C1AD711B0A1E204 DUP2 MSTORE POP DUP2 MSTORE PUSH1 0x20 ADD PUSH1 0x40 MLOAD DUP1 PUSH1 0x40 ADD PUSH1 0x40 MSTORE DUP1 PUSH32 0x25C42CF0EB3ABAA866391BA97E528DD3F70DD92B2C2F16460C184F96D62D4008 DUP2 MSTORE PUSH1 0x20 ADD PUSH32 0x2C02F23949FB0E18C3A55A09277B0F9F1507ED9B51173743A310C2B23696FFDB DUP2 MSTORE POP DUP2 MSTORE POP DUP2 PUSH1 0x60 ADD DUP2 SWAP1 MSTORE POP PUSH1 0x3 PUSH8 0xFFFFFFFFFFFFFFFF DUP2 GT ISZERO PUSH2 0x1014 JUMPI PUSH2 0x1013 PUSH2 0x1CCB JUMP JUMPDEST JUMPDEST PUSH1 0x40 MLOAD SWAP1 DUP1 DUP3 MSTORE DUP1 PUSH1 0x20 MUL PUSH1 0x20 ADD DUP3 ADD PUSH1 0x40 MSTORE DUP1 ISZERO PUSH2 0x104D JUMPI DUP2 PUSH1 0x20 ADD JUMPDEST PUSH2 0x103A PUSH2 0x1ABC JUMP JUMPDEST DUP2 MSTORE PUSH1 0x20 ADD SWAP1 PUSH1 0x1 SWAP1 SUB SWAP1 DUP2 PUSH2 0x1032 JUMPI SWAP1 POP JUMPDEST POP DUP2 PUSH1 0x80 ADD DUP2 SWAP1 MSTORE POP PUSH1 0x40 MLOAD DUP1 PUSH1 0x40 ADD PUSH1 0x40 MSTORE DUP1 PUSH32 0x174DA0E6DE7E99BD682B721C1DBB67649CA85F599348C3242283F1125FAF43CE DUP2 MSTORE PUSH1 0x20 ADD PUSH32 0x2C4F882B45472DED04FCBEC8CC3E6A687D72BA3BC10371785E988A38B907D77F DUP2 MSTORE POP DUP2 PUSH1 0x80 ADD MLOAD PUSH1 0x0 DUP2 MLOAD DUP2 LT PUSH2 0x10C3 JUMPI PUSH2 0x10C2 PUSH2 0x23B2 JUMP JUMPDEST JUMPDEST PUSH1 0x20 MUL PUSH1 0x20 ADD ADD DUP2 SWAP1 MSTORE POP PUSH1 0x40 MLOAD DUP1 PUSH1 0x40 ADD PUSH1 0x40 MSTORE DUP1 PUSH32 0x1538889DBABC4B53EB5FA317F807AA238F11380E9A35806EDF11B31CDF7A9577 DUP2 MSTORE PUSH1 0x20 ADD PUSH31 0x6782ECF67F73EC5DF8474948A8EBF29DD220453BF231E70C0D69AE559FE14C DUP2 MSTORE POP DUP2 PUSH1 0x80 ADD MLOAD PUSH1 0x1 DUP2 MLOAD DUP2 LT PUSH2 0x113A JUMPI PUSH2 0x1139 PUSH2 0x23B2 JUMP JUMPDEST JUMPDEST PUSH1 0x20 MUL PUSH1 0x20 ADD ADD DUP2 SWAP1 MSTORE POP PUSH1 0x40 MLOAD DUP1 PUSH1 0x40 ADD PUSH1 0x40 MSTORE DUP1 PUSH32 0x2DD2CC3BCF0F2251C72793FE6BE836C53190B8AB5BB45D9A41BFEE0736CB0A9 DUP2 MSTORE PUSH1 0x20 ADD PUSH32 0x18FC828AFD30955032D5FFEC835054337C1C0748443440A86A4D39B617E5EC19 DUP2 MSTORE POP DUP2 PUSH1 0x80 ADD MLOAD PUSH1 0x2 DUP2 MLOAD DUP2 LT PUSH2 0x11B2 JUMPI PUSH2 0x11B1 PUSH2 0x23B2 JUMP JUMPDEST JUMPDEST PUSH1 0x20 MUL PUSH1 0x20 ADD ADD DUP2 SWAP1 MSTORE POP SWAP1 JUMP JUMPDEST PUSH2 0x11C8 PUSH2 0x1ABC JUMP JUMPDEST PUSH2 0x11D0 PUSH2 0x1AD6 JUMP JUMPDEST DUP4 PUSH1 0x0 ADD MLOAD DUP2 PUSH1 0x0 PUSH1 0x3 DUP2 LT PUSH2 0x11E9 JUMPI PUSH2 0x11E8 PUSH2 0x23B2 JUMP JUMPDEST JUMPDEST PUSH1 0x20 MUL ADD DUP2 DUP2 MSTORE POP POP DUP4 PUSH1 0x20 ADD MLOAD DUP2 PUSH1 0x1 PUSH1 0x3 DUP2 LT PUSH2 0x120B JUMPI PUSH2 0x120A PUSH2 0x23B2 JUMP JUMPDEST JUMPDEST PUSH1 0x20 MUL ADD DUP2 DUP2 MSTORE POP POP DUP3 DUP2 PUSH1 0x2 PUSH1 0x3 DUP2 LT PUSH2 0x1229 JUMPI PUSH2 0x1228 PUSH2 0x23B2 JUMP JUMPDEST JUMPDEST PUSH1 0x20 MUL ADD DUP2 DUP2 MSTORE POP POP PUSH1 0x0 PUSH1 0x60 DUP4 PUSH1 0x80 DUP5 PUSH1 0x7 PUSH2 0x7D0 GAS SUB STATICCALL SWAP1 POP DUP1 PUSH1 0x0 DUP2 SUB PUSH2 0x124F JUMPI INVALID JUMPDEST POP DUP1 PUSH2 0x1290 JUMPI PUSH1 0x40 MLOAD PUSH32 0x8C379A000000000000000000000000000000000000000000000000000000000 DUP2 MSTORE PUSH1 0x4 ADD PUSH2 0x1287 SWAP1 PUSH2 0x25D2 JUMP JUMPDEST PUSH1 0x40 MLOAD DUP1 SWAP2 SUB SWAP1 REVERT JUMPDEST POP POP SWAP3 SWAP2 POP POP JUMP JUMPDEST PUSH2 0x12A0 PUSH2 0x1ABC JUMP JUMPDEST PUSH2 0x12A8 PUSH2 0x1AF8 JUMP JUMPDEST DUP4 PUSH1 0x0 ADD MLOAD DUP2 PUSH1 0x0 PUSH1 0x4 DUP2 LT PUSH2 0x12C1 JUMPI PUSH2 0x12C0 PUSH2 0x23B2 JUMP JUMPDEST JUMPDEST PUSH1 0x20 MUL ADD DUP2 DUP2 MSTORE POP POP DUP4 PUSH1 0x20 ADD MLOAD DUP2 PUSH1 0x1 PUSH1 0x4 DUP2 LT PUSH2 0x12E3 JUMPI PUSH2 0x12E2 PUSH2 0x23B2 JUMP JUMPDEST JUMPDEST PUSH1 0x20 MUL ADD DUP2 DUP2 MSTORE POP POP DUP3 PUSH1 0x0 ADD MLOAD DUP2 PUSH1 0x2 PUSH1 0x4 DUP2 LT PUSH2 0x1305 JUMPI PUSH2 0x1304 PUSH2 0x23B2 JUMP JUMPDEST JUMPDEST PUSH1 0x20 MUL ADD DUP2 DUP2 MSTORE POP POP DUP3 PUSH1 0x20 ADD MLOAD DUP2 PUSH1 0x3 PUSH1 0x4 DUP2 LT PUSH2 0x1327 JUMPI PUSH2 0x1326 PUSH2 0x23B2 JUMP JUMPDEST JUMPDEST PUSH1 0x20 MUL ADD DUP2 DUP2 MSTORE POP POP PUSH1 0x0 PUSH1 0x60 DUP4 PUSH1 0xC0 DUP5 PUSH1 0x6 PUSH2 0x7D0 GAS SUB STATICCALL SWAP1 POP DUP1 PUSH1 0x0 DUP2 SUB PUSH2 0x134D JUMPI INVALID JUMPDEST POP DUP1 PUSH2 0x138E JUMPI PUSH1 0x40 MLOAD PUSH32 0x8C379A000000000000000000000000000000000000000000000000000000000 DUP2 MSTORE PUSH1 0x4 ADD PUSH2 0x1385 SWAP1 PUSH2 0x263E JUMP JUMPDEST PUSH1 0x40 MLOAD DUP1 SWAP2 SUB SWAP1 REVERT JUMPDEST POP POP SWAP3 SWAP2 POP POP JUMP JUMPDEST PUSH2 0x139E PUSH2 0x1ABC JUMP JUMPDEST PUSH1 0x0 PUSH32 0x30644E72E131A029B85045B68181585D97816A916871CA8D3C208C16D87CFD47 SWAP1 POP PUSH1 0x0 DUP4 PUSH1 0x0 ADD MLOAD EQ DUP1 ISZERO PUSH2 0x13DB JUMPI POP PUSH1 0x0 DUP4 PUSH1 0x20 ADD MLOAD EQ JUMPDEST ISZERO PUSH2 0x13FF JUMPI PUSH1 0x40 MLOAD DUP1 PUSH1 0x40 ADD PUSH1 0x40 MSTORE DUP1 PUSH1 0x0 DUP2 MSTORE PUSH1 0x20 ADD PUSH1 0x0 DUP2 MSTORE POP SWAP2 POP POP PUSH2 0x1436 JUMP JUMPDEST PUSH1 0x40 MLOAD DUP1 PUSH1 0x40 ADD PUSH1 0x40 MSTORE DUP1 DUP5 PUSH1 0x0 ADD MLOAD DUP2 MSTORE PUSH1 0x20 ADD DUP3 DUP6 PUSH1 0x20 ADD MLOAD PUSH2 0x1424 SWAP2 SWAP1 PUSH2 0x268D JUMP JUMPDEST DUP4 PUSH2 0x142F SWAP2 SWAP1 PUSH2 0x26BE JUMP JUMPDEST DUP2 MSTORE POP SWAP2 POP POP JUMPDEST SWAP2 SWAP1 POP JUMP JUMPDEST PUSH1 0x0 DUP1 PUSH1 0x4 PUSH8 0xFFFFFFFFFFFFFFFF DUP2 GT ISZERO PUSH2 0x1459 JUMPI PUSH2 0x1458 PUSH2 0x1CCB JUMP JUMPDEST JUMPDEST PUSH1 0x40 MLOAD SWAP1 DUP1 DUP3 MSTORE DUP1 PUSH1 0x20 MUL PUSH1 0x20 ADD DUP3 ADD PUSH1 0x40 MSTORE DUP1 ISZERO PUSH2 0x1492 JUMPI DUP2 PUSH1 0x20 ADD JUMPDEST PUSH2 0x147F PUSH2 0x1ABC JUMP JUMPDEST DUP2 MSTORE PUSH1 0x20 ADD SWAP1 PUSH1 0x1 SWAP1 SUB SWAP1 DUP2 PUSH2 0x1477 JUMPI SWAP1 POP JUMPDEST POP SWAP1 POP PUSH1 0x0 PUSH1 0x4 PUSH8 0xFFFFFFFFFFFFFFFF DUP2 GT ISZERO PUSH2 0x14B2 JUMPI PUSH2 0x14B1 PUSH2 0x1CCB JUMP JUMPDEST JUMPDEST PUSH1 0x40 MLOAD SWAP1 DUP1 DUP3 MSTORE DUP1 PUSH1 0x20 MUL PUSH1 0x20 ADD DUP3 ADD PUSH1 0x40 MSTORE DUP1 ISZERO PUSH2 0x14EB JUMPI DUP2 PUSH1 0x20 ADD JUMPDEST PUSH2 0x14D8 PUSH2 0x1B1A JUMP JUMPDEST DUP2 MSTORE PUSH1 0x20 ADD SWAP1 PUSH1 0x1 SWAP1 SUB SWAP1 DUP2 PUSH2 0x14D0 JUMPI SWAP1 POP JUMPDEST POP SWAP1 POP DUP11 DUP3 PUSH1 0x0 DUP2 MLOAD DUP2 LT PUSH2 0x1503 JUMPI PUSH2 0x1502 PUSH2 0x23B2 JUMP JUMPDEST JUMPDEST PUSH1 0x20 MUL PUSH1 0x20 ADD ADD DUP2 SWAP1 MSTORE POP DUP9 DUP3 PUSH1 0x1 DUP2 MLOAD DUP2 LT PUSH2 0x1523 JUMPI PUSH2 0x1522 PUSH2 0x23B2 JUMP JUMPDEST JUMPDEST PUSH1 0x20 MUL PUSH1 0x20 ADD ADD DUP2 SWAP1 MSTORE POP DUP7 DUP3 PUSH1 0x2 DUP2 MLOAD DUP2 LT PUSH2 0x1543 JUMPI PUSH2 0x1542 PUSH2 0x23B2 JUMP JUMPDEST JUMPDEST PUSH1 0x20 MUL PUSH1 0x20 ADD ADD DUP2 SWAP1 MSTORE POP DUP5 DUP3 PUSH1 0x3 DUP2 MLOAD DUP2 LT PUSH2 0x1563 JUMPI PUSH2 0x1562 PUSH2 0x23B2 JUMP JUMPDEST JUMPDEST PUSH1 0x20 MUL PUSH1 0x20 ADD ADD DUP2 SWAP1 MSTORE POP DUP10 DUP2 PUSH1 0x0 DUP2 MLOAD DUP2 LT PUSH2 0x1583 JUMPI PUSH2 0x1582 PUSH2 0x23B2 JUMP JUMPDEST JUMPDEST PUSH1 0x20 MUL PUSH1 0x20 ADD ADD DUP2 SWAP1 MSTORE POP DUP8 DUP2 PUSH1 0x1 DUP2 MLOAD DUP2 LT PUSH2 0x15A3 JUMPI PUSH2 0x15A2 PUSH2 0x23B2 JUMP JUMPDEST JUMPDEST PUSH1 0x20 MUL PUSH1 0x20 ADD ADD DUP2 SWAP1 MSTORE POP DUP6 DUP2 PUSH1 0x2 DUP2 MLOAD DUP2 LT PUSH2 0x15C3 JUMPI PUSH2 0x15C2 PUSH2 0x23B2 JUMP JUMPDEST JUMPDEST PUSH1 0x20 MUL PUSH1 0x20 ADD ADD DUP2 SWAP1 MSTORE POP DUP4 DUP2 PUSH1 0x3 DUP2 MLOAD DUP2 LT PUSH2 0x15E3 JUMPI PUSH2 0x15E2 PUSH2 0x23B2 JUMP JUMPDEST JUMPDEST PUSH1 0x20 MUL PUSH1 0x20 ADD ADD DUP2 SWAP1 MSTORE POP PUSH2 0x15F8 DUP3 DUP3 PUSH2 0x1608 JUMP JUMPDEST SWAP3 POP POP POP SWAP9 SWAP8 POP POP POP POP POP POP POP POP JUMP JUMPDEST PUSH1 0x0 DUP2 MLOAD DUP4 MLOAD EQ PUSH2 0x164E JUMPI PUSH1 0x40 MLOAD PUSH32 0x8C379A000000000000000000000000000000000000000000000000000000000 DUP2 MSTORE PUSH1 0x4 ADD PUSH2 0x1645 SWAP1 PUSH2 0x273E JUMP JUMPDEST PUSH1 0x40 MLOAD DUP1 SWAP2 SUB SWAP1 REVERT JUMPDEST PUSH1 0x0 DUP4 MLOAD SWAP1 POP PUSH1 0x0 PUSH1 0x6 DUP3 PUSH2 0x1663 SWAP2 SWAP1 PUSH2 0x275E JUMP JUMPDEST SWAP1 POP PUSH1 0x0 DUP2 PUSH8 0xFFFFFFFFFFFFFFFF DUP2 GT ISZERO PUSH2 0x1681 JUMPI PUSH2 0x1680 PUSH2 0x1CCB JUMP JUMPDEST JUMPDEST PUSH1 0x40 MLOAD SWAP1 DUP1 DUP3 MSTORE DUP1 PUSH1 0x20 MUL PUSH1 0x20 ADD DUP3 ADD PUSH1 0x40 MSTORE DUP1 ISZERO PUSH2 0x16AF JUMPI DUP2 PUSH1 0x20 ADD PUSH1 0x20 DUP3 MUL DUP1 CALLDATASIZE DUP4 CALLDATACOPY DUP1 DUP3 ADD SWAP2 POP POP SWAP1 POP JUMPDEST POP SWAP1 POP PUSH1 0x0 JUMPDEST DUP4 DUP2 LT ISZERO PUSH2 0x1934 JUMPI DUP7 DUP2 DUP2 MLOAD DUP2 LT PUSH2 0x16D0 JUMPI PUSH2 0x16CF PUSH2 0x23B2 JUMP JUMPDEST JUMPDEST PUSH1 0x20 MUL PUSH1 0x20 ADD ADD MLOAD PUSH1 0x0 ADD MLOAD DUP3 PUSH1 0x0 PUSH1 0x6 DUP5 PUSH2 0x16EC SWAP2 SWAP1 PUSH2 0x275E JUMP JUMPDEST PUSH2 0x16F6 SWAP2 SWAP1 PUSH2 0x2458 JUMP JUMPDEST DUP2 MLOAD DUP2 LT PUSH2 0x1707 JUMPI PUSH2 0x1706 PUSH2 0x23B2 JUMP JUMPDEST JUMPDEST PUSH1 0x20 MUL PUSH1 0x20 ADD ADD DUP2 DUP2 MSTORE POP POP DUP7 DUP2 DUP2 MLOAD DUP2 LT PUSH2 0x1726 JUMPI PUSH2 0x1725 PUSH2 0x23B2 JUMP JUMPDEST JUMPDEST PUSH1 0x20 MUL PUSH1 0x20 ADD ADD MLOAD PUSH1 0x20 ADD MLOAD DUP3 PUSH1 0x1 PUSH1 0x6 DUP5 PUSH2 0x1742 SWAP2 SWAP1 PUSH2 0x275E JUMP JUMPDEST PUSH2 0x174C SWAP2 SWAP1 PUSH2 0x2458 JUMP JUMPDEST DUP2 MLOAD DUP2 LT PUSH2 0x175D JUMPI PUSH2 0x175C PUSH2 0x23B2 JUMP JUMPDEST JUMPDEST PUSH1 0x20 MUL PUSH1 0x20 ADD ADD DUP2 DUP2 MSTORE POP POP DUP6 DUP2 DUP2 MLOAD DUP2 LT PUSH2 0x177C JUMPI PUSH2 0x177B PUSH2 0x23B2 JUMP JUMPDEST JUMPDEST PUSH1 0x20 MUL PUSH1 0x20 ADD ADD MLOAD PUSH1 0x0 ADD MLOAD PUSH1 0x0 PUSH1 0x2 DUP2 LT PUSH2 0x179B JUMPI PUSH2 0x179A PUSH2 0x23B2 JUMP JUMPDEST JUMPDEST PUSH1 0x20 MUL ADD MLOAD DUP3 PUSH1 0x2 PUSH1 0x6 DUP5 PUSH2 0x17B0 SWAP2 SWAP1 PUSH2 0x275E JUMP JUMPDEST PUSH2 0x17BA SWAP2 SWAP1 PUSH2 0x2458 JUMP JUMPDEST DUP2 MLOAD DUP2 LT PUSH2 0x17CB JUMPI PUSH2 0x17CA PUSH2 0x23B2 JUMP JUMPDEST JUMPDEST PUSH1 0x20 MUL PUSH1 0x20 ADD ADD DUP2 DUP2 MSTORE POP POP DUP6 DUP2 DUP2 MLOAD DUP2 LT PUSH2 0x17EA JUMPI PUSH2 0x17E9 PUSH2 0x23B2 JUMP JUMPDEST JUMPDEST PUSH1 0x20 MUL PUSH1 0x20 ADD ADD MLOAD PUSH1 0x0 ADD MLOAD PUSH1 0x1 PUSH1 0x2 DUP2 LT PUSH2 0x1809 JUMPI PUSH2 0x1808 PUSH2 0x23B2 JUMP JUMPDEST JUMPDEST PUSH1 0x20 MUL ADD MLOAD DUP3 PUSH1 0x3 PUSH1 0x6 DUP5 PUSH2 0x181E SWAP2 SWAP1 PUSH2 0x275E JUMP JUMPDEST PUSH2 0x1828 SWAP2 SWAP1 PUSH2 0x2458 JUMP JUMPDEST DUP2 MLOAD DUP2 LT PUSH2 0x1839 JUMPI PUSH2 0x1838 PUSH2 0x23B2 JUMP JUMPDEST JUMPDEST PUSH1 0x20 MUL PUSH1 0x20 ADD ADD DUP2 DUP2 MSTORE POP POP DUP6 DUP2 DUP2 MLOAD DUP2 LT PUSH2 0x1858 JUMPI PUSH2 0x1857 PUSH2 0x23B2 JUMP JUMPDEST JUMPDEST PUSH1 0x20 MUL PUSH1 0x20 ADD ADD MLOAD PUSH1 0x20 ADD MLOAD PUSH1 0x0 PUSH1 0x2 DUP2 LT PUSH2 0x1877 JUMPI PUSH2 0x1876 PUSH2 0x23B2 JUMP JUMPDEST JUMPDEST PUSH1 0x20 MUL ADD MLOAD DUP3 PUSH1 0x4 PUSH1 0x6 DUP5 PUSH2 0x188C SWAP2 SWAP1 PUSH2 0x275E JUMP JUMPDEST PUSH2 0x1896 SWAP2 SWAP1 PUSH2 0x2458 JUMP JUMPDEST DUP2 MLOAD DUP2 LT PUSH2 0x18A7 JUMPI PUSH2 0x18A6 PUSH2 0x23B2 JUMP JUMPDEST JUMPDEST PUSH1 0x20 MUL PUSH1 0x20 ADD ADD DUP2 DUP2 MSTORE POP POP DUP6 DUP2 DUP2 MLOAD DUP2 LT PUSH2 0x18C6 JUMPI PUSH2 0x18C5 PUSH2 0x23B2 JUMP JUMPDEST JUMPDEST PUSH1 0x20 MUL PUSH1 0x20 ADD ADD MLOAD PUSH1 0x20 ADD MLOAD PUSH1 0x1 PUSH1 0x2 DUP2 LT PUSH2 0x18E5 JUMPI PUSH2 0x18E4 PUSH2 0x23B2 JUMP JUMPDEST JUMPDEST PUSH1 0x20 MUL ADD MLOAD DUP3 PUSH1 0x5 PUSH1 0x6 DUP5 PUSH2 0x18FA SWAP2 SWAP1 PUSH2 0x275E JUMP JUMPDEST PUSH2 0x1904 SWAP2 SWAP1 PUSH2 0x2458 JUMP JUMPDEST DUP2 MLOAD DUP2 LT PUSH2 0x1915 JUMPI PUSH2 0x1914 PUSH2 0x23B2 JUMP JUMPDEST JUMPDEST PUSH1 0x20 MUL PUSH1 0x20 ADD ADD DUP2 DUP2 MSTORE POP POP DUP1 DUP1 PUSH2 0x192C SWAP1 PUSH2 0x2410 JUMP JUMPDEST SWAP2 POP POP PUSH2 0x16B5 JUMP JUMPDEST POP PUSH2 0x193D PUSH2 0x1B40 JUMP JUMPDEST PUSH1 0x0 PUSH1 0x20 DUP3 PUSH1 0x20 DUP7 MUL PUSH1 0x20 DUP7 ADD PUSH1 0x8 PUSH2 0x7D0 GAS SUB STATICCALL SWAP1 POP DUP1 PUSH1 0x0 DUP2 SUB PUSH2 0x195F JUMPI INVALID JUMPDEST POP DUP1 PUSH2 0x19A0 JUMPI PUSH1 0x40 MLOAD PUSH32 0x8C379A000000000000000000000000000000000000000000000000000000000 DUP2 MSTORE PUSH1 0x4 ADD PUSH2 0x1997 SWAP1 PUSH2 0x2804 JUMP JUMPDEST PUSH1 0x40 MLOAD DUP1 SWAP2 SUB SWAP1 REVERT JUMPDEST PUSH1 0x0 DUP3 PUSH1 0x0 PUSH1 0x1 DUP2 LT PUSH2 0x19B6 JUMPI PUSH2 0x19B5 PUSH2 0x23B2 JUMP JUMPDEST JUMPDEST PUSH1 0x20 MUL ADD MLOAD EQ ISZERO SWAP6 POP POP POP POP POP POP SWAP3 SWAP2 POP POP JUMP JUMPDEST PUSH1 0x40 MLOAD DUP1 PUSH2 0x180 ADD PUSH1 0x40 MSTORE DUP1 PUSH1 0x0 DUP1 NOT AND DUP2 MSTORE PUSH1 0x20 ADD PUSH1 0x0 DUP1 NOT AND DUP2 MSTORE PUSH1 0x20 ADD PUSH1 0x0 DUP1 NOT AND DUP2 MSTORE PUSH1 0x20 ADD PUSH1 0x0 DUP2 MSTORE PUSH1 0x20 ADD PUSH1 0x0 DUP2 MSTORE PUSH1 0x20 ADD PUSH1 0x0 DUP2 MSTORE PUSH1 0x20 ADD PUSH1 0x0 DUP2 MSTORE PUSH1 0x20 ADD PUSH1 0x0 DUP1 NOT AND DUP2 MSTORE PUSH1 0x20 ADD PUSH1 0x0 DUP1 NOT AND DUP2 MSTORE PUSH1 0x20 ADD PUSH1 0x0 DUP1 NOT AND DUP2 MSTORE PUSH1 0x20 ADD PUSH1 0x0 DUP1 NOT AND DUP2 MSTORE PUSH1 0x20 ADD PUSH1 0x0 ISZERO ISZERO DUP2 MSTORE POP SWAP1 JUMP JUMPDEST PUSH1 0x40 MLOAD DUP1 PUSH1 0x60 ADD PUSH1 0x40 MSTORE DUP1 PUSH2 0x1A55 PUSH2 0x1ABC JUMP JUMPDEST DUP2 MSTORE PUSH1 0x20 ADD PUSH2 0x1A62 PUSH2 0x1B1A JUMP JUMPDEST DUP2 MSTORE PUSH1 0x20 ADD PUSH2 0x1A6F PUSH2 0x1ABC JUMP JUMPDEST DUP2 MSTORE POP SWAP1 JUMP JUMPDEST PUSH1 0x40 MLOAD DUP1 PUSH1 0xA0 ADD PUSH1 0x40 MSTORE DUP1 PUSH2 0x1A88 PUSH2 0x1ABC JUMP JUMPDEST DUP2 MSTORE PUSH1 0x20 ADD PUSH2 0x1A95 PUSH2 0x1B1A JUMP JUMPDEST DUP2 MSTORE PUSH1 0x20 ADD PUSH2 0x1AA2 PUSH2 0x1B1A JUMP JUMPDEST DUP2 MSTORE PUSH1 0x20 ADD PUSH2 0x1AAF PUSH2 0x1B1A JUMP JUMPDEST DUP2 MSTORE PUSH1 0x20 ADD PUSH1 0x60 DUP2 MSTORE POP SWAP1 JUMP JUMPDEST PUSH1 0x40 MLOAD DUP1 PUSH1 0x40 ADD PUSH1 0x40 MSTORE DUP1 PUSH1 0x0 DUP2 MSTORE PUSH1 0x20 ADD PUSH1 0x0 DUP2 MSTORE POP SWAP1 JUMP JUMPDEST PUSH1 0x40 MLOAD DUP1 PUSH1 0x60 ADD PUSH1 0x40 MSTORE DUP1 PUSH1 0x3 SWAP1 PUSH1 0x20 DUP3 MUL DUP1 CALLDATASIZE DUP4 CALLDATACOPY DUP1 DUP3 ADD SWAP2 POP POP SWAP1 POP POP SWAP1 JUMP JUMPDEST PUSH1 0x40 MLOAD DUP1 PUSH1 0x80 ADD PUSH1 0x40 MSTORE DUP1 PUSH1 0x4 SWAP1 PUSH1 0x20 DUP3 MUL DUP1 CALLDATASIZE DUP4 CALLDATACOPY DUP1 DUP3 ADD SWAP2 POP POP SWAP1 POP POP SWAP1 JUMP JUMPDEST PUSH1 0x40 MLOAD DUP1 PUSH1 0x40 ADD PUSH1 0x40 MSTORE DUP1 PUSH2 0x1B2D PUSH2 0x1B62 JUMP JUMPDEST DUP2 MSTORE PUSH1 0x20 ADD PUSH2 0x1B3A PUSH2 0x1B62 JUMP JUMPDEST DUP2 MSTORE POP SWAP1 JUMP JUMPDEST PUSH1 0x40 MLOAD DUP1 PUSH1 0x20 ADD PUSH1 0x40 MSTORE DUP1 PUSH1 0x1 SWAP1 PUSH1 0x20 DUP3 MUL DUP1 CALLDATASIZE DUP4 CALLDATACOPY DUP1 DUP3 ADD SWAP2 POP POP SWAP1 POP POP SWAP1 JUMP JUMPDEST PUSH1 0x40 MLOAD DUP1 PUSH1 0x40 ADD PUSH1 0x40 MSTORE DUP1 PUSH1 0x2 SWAP1 PUSH1 0x20 DUP3 MUL DUP1 CALLDATASIZE DUP4 CALLDATACOPY DUP1 DUP3 ADD SWAP2 POP POP SWAP1 POP POP SWAP1 JUMP JUMPDEST PUSH1 0x0 PUSH1 0x40 MLOAD SWAP1 POP SWAP1 JUMP JUMPDEST PUSH1 0x0 DUP1 REVERT JUMPDEST PUSH1 0x0 DUP2 SWAP1 POP SWAP2 SWAP1 POP JUMP JUMPDEST PUSH2 0x1BA6 DUP2 PUSH2 0x1B93 JUMP JUMPDEST DUP2 EQ PUSH2 0x1BB1 JUMPI PUSH1 0x0 DUP1 REVERT JUMPDEST POP JUMP JUMPDEST PUSH1 0x0 DUP2 CALLDATALOAD SWAP1 POP PUSH2 0x1BC3 DUP2 PUSH2 0x1B9D JUMP JUMPDEST SWAP3 SWAP2 POP POP JUMP JUMPDEST PUSH1 0x0 DUP2 SWAP1 POP SWAP2 SWAP1 POP JUMP JUMPDEST PUSH2 0x1BDC DUP2 PUSH2 0x1BC9 JUMP JUMPDEST DUP2 EQ PUSH2 0x1BE7 JUMPI PUSH1 0x0 DUP1 REVERT JUMPDEST POP JUMP JUMPDEST PUSH1 0x0 DUP2 CALLDATALOAD SWAP1 POP PUSH2 0x1BF9 DUP2 PUSH2 0x1BD3 JUMP JUMPDEST SWAP3 SWAP2 POP POP JUMP JUMPDEST PUSH1 0x0 DUP1 PUSH1 0x0 DUP1 PUSH1 0x0 DUP1 PUSH1 0x0 DUP1 PUSH2 0x100 DUP10 DUP12 SUB SLT ISZERO PUSH2 0x1C20 JUMPI PUSH2 0x1C1F PUSH2 0x1B8E JUMP JUMPDEST JUMPDEST PUSH1 0x0 PUSH2 0x1C2E DUP12 DUP3 DUP13 ADD PUSH2 0x1BB4 JUMP JUMPDEST SWAP9 POP POP PUSH1 0x20 PUSH2 0x1C3F DUP12 DUP3 DUP13 ADD PUSH2 0x1BB4 JUMP JUMPDEST SWAP8 POP POP PUSH1 0x40 PUSH2 0x1C50 DUP12 DUP3 DUP13 ADD PUSH2 0x1BEA JUMP JUMPDEST SWAP7 POP POP PUSH1 0x60 PUSH2 0x1C61 DUP12 DUP3 DUP13 ADD PUSH2 0x1BEA JUMP JUMPDEST SWAP6 POP POP PUSH1 0x80 PUSH2 0x1C72 DUP12 DUP3 DUP13 ADD PUSH2 0x1BB4 JUMP JUMPDEST SWAP5 POP POP PUSH1 0xA0 PUSH2 0x1C83 DUP12 DUP3 DUP13 ADD PUSH2 0x1BB4 JUMP JUMPDEST SWAP4 POP POP PUSH1 0xC0 PUSH2 0x1C94 DUP12 DUP3 DUP13 ADD PUSH2 0x1BB4 JUMP JUMPDEST SWAP3 POP POP PUSH1 0xE0 PUSH2 0x1CA5 DUP12 DUP3 DUP13 ADD PUSH2 0x1BB4 JUMP JUMPDEST SWAP2 POP POP SWAP3 SWAP6 SWAP9 POP SWAP3 SWAP6 SWAP9 SWAP1 SWAP4 SWAP7 POP JUMP JUMPDEST PUSH1 0x0 DUP1 REVERT JUMPDEST PUSH1 0x0 PUSH1 0x1F NOT PUSH1 0x1F DUP4 ADD AND SWAP1 POP SWAP2 SWAP1 POP JUMP JUMPDEST PUSH32 0x4E487B7100000000000000000000000000000000000000000000000000000000 PUSH1 0x0 MSTORE PUSH1 0x41 PUSH1 0x4 MSTORE PUSH1 0x24 PUSH1 0x0 REVERT JUMPDEST PUSH2 0x1D03 DUP3 PUSH2 0x1CBA JUMP JUMPDEST DUP2 ADD DUP2 DUP2 LT PUSH8 0xFFFFFFFFFFFFFFFF DUP3 GT OR ISZERO PUSH2 0x1D22 JUMPI PUSH2 0x1D21 PUSH2 0x1CCB JUMP JUMPDEST JUMPDEST DUP1 PUSH1 0x40 MSTORE POP POP POP JUMP JUMPDEST PUSH1 0x0 PUSH2 0x1D35 PUSH2 0x1B84 JUMP JUMPDEST SWAP1 POP PUSH2 0x1D41 DUP3 DUP3 PUSH2 0x1CFA JUMP JUMPDEST SWAP2 SWAP1 POP JUMP JUMPDEST PUSH1 0x0 PUSH8 0xFFFFFFFFFFFFFFFF DUP3 GT ISZERO PUSH2 0x1D61 JUMPI PUSH2 0x1D60 PUSH2 0x1CCB JUMP JUMPDEST JUMPDEST PUSH1 0x20 DUP3 MUL SWAP1 POP SWAP2 SWAP1 POP JUMP JUMPDEST PUSH1 0x0 DUP1 REVERT JUMPDEST PUSH1 0x0 PUSH2 0x1D84 PUSH2 0x1D7F DUP5 PUSH2 0x1D46 JUMP JUMPDEST PUSH2 0x1D2B JUMP JUMPDEST SWAP1 POP DUP1 PUSH1 0x20 DUP5 MUL DUP4 ADD DUP6 DUP2 GT ISZERO PUSH2 0x1D9E JUMPI PUSH2 0x1D9D PUSH2 0x1D6C JUMP JUMPDEST JUMPDEST DUP4 JUMPDEST DUP2 DUP2 LT ISZERO PUSH2 0x1DC7 JUMPI DUP1 PUSH2 0x1DB3 DUP9 DUP3 PUSH2 0x1BEA JUMP JUMPDEST DUP5 MSTORE PUSH1 0x20 DUP5 ADD SWAP4 POP POP PUSH1 0x20 DUP2 ADD SWAP1 POP PUSH2 0x1DA0 JUMP JUMPDEST POP POP POP SWAP4 SWAP3 POP POP POP JUMP JUMPDEST PUSH1 0x0 DUP3 PUSH1 0x1F DUP4 ADD SLT PUSH2 0x1DE6 JUMPI PUSH2 0x1DE5 PUSH2 0x1CB5 JUMP JUMPDEST JUMPDEST PUSH1 0x2 PUSH2 0x1DF3 DUP5 DUP3 DUP6 PUSH2 0x1D71 JUMP JUMPDEST SWAP2 POP POP SWAP3 SWAP2 POP POP JUMP JUMPDEST PUSH1 0x0 PUSH8 0xFFFFFFFFFFFFFFFF DUP3 GT ISZERO PUSH2 0x1E17 JUMPI PUSH2 0x1E16 PUSH2 0x1CCB JUMP JUMPDEST JUMPDEST PUSH1 0x20 DUP3 MUL SWAP1 POP SWAP2 SWAP1 POP JUMP JUMPDEST PUSH1 0x0 PUSH2 0x1E35 PUSH2 0x1E30 DUP5 PUSH2 0x1DFC JUMP JUMPDEST PUSH2 0x1D2B JUMP JUMPDEST SWAP1 POP DUP1 PUSH1 0x40 DUP5 MUL DUP4 ADD DUP6 DUP2 GT ISZERO PUSH2 0x1E4F JUMPI PUSH2 0x1E4E PUSH2 0x1D6C JUMP JUMPDEST JUMPDEST DUP4 JUMPDEST DUP2 DUP2 LT ISZERO PUSH2 0x1E78 JUMPI DUP1 PUSH2 0x1E64 DUP9 DUP3 PUSH2 0x1DD1 JUMP JUMPDEST DUP5 MSTORE PUSH1 0x20 DUP5 ADD SWAP4 POP POP PUSH1 0x40 DUP2 ADD SWAP1 POP PUSH2 0x1E51 JUMP JUMPDEST POP POP POP SWAP4 SWAP3 POP POP POP JUMP JUMPDEST PUSH1 0x0 DUP3 PUSH1 0x1F DUP4 ADD SLT PUSH2 0x1E97 JUMPI PUSH2 0x1E96 PUSH2 0x1CB5 JUMP JUMPDEST JUMPDEST PUSH1 0x2 PUSH2 0x1EA4 DUP5 DUP3 DUP6 PUSH2 0x1E22 JUMP JUMPDEST SWAP2 POP POP SWAP3 SWAP2 POP POP JUMP JUMPDEST PUSH1 0x0 DUP1 PUSH1 0x0 DUP1 PUSH1 0x0 DUP1 PUSH1 0x0 PUSH2 0x180 DUP9 DUP11 SUB SLT ISZERO PUSH2 0x1ECD JUMPI PUSH2 0x1ECC PUSH2 0x1B8E JUMP JUMPDEST JUMPDEST PUSH1 0x0 PUSH2 0x1EDB DUP11 DUP3 DUP12 ADD PUSH2 0x1DD1 JUMP JUMPDEST SWAP8 POP POP PUSH1 0x40 PUSH2 0x1EEC DUP11 DUP3 DUP12 ADD PUSH2 0x1E82 JUMP JUMPDEST SWAP7 POP POP PUSH1 0xC0 PUSH2 0x1EFD DUP11 DUP3 DUP12 ADD PUSH2 0x1DD1 JUMP JUMPDEST SWAP6 POP POP PUSH2 0x100 PUSH2 0x1F0F DUP11 DUP3 DUP12 ADD PUSH2 0x1BB4 JUMP JUMPDEST SWAP5 POP POP PUSH2 0x120 PUSH2 0x1F21 DUP11 DUP3 DUP12 ADD PUSH2 0x1BB4 JUMP JUMPDEST SWAP4 POP POP PUSH2 0x140 PUSH2 0x1F33 DUP11 DUP3 DUP12 ADD PUSH2 0x1BEA JUMP JUMPDEST SWAP3 POP POP PUSH2 0x160 PUSH2 0x1F45 DUP11 DUP3 DUP12 ADD PUSH2 0x1BEA JUMP JUMPDEST SWAP2 POP POP SWAP3 SWAP6 SWAP9 SWAP2 SWAP5 SWAP8 POP SWAP3 SWAP6 POP JUMP JUMPDEST PUSH1 0x0 PUSH1 0x20 DUP3 DUP5 SUB SLT ISZERO PUSH2 0x1F6A JUMPI PUSH2 0x1F69 PUSH2 0x1B8E JUMP JUMPDEST JUMPDEST PUSH1 0x0 PUSH2 0x1F78 DUP5 DUP3 DUP6 ADD PUSH2 0x1BB4 JUMP JUMPDEST SWAP2 POP POP SWAP3 SWAP2 POP POP JUMP JUMPDEST PUSH2 0x1F8A DUP2 PUSH2 0x1B93 JUMP JUMPDEST DUP3 MSTORE POP POP JUMP JUMPDEST PUSH2 0x1F99 DUP2 PUSH2 0x1BC9 JUMP JUMPDEST DUP3 MSTORE POP POP JUMP JUMPDEST PUSH1 0x0 DUP2 ISZERO ISZERO SWAP1 POP SWAP2 SWAP1 POP JUMP JUMPDEST PUSH2 0x1FB4 DUP2 PUSH2 0x1F9F JUMP JUMPDEST DUP3 MSTORE POP POP JUMP JUMPDEST PUSH2 0x180 DUP3 ADD PUSH1 0x0 DUP3 ADD MLOAD PUSH2 0x1FD1 PUSH1 0x0 DUP6 ADD DUP3 PUSH2 0x1F81 JUMP JUMPDEST POP PUSH1 0x20 DUP3 ADD MLOAD PUSH2 0x1FE4 PUSH1 0x20 DUP6 ADD DUP3 PUSH2 0x1F81 JUMP JUMPDEST POP PUSH1 0x40 DUP3 ADD MLOAD PUSH2 0x1FF7 PUSH1 0x40 DUP6 ADD DUP3 PUSH2 0x1F81 JUMP JUMPDEST POP PUSH1 0x60 DUP3 ADD MLOAD PUSH2 0x200A PUSH1 0x60 DUP6 ADD DUP3 PUSH2 0x1F90 JUMP JUMPDEST POP PUSH1 0x80 DUP3 ADD MLOAD PUSH2 0x201D PUSH1 0x80 DUP6 ADD DUP3 PUSH2 0x1F90 JUMP JUMPDEST POP PUSH1 0xA0 DUP3 ADD MLOAD PUSH2 0x2030 PUSH1 0xA0 DUP6 ADD DUP3 PUSH2 0x1F90 JUMP JUMPDEST POP PUSH1 0xC0 DUP3 ADD MLOAD PUSH2 0x2043 PUSH1 0xC0 DUP6 ADD DUP3 PUSH2 0x1F90 JUMP JUMPDEST POP PUSH1 0xE0 DUP3 ADD MLOAD PUSH2 0x2056 PUSH1 0xE0 DUP6 ADD DUP3 PUSH2 0x1F81 JUMP JUMPDEST POP PUSH2 0x100 DUP3 ADD MLOAD PUSH2 0x206B PUSH2 0x100 DUP6 ADD DUP3 PUSH2 0x1F81 JUMP JUMPDEST POP PUSH2 0x120 DUP3 ADD MLOAD PUSH2 0x2080 PUSH2 0x120 DUP6 ADD DUP3 PUSH2 0x1F81 JUMP JUMPDEST POP PUSH2 0x140 DUP3 ADD MLOAD PUSH2 0x2095 PUSH2 0x140 DUP6 ADD DUP3 PUSH2 0x1F81 JUMP JUMPDEST POP PUSH2 0x160 DUP3 ADD MLOAD PUSH2 0x20AA PUSH2 0x160 DUP6 ADD DUP3 PUSH2 0x1FAB JUMP JUMPDEST POP POP POP POP JUMP JUMPDEST PUSH1 0x0 PUSH2 0x180 DUP3 ADD SWAP1 POP PUSH2 0x20C6 PUSH1 0x0 DUP4 ADD DUP5 PUSH2 0x1FBA JUMP JUMPDEST SWAP3 SWAP2 POP POP JUMP JUMPDEST PUSH1 0x0 DUP1 PUSH1 0x0 DUP1 PUSH2 0x140 DUP6 DUP8 SUB SLT ISZERO PUSH2 0x20E7 JUMPI PUSH2 0x20E6 PUSH2 0x1B8E JUMP JUMPDEST JUMPDEST PUSH1 0x0 PUSH2 0x20F5 DUP8 DUP3 DUP9 ADD PUSH2 0x1DD1 JUMP JUMPDEST SWAP5 POP POP PUSH1 0x40 PUSH2 0x2106 DUP8 DUP3 DUP9 ADD PUSH2 0x1E82 JUMP JUMPDEST SWAP4 POP POP PUSH1 0xC0 PUSH2 0x2117 DUP8 DUP3 DUP9 ADD PUSH2 0x1DD1 JUMP JUMPDEST SWAP3 POP POP PUSH2 0x100 PUSH2 0x2129 DUP8 DUP3 DUP9 ADD PUSH2 0x1DD1 JUMP JUMPDEST SWAP2 POP POP SWAP3 SWAP6 SWAP2 SWAP5 POP SWAP3 POP JUMP JUMPDEST PUSH2 0x213E DUP2 PUSH2 0x1F9F JUMP JUMPDEST DUP3 MSTORE POP POP JUMP JUMPDEST PUSH1 0x0 PUSH1 0x20 DUP3 ADD SWAP1 POP PUSH2 0x2159 PUSH1 0x0 DUP4 ADD DUP5 PUSH2 0x2135 JUMP JUMPDEST SWAP3 SWAP2 POP POP JUMP JUMPDEST PUSH1 0x0 DUP3 DUP3 MSTORE PUSH1 0x20 DUP3 ADD SWAP1 POP SWAP3 SWAP2 POP POP JUMP JUMPDEST PUSH32 0x536869706D656E7420616C726561647920726567697374657265640000000000 PUSH1 0x0 DUP3 ADD MSTORE POP JUMP JUMPDEST PUSH1 0x0 PUSH2 0x21A6 PUSH1 0x1B DUP4 PUSH2 0x215F JUMP JUMPDEST SWAP2 POP PUSH2 0x21B1 DUP3 PUSH2 0x2170 JUMP JUMPDEST PUSH1 0x20 DUP3 ADD SWAP1 POP SWAP2 SWAP1 POP JUMP JUMPDEST PUSH1 0x0 PUSH1 0x20 DUP3 ADD SWAP1 POP DUP2 DUP2 SUB PUSH1 0x0 DUP4 ADD MSTORE PUSH2 0x21D5 DUP2 PUSH2 0x2199 JUMP JUMPDEST SWAP1 POP SWAP2 SWAP1 POP JUMP JUMPDEST PUSH32 0x536869706D656E74206E6F742072656769737465726564000000000000000000 PUSH1 0x0 DUP3 ADD MSTORE POP JUMP JUMPDEST PUSH1 0x0 PUSH2 0x2212 PUSH1 0x17 DUP4 PUSH2 0x215F JUMP JUMPDEST SWAP2 POP PUSH2 0x221D DUP3 PUSH2 0x21DC JUMP JUMPDEST PUSH1 0x20 DUP3 ADD SWAP1 POP SWAP2 SWAP1 POP JUMP JUMPDEST PUSH1 0x0 PUSH1 0x20 DUP3 ADD SWAP1 POP DUP2 DUP2 SUB PUSH1 0x0 DUP4 ADD MSTORE PUSH2 0x2241 DUP2 PUSH2 0x2205 JUMP JUMPDEST SWAP1 POP SWAP2 SWAP1 POP JUMP JUMPDEST PUSH32 0x536869706D656E7420697320616C726561647920636F6E6669726D6564000000 PUSH1 0x0 DUP3 ADD MSTORE POP JUMP JUMPDEST PUSH1 0x0 PUSH2 0x227E PUSH1 0x1D DUP4 PUSH2 0x215F JUMP JUMPDEST SWAP2 POP PUSH2 0x2289 DUP3 PUSH2 0x2248 JUMP JUMPDEST PUSH1 0x20 DUP3 ADD SWAP1 POP SWAP2 SWAP1 POP JUMP JUMPDEST PUSH1 0x0 PUSH1 0x20 DUP3 ADD SWAP1 POP DUP2 DUP2 SUB PUSH1 0x0 DUP4 ADD MSTORE PUSH2 0x22AD DUP2 PUSH2 0x2271 JUMP JUMPDEST SWAP1 POP SWAP2 SWAP1 POP JUMP JUMPDEST PUSH32 0x53656E7420736869706D656E74206461746120697320616C7265616479206164 PUSH1 0x0 DUP3 ADD MSTORE PUSH32 0x6465640000000000000000000000000000000000000000000000000000000000 PUSH1 0x20 DUP3 ADD MSTORE POP JUMP JUMPDEST PUSH1 0x0 PUSH2 0x2310 PUSH1 0x23 DUP4 PUSH2 0x215F JUMP JUMPDEST SWAP2 POP PUSH2 0x231B DUP3 PUSH2 0x22B4 JUMP JUMPDEST PUSH1 0x40 DUP3 ADD SWAP1 POP SWAP2 SWAP1 POP JUMP JUMPDEST PUSH1 0x0 PUSH1 0x20 DUP3 ADD SWAP1 POP DUP2 DUP2 SUB PUSH1 0x0 DUP4 ADD MSTORE PUSH2 0x233F DUP2 PUSH2 0x2303 JUMP JUMPDEST SWAP1 POP SWAP2 SWAP1 POP JUMP JUMPDEST PUSH32 0x496E76616C69642070726F6F6600000000000000000000000000000000000000 PUSH1 0x0 DUP3 ADD MSTORE POP JUMP JUMPDEST PUSH1 0x0 PUSH2 0x237C PUSH1 0xD DUP4 PUSH2 0x215F JUMP JUMPDEST SWAP2 POP PUSH2 0x2387 DUP3 PUSH2 0x2346 JUMP JUMPDEST PUSH1 0x20 DUP3 ADD SWAP1 POP SWAP2 SWAP1 POP JUMP JUMPDEST PUSH1 0x0 PUSH1 0x20 DUP3 ADD SWAP1 POP DUP2 DUP2 SUB PUSH1 0x0 DUP4 ADD MSTORE PUSH2 0x23AB DUP2 PUSH2 0x236F JUMP JUMPDEST SWAP1 POP SWAP2 SWAP1 POP JUMP JUMPDEST PUSH32 0x4E487B7100000000000000000000000000000000000000000000000000000000 PUSH1 0x0 MSTORE PUSH1 0x32 PUSH1 0x4 MSTORE PUSH1 0x24 PUSH1 0x0 REVERT JUMPDEST PUSH32 0x4E487B7100000000000000000000000000000000000000000000000000000000 PUSH1 0x0 MSTORE PUSH1 0x11 PUSH1 0x4 MSTORE PUSH1 0x24 PUSH1 0x0 REVERT JUMPDEST PUSH1 0x0 PUSH2 0x241B DUP3 PUSH2 0x1BC9 JUMP JUMPDEST SWAP2 POP PUSH32 0xFFFFFFFFFFFFFFFFFFFFFFFFFFFFFFFFFFFFFFFFFFFFFFFFFFFFFFFFFFFFFFFF DUP3 SUB PUSH2 0x244D JUMPI PUSH2 0x244C PUSH2 0x23E1 JUMP JUMPDEST JUMPDEST PUSH1 0x1 DUP3 ADD SWAP1 POP SWAP2 SWAP1 POP JUMP JUMPDEST PUSH1 0x0 PUSH2 0x2463 DUP3 PUSH2 0x1BC9 JUMP JUMPDEST SWAP2 POP PUSH2 0x246E DUP4 PUSH2 0x1BC9 JUMP JUMPDEST SWAP3 POP DUP3 PUSH32 0xFFFFFFFFFFFFFFFFFFFFFFFFFFFFFFFFFFFFFFFFFFFFFFFFFFFFFFFFFFFFFFFF SUB DUP3 GT ISZERO PUSH2 0x24A3 JUMPI PUSH2 0x24A2 PUSH2 0x23E1 JUMP JUMPDEST JUMPDEST DUP3 DUP3 ADD SWAP1 POP SWAP3 SWAP2 POP POP JUMP JUMPDEST PUSH32 0x76657269666965722D6261642D696E7075740000000000000000000000000000 PUSH1 0x0 DUP3 ADD MSTORE POP JUMP JUMPDEST PUSH1 0x0 PUSH2 0x24E4 PUSH1 0x12 DUP4 PUSH2 0x215F JUMP JUMPDEST SWAP2 POP PUSH2 0x24EF DUP3 PUSH2 0x24AE JUMP JUMPDEST PUSH1 0x20 DUP3 ADD SWAP1 POP SWAP2 SWAP1 POP JUMP JUMPDEST PUSH1 0x0 PUSH1 0x20 DUP3 ADD SWAP1 POP DUP2 DUP2 SUB PUSH1 0x0 DUP4 ADD MSTORE PUSH2 0x2513 DUP2 PUSH2 0x24D7 JUMP JUMPDEST SWAP1 POP SWAP2 SWAP1 POP JUMP JUMPDEST PUSH32 0x76657269666965722D6774652D736E61726B2D7363616C61722D6669656C6400 PUSH1 0x0 DUP3 ADD MSTORE POP JUMP JUMPDEST PUSH1 0x0 PUSH2 0x2550 PUSH1 0x1F DUP4 PUSH2 0x215F JUMP JUMPDEST SWAP2 POP PUSH2 0x255B DUP3 PUSH2 0x251A JUMP JUMPDEST PUSH1 0x20 DUP3 ADD SWAP1 POP SWAP2 SWAP1 POP JUMP JUMPDEST PUSH1 0x0 PUSH1 0x20 DUP3 ADD SWAP1 POP DUP2 DUP2 SUB PUSH1 0x0 DUP4 ADD MSTORE PUSH2 0x257F DUP2 PUSH2 0x2543 JUMP JUMPDEST SWAP1 POP SWAP2 SWAP1 POP JUMP JUMPDEST PUSH32 0x70616972696E672D6D756C2D6661696C65640000000000000000000000000000 PUSH1 0x0 DUP3 ADD MSTORE POP JUMP JUMPDEST PUSH1 0x0 PUSH2 0x25BC PUSH1 0x12 DUP4 PUSH2 0x215F JUMP JUMPDEST SWAP2 POP PUSH2 0x25C7 DUP3 PUSH2 0x2586 JUMP JUMPDEST PUSH1 0x20 DUP3 ADD SWAP1 POP SWAP2 SWAP1 POP JUMP JUMPDEST PUSH1 0x0 PUSH1 0x20 DUP3 ADD SWAP1 POP DUP2 DUP2 SUB PUSH1 0x0 DUP4 ADD MSTORE PUSH2 0x25EB DUP2 PUSH2 0x25AF JUMP JUMPDEST SWAP1 POP SWAP2 SWAP1 POP JUMP JUMPDEST PUSH32 0x70616972696E672D6164642D6661696C65640000000000000000000000000000 PUSH1 0x0 DUP3 ADD MSTORE POP JUMP JUMPDEST PUSH1 0x0 PUSH2 0x2628 PUSH1 0x12 DUP4 PUSH2 0x215F JUMP JUMPDEST SWAP2 POP PUSH2 0x2633 DUP3 PUSH2 0x25F2 JUMP JUMPDEST PUSH1 0x20 DUP3 ADD SWAP1 POP SWAP2 SWAP1 POP JUMP JUMPDEST PUSH1 0x0 PUSH1 0x20 DUP3 ADD SWAP1 POP DUP2 DUP2 SUB PUSH1 0x0 DUP4 ADD MSTORE PUSH2 0x2657 DUP2 PUSH2 0x261B JUMP JUMPDEST SWAP1 POP SWAP2 SWAP1 POP JUMP JUMPDEST PUSH32 0x4E487B7100000000000000000000000000000000000000000000000000000000 PUSH1 0x0 MSTORE PUSH1 0x12 PUSH1 0x4 MSTORE PUSH1 0x24 PUSH1 0x0 REVERT JUMPDEST PUSH1 0x0 PUSH2 0x2698 DUP3 PUSH2 0x1BC9 JUMP JUMPDEST SWAP2 POP PUSH2 0x26A3 DUP4 PUSH2 0x1BC9 JUMP JUMPDEST SWAP3 POP DUP3 PUSH2 0x26B3 JUMPI PUSH2 0x26B2 PUSH2 0x265E JUMP JUMPDEST JUMPDEST DUP3 DUP3 MOD SWAP1 POP SWAP3 SWAP2 POP POP JUMP JUMPDEST PUSH1 0x0 PUSH2 0x26C9 DUP3 PUSH2 0x1BC9 JUMP JUMPDEST SWAP2 POP PUSH2 0x26D4 DUP4 PUSH2 0x1BC9 JUMP JUMPDEST SWAP3 POP DUP3 DUP3 LT ISZERO PUSH2 0x26E7 JUMPI PUSH2 0x26E6 PUSH2 0x23E1 JUMP JUMPDEST JUMPDEST DUP3 DUP3 SUB SWAP1 POP SWAP3 SWAP2 POP POP JUMP JUMPDEST PUSH32 0x70616972696E672D6C656E677468732D6661696C656400000000000000000000 PUSH1 0x0 DUP3 ADD MSTORE POP JUMP JUMPDEST PUSH1 0x0 PUSH2 0x2728 PUSH1 0x16 DUP4 PUSH2 0x215F JUMP JUMPDEST SWAP2 POP PUSH2 0x2733 DUP3 PUSH2 0x26F2 JUMP JUMPDEST PUSH1 0x20 DUP3 ADD SWAP1 POP SWAP2 SWAP1 POP JUMP JUMPDEST PUSH1 0x0 PUSH1 0x20 DUP3 ADD SWAP1 POP DUP2 DUP2 SUB PUSH1 0x0 DUP4 ADD MSTORE PUSH2 0x2757 DUP2 PUSH2 0x271B JUMP JUMPDEST SWAP1 POP SWAP2 SWAP1 POP JUMP JUMPDEST PUSH1 0x0 PUSH2 0x2769 DUP3 PUSH2 0x1BC9 JUMP JUMPDEST SWAP2 POP PUSH2 0x2774 DUP4 PUSH2 0x1BC9 JUMP JUMPDEST SWAP3 POP DUP2 PUSH32 0xFFFFFFFFFFFFFFFFFFFFFFFFFFFFFFFFFFFFFFFFFFFFFFFFFFFFFFFFFFFFFFFF DIV DUP4 GT DUP3 ISZERO ISZERO AND ISZERO PUSH2 0x27AD JUMPI PUSH2 0x27AC PUSH2 0x23E1 JUMP JUMPDEST JUMPDEST DUP3 DUP3 MUL SWAP1 POP SWAP3 SWAP2 POP POP JUMP JUMPDEST PUSH32 0x70616972696E672D6F70636F64652D6661696C65640000000000000000000000 PUSH1 0x0 DUP3 ADD MSTORE POP JUMP JUMPDEST PUSH1 0x0 PUSH2 0x27EE PUSH1 0x15 DUP4 PUSH2 0x215F JUMP JUMPDEST SWAP2 POP PUSH2 0x27F9 DUP3 PUSH2 0x27B8 JUMP JUMPDEST PUSH1 0x20 DUP3 ADD SWAP1 POP SWAP2 SWAP1 POP JUMP JUMPDEST PUSH1 0x0 PUSH1 0x20 DUP3 ADD SWAP1 POP DUP2 DUP2 SUB PUSH1 0x0 DUP4 ADD MSTORE PUSH2 0x281D DUP2 PUSH2 0x27E1 JUMP JUMPDEST SWAP1 POP SWAP2 SWAP1 POP JUMP INVALID LOG2 PUSH5 0x6970667358 0x22 SLT KECCAK256 DUP8 ADDMOD PUSH11 0x8B1270E175F372844EF3A2 0xE0 0xC8 EXP DUP6 DUP13 MUL 0xA5 DUP9 SWAP8 DUP7 0xB2 GASPRICE 0xDB LOG4 CALLDATACOPY SUB SWAP13 PC PUSH5 0x736F6C6343 STOP ADDMOD 0xD STOP CALLER "
        },
        "methodIdentifiers": {
          "confirmReceivedShipment(uint256[2],uint256[2][2],uint256[2],bytes32,bytes32,uint256,uint256)": "d3c12bc3",
          "confirmSentShipment(uint256[2],uint256[2][2],uint256[2],bytes32,bytes32,uint256,uint256)": "4d49694e",
          "getShipment(bytes32)": "58cb7c41",
          "registerReceivedShipment(bytes32,bytes32,uint256,uint256,bytes32,bytes32,bytes32,bytes32)": "2bccbe46",
          "registerSentShipment(bytes32,bytes32,uint256,uint256,bytes32,bytes32,bytes32,bytes32)": "ed4c975d",
          "verifyProof(uint256[2],uint256[2][2],uint256[2],uint256[2])": "f5c9d69e"
        }
      }
    }
  }
}