{
  "contracts/fibers.sol": {
    "Fibers": {
      "abi": [
        {
          "anonymous": false,
          "inputs": [
            {
              "indexed": false,
              "internalType": "bytes32",
              "name": "shipmentId",
              "type": "bytes32"
            },
            {
              "indexed": false,
              "internalType": "bytes32",
              "name": "senderCompany",
              "type": "bytes32"
            },
            {
              "indexed": false,
              "internalType": "bytes32",
              "name": "senderDepartment",
              "type": "bytes32"
            }
          ],
          "name": "ReceivedShipmentRegistered",
          "type": "event"
        },
        {
          "anonymous": false,
          "inputs": [
            {
              "indexed": false,
              "internalType": "bytes32",
              "name": "shipmentId",
              "type": "bytes32"
            },
            {
              "indexed": false,
              "internalType": "bytes32",
              "name": "recipientCompany",
              "type": "bytes32"
            },
            {
              "indexed": false,
              "internalType": "bytes32",
              "name": "recipientDepartment",
              "type": "bytes32"
            }
          ],
          "name": "SentShipmentRegistered",
          "type": "event"
        },
        {
          "anonymous": false,
          "inputs": [
            {
              "indexed": false,
              "internalType": "bytes32",
              "name": "shipmentId",
              "type": "bytes32"
            }
          ],
          "name": "ShipmentConfirmed",
          "type": "event"
        },
        {
          "inputs": [
            {
              "internalType": "uint256[2]",
              "name": "a",
              "type": "uint256[2]"
            },
            {
              "internalType": "uint256[2][2]",
              "name": "b",
              "type": "uint256[2][2]"
            },
            {
              "internalType": "uint256[2]",
              "name": "c",
              "type": "uint256[2]"
            },
            {
              "internalType": "bytes32",
              "name": "shipmentIdHash",
              "type": "bytes32"
            },
            {
              "internalType": "bytes32",
              "name": "receivedShipmentHash",
              "type": "bytes32"
            },
            {
              "internalType": "uint256",
              "name": "receivedMass",
              "type": "uint256"
            },
            {
              "internalType": "uint256",
              "name": "receivedDate",
              "type": "uint256"
            }
          ],
          "name": "confirmReceivedShipment",
          "outputs": [],
          "stateMutability": "nonpayable",
          "type": "function"
        },
        {
          "inputs": [
            {
              "internalType": "uint256[2]",
              "name": "a",
              "type": "uint256[2]"
            },
            {
              "internalType": "uint256[2][2]",
              "name": "b",
              "type": "uint256[2][2]"
            },
            {
              "internalType": "uint256[2]",
              "name": "c",
              "type": "uint256[2]"
            },
            {
              "internalType": "bytes32",
              "name": "shipmentIdHash",
              "type": "bytes32"
            },
            {
              "internalType": "bytes32",
              "name": "sentShipmentHash",
              "type": "bytes32"
            },
            {
              "internalType": "uint256",
              "name": "sentMass",
              "type": "uint256"
            },
            {
              "internalType": "uint256",
              "name": "sentDate",
              "type": "uint256"
            }
          ],
          "name": "confirmSentShipment",
          "outputs": [],
          "stateMutability": "nonpayable",
          "type": "function"
        },
        {
          "inputs": [
            {
              "internalType": "bytes32",
              "name": "shipmentIdHash",
              "type": "bytes32"
            },
            {
              "internalType": "bytes32",
              "name": "receivedShipmentHash",
              "type": "bytes32"
            },
            {
              "internalType": "uint256",
              "name": "receivedMass",
              "type": "uint256"
            },
            {
              "internalType": "uint256",
              "name": "receivedDate",
              "type": "uint256"
            },
            {
              "internalType": "bytes32",
              "name": "senderCompany",
              "type": "bytes32"
            },
            {
              "internalType": "bytes32",
              "name": "senderDepartment",
              "type": "bytes32"
            },
            {
              "internalType": "bytes32",
              "name": "recipientCompany",
              "type": "bytes32"
            },
            {
              "internalType": "bytes32",
              "name": "recipientDepartment",
              "type": "bytes32"
            }
          ],
          "name": "registerReceivedShipment",
          "outputs": [],
          "stateMutability": "nonpayable",
          "type": "function"
        },
        {
          "inputs": [
            {
              "internalType": "bytes32",
              "name": "shipmentIdHash",
              "type": "bytes32"
            },
            {
              "internalType": "bytes32",
              "name": "sentShipmentHash",
              "type": "bytes32"
            },
            {
              "internalType": "uint256",
              "name": "sentMass",
              "type": "uint256"
            },
            {
              "internalType": "uint256",
              "name": "sentDate",
              "type": "uint256"
            },
            {
              "internalType": "bytes32",
              "name": "senderCompany",
              "type": "bytes32"
            },
            {
              "internalType": "bytes32",
              "name": "senderDepartment",
              "type": "bytes32"
            },
            {
              "internalType": "bytes32",
              "name": "recipientCompany",
              "type": "bytes32"
            },
            {
              "internalType": "bytes32",
              "name": "recipientDepartment",
              "type": "bytes32"
            }
          ],
          "name": "registerSentShipment",
          "outputs": [],
          "stateMutability": "nonpayable",
          "type": "function"
        },
        {
          "inputs": [
            {
              "internalType": "uint256[2]",
              "name": "a",
              "type": "uint256[2]"
            },
            {
              "internalType": "uint256[2][2]",
              "name": "b",
              "type": "uint256[2][2]"
            },
            {
              "internalType": "uint256[2]",
              "name": "c",
              "type": "uint256[2]"
            },
            {
              "internalType": "uint256[2]",
              "name": "input",
              "type": "uint256[2]"
            }
          ],
          "name": "verifyMerkleProof",
          "outputs": [
            {
              "internalType": "bool",
              "name": "r",
              "type": "bool"
            }
          ],
          "stateMutability": "view",
          "type": "function"
        }
      ],
      "evm": {
        "bytecode": {
          "linkReferences": {},
          "object": "608060405234801561001057600080fd5b50612675806100206000396000f3fe608060405234801561001057600080fd5b50600436106100575760003560e01c8063246732b31461005c5780632bccbe461461008c5780634d49694e146100a8578063d3c12bc3146100c4578063ed4c975d146100e0575b600080fd5b61007660048036038101906100719190611d48565b6100fc565b6040516100839190611dcc565b60405180910390f35b6100a660048036038101906100a19190611e1d565b610375565b005b6100c260048036038101906100bd9190611ed3565b6104dd565b005b6100de60048036038101906100d99190611ed3565b6106eb565b005b6100fa60048036038101906100f59190611e1d565b6108f9565b005b6000610106611951565b60405180604001604052808760006002811061012557610124611f7a565b5b602002015181526020018760016002811061014357610142611f7a565b5b60200201518152508160000181905250604051806040016040528060405180604001604052808860006002811061017d5761017c611f7a565b5b602002015160006002811061019557610194611f7a565b5b60200201518152602001886000600281106101b3576101b2611f7a565b5b60200201516001600281106101cb576101ca611f7a565b5b602002015181525081526020016040518060400160405280886001600281106101f7576101f6611f7a565b5b602002015160006002811061020f5761020e611f7a565b5b602002015181526020018860016002811061022d5761022c611f7a565b5b602002015160016002811061024557610244611f7a565b5b6020020151815250815250816020018190525060405180604001604052808560006002811061027757610276611f7a565b5b602002015181526020018560016002811061029557610294611f7a565b5b602002015181525081604001819052506000600267ffffffffffffffff8111156102c2576102c1611b30565b5b6040519080825280602002602001820160405280156102f05781602001602082028036833780820191505090505b50905060005b60028110156103495784816002811061031257610311611f7a565b5b602002015182828151811061032a57610329611f7a565b5b602002602001018181525050808061034190611fd8565b9150506102f6565b5060006103568284610a61565b036103665760019250505061036d565b6000925050505b949350505050565b6000801b6000808a815260200190815260200160002060000154146103cf576040517f08c379a00000000000000000000000000000000000000000000000000000000081526004016103c69061207d565b60405180910390fd5b6103d7611984565b888160000181815250508781604001818152505086816080018181525050858160c0018181525050848160e0018181525050838161010001818152505082816101200181815250508181610140018181525050806000808b8152602001908152602001600020600082015181600001556020820151816001015560408201518160020155606082015181600301556080820151816004015560a0820151816005015560c0820151816006015560e082015181600701556101008201518160080155610120820151816009015561014082015181600a015561016082015181600b0160006101000a81548160ff021916908315150217905550905050505050505050505050565b6000801b6000808681526020019081526020016000206000015403610537576040517f08c379a000000000000000000000000000000000000000000000000000000000815260040161052e906120e9565b60405180910390fd5b60001515600080868152602001908152602001600020600b0160009054906101000a900460ff161515146105a0576040517f08c379a000000000000000000000000000000000000000000000000000000000815260040161059790612155565b60405180910390fd5b6000801b60008086815260200190815260200160002060010154146105fa576040517f08c379a00000000000000000000000000000000000000000000000000000000081526004016105f1906121e7565b60405180910390fd5b6001151561062488888860405180604001604052808a60001c81526020018960001c8152506100fc565b151514610666576040517f08c379a000000000000000000000000000000000000000000000000000000000815260040161065d90612253565b60405180910390fd5b8260008086815260200190815260200160002060010181905550816000808681526020019081526020016000206003018190555080600080868152602001908152602001600020600501819055506000806000868152602001908152602001600020600b0160006101000a81548160ff02191690831515021790555050505050505050565b6000801b6000808681526020019081526020016000206000015403610745576040517f08c379a000000000000000000000000000000000000000000000000000000000815260040161073c906120e9565b60405180910390fd5b60001515600080868152602001908152602001600020600b0160009054906101000a900460ff161515146107ae576040517f08c379a00000000000000000000000000000000000000000000000000000000081526004016107a590612155565b60405180910390fd5b6000801b6000808681526020019081526020016000206002015414610808576040517f08c379a00000000000000000000000000000000000000000000000000000000081526004016107ff906121e7565b60405180910390fd5b6001151561083288888860405180604001604052808a60001c81526020018960001c8152506100fc565b151514610874576040517f08c379a000000000000000000000000000000000000000000000000000000000815260040161086b90612253565b60405180910390fd5b8260008086815260200190815260200160002060020181905550816000808681526020019081526020016000206004018190555080600080868152602001908152602001600020600601819055506000806000868152602001908152602001600020600b0160006101000a81548160ff02191690831515021790555050505050505050565b6000801b6000808a81526020019081526020016000206000015414610953576040517f08c379a000000000000000000000000000000000000000000000000000000000815260040161094a9061207d565b60405180910390fd5b61095b611984565b888160000181815250508781602001818152505086816060018181525050858160a0018181525050848160e0018181525050838161010001818152505082816101200181815250508181610140018181525050806000808b8152602001908152602001600020600082015181600001556020820151816001015560408201518160020155606082015181600301556080820151816004015560a0820151816005015560c0820151816006015560e082015181600701556101008201518160080155610120820151816009015561014082015181600a015561016082015181600b0160006101000a81548160ff021916908315150217905550905050505050505050505050565b6000807f30644e72e131a029b85045b68181585d2833e84879b9709143e1f593f000000190506000610a91610c54565b905080608001515160018651610aa79190612273565b14610ae7576040517f08c379a0000000000000000000000000000000000000000000000000000000008152600401610ade90612315565b60405180910390fd5b60006040518060400160405280600081526020016000815250905060005b8651811015610bd65783878281518110610b2257610b21611f7a565b5b602002602001015110610b6a576040517f08c379a0000000000000000000000000000000000000000000000000000000008152600401610b6190612381565b60405180910390fd5b610bc182610bbc8560800151600185610b839190612273565b81518110610b9457610b93611f7a565b5b60200260200101518a8581518110610baf57610bae611f7a565b5b6020026020010151611147565b61121f565b91508080610bce90611fd8565b915050610b05565b50610c00818360800151600081518110610bf357610bf2611f7a565b5b602002602001015161121f565b9050610c36610c12866000015161131d565b8660200151846000015185602001518587604001518b6040015189606001516113c2565b610c465760019350505050610c4e565b600093505050505b92915050565b610c5c6119fc565b60405180604001604052807f2d4d9aa7e302d9df41749d5507949d05dbea33fbb16c643b22f599a2be6df2e281526020017f14bedd503c37ceb061d8ec60209fe345ce89830a19230301f076caff004d19268152508160000181905250604051806040016040528060405180604001604052807f0967032fcbf776d1afc985f88877f182d38480a653f2decaa9794cbc3bf3060c81526020017f0e187847ad4c798374d0d6732bf501847dd68bc0e071241e0213bc7fc13db7ab815250815260200160405180604001604052807f304cfbd1e08a704a99f5e847d93f8c3caafddec46b7a0d379da69a4d112346a781526020017f1739c1b1a457a8c7313123d24d2f9192f896b7c63eea05a9d57f06547ad0cec88152508152508160200181905250604051806040016040528060405180604001604052807f198e9393920d483a7260bfb731fb5d25f1aa493335a9e71297e485b7aef312c281526020017f1800deef121f1e76426a00665e5c4479674322d4f75edadd46debd5cd992f6ed815250815260200160405180604001604052807f090689d0585ff075ec9e99ad690c3395bc4b313370b38ef355acdadcd122975b81526020017f12c85ea5db8c6deb4aab71808dcb408fe3d1e7690c43d37b4ce6cc0166fa7daa8152508152508160400181905250604051806040016040528060405180604001604052807f2d699e2f01351d10f6883fc9033e8a325dc2224686a0c6d300ccbeffb4657cbf81526020017f2e5552ee4aa0572bc07521c06045449e3413a498366cef7ef882ff34203c827f815250815260200160405180604001604052807ef1449abde0f3b4bc2929b5134ad9f35e2c1dc8fbc3678fbb6971d6307af5ec81526020017f271217953733318ae757e0a110f4c3a79585b1ee847b5ad0046528a9fc06c8718152508152508160600181905250600467ffffffffffffffff811115610f2257610f21611b30565b5b604051908082528060200260200182016040528015610f5b57816020015b610f48611a43565b815260200190600190039081610f405790505b50816080018190525060405180604001604052807f23fa2cdbac7bafe62e17c779df0c6b841d5e9b4cfb280ad8920cae283aee2d0681526020017f0d5268089fe1b35b40839f02b827ac8c404409fdd9809a6eceac18cf9d5aae9b8152508160800151600081518110610fd157610fd0611f7a565b5b602002602001018190525060405180604001604052807f248a4c71ad3cefd192882b10b7b82d2feafc1477aa22eff3e0cfb929398790ec81526020017f17c3f1a5431012d9438fa60c89126f9157d9216e80f2ad5e9189ec3edd81e029815250816080015160018151811061104957611048611f7a565b5b602002602001018190525060405180604001604052807f0131c7e6e19593948a0e6c35b881532d801c0202dc82787105fc408e14a8489481526020017f028785558508e5d6f86b0674f88315040333129f9b3cbb1bb088c1b8a1a8619b81525081608001516002815181106110c1576110c0611f7a565b5b602002602001018190525060405180604001604052807f269bcbfc7f83d2f231c1f189a32d508a90a12be4ec3939ba162bdfcc27b7332881526020017f20f52b08b210f9b179e628a908b8c3ff5be6811a52787f317a47e33b5ba2a73b815250816080015160038151811061113957611138611f7a565b5b602002602001018190525090565b61114f611a43565b611157611a5d565b8360000151816000600381106111705761116f611f7a565b5b60200201818152505083602001518160016003811061119257611191611f7a565b5b60200201818152505082816002600381106111b0576111af611f7a565b5b602002018181525050600060608360808460076107d05a03fa905080600081036111d657fe5b5080611217576040517f08c379a000000000000000000000000000000000000000000000000000000000815260040161120e906123ed565b60405180910390fd5b505092915050565b611227611a43565b61122f611a7f565b83600001518160006004811061124857611247611f7a565b5b60200201818152505083602001518160016004811061126a57611269611f7a565b5b60200201818152505082600001518160026004811061128c5761128b611f7a565b5b6020020181815250508260200151816003600481106112ae576112ad611f7a565b5b602002018181525050600060608360c08460066107d05a03fa905080600081036112d457fe5b5080611315576040517f08c379a000000000000000000000000000000000000000000000000000000000815260040161130c90612459565b60405180910390fd5b505092915050565b611325611a43565b60007f30644e72e131a029b85045b68181585d97816a916871ca8d3c208c16d87cfd47905060008360000151148015611362575060008360200151145b156113865760405180604001604052806000815260200160008152509150506113bd565b6040518060400160405280846000015181526020018285602001516113ab91906124a8565b836113b691906124d9565b8152509150505b919050565b600080600467ffffffffffffffff8111156113e0576113df611b30565b5b60405190808252806020026020018201604052801561141957816020015b611406611a43565b8152602001906001900390816113fe5790505b5090506000600467ffffffffffffffff81111561143957611438611b30565b5b60405190808252806020026020018201604052801561147257816020015b61145f611aa1565b8152602001906001900390816114575790505b5090508a8260008151811061148a57611489611f7a565b5b602002602001018190525088826001815181106114aa576114a9611f7a565b5b602002602001018190525086826002815181106114ca576114c9611f7a565b5b602002602001018190525084826003815181106114ea576114e9611f7a565b5b6020026020010181905250898160008151811061150a57611509611f7a565b5b6020026020010181905250878160018151811061152a57611529611f7a565b5b6020026020010181905250858160028151811061154a57611549611f7a565b5b6020026020010181905250838160038151811061156a57611569611f7a565b5b602002602001018190525061157f828261158f565b9250505098975050505050505050565b600081518351146115d5576040517f08c379a00000000000000000000000000000000000000000000000000000000081526004016115cc90612559565b60405180910390fd5b60008351905060006006826115ea9190612579565b905060008167ffffffffffffffff81111561160857611607611b30565b5b6040519080825280602002602001820160405280156116365781602001602082028036833780820191505090505b50905060005b838110156118bb5786818151811061165757611656611f7a565b5b6020026020010151600001518260006006846116739190612579565b61167d9190612273565b8151811061168e5761168d611f7a565b5b6020026020010181815250508681815181106116ad576116ac611f7a565b5b6020026020010151602001518260016006846116c99190612579565b6116d39190612273565b815181106116e4576116e3611f7a565b5b60200260200101818152505085818151811061170357611702611f7a565b5b60200260200101516000015160006002811061172257611721611f7a565b5b60200201518260026006846117379190612579565b6117419190612273565b8151811061175257611751611f7a565b5b60200260200101818152505085818151811061177157611770611f7a565b5b6020026020010151600001516001600281106117905761178f611f7a565b5b60200201518260036006846117a59190612579565b6117af9190612273565b815181106117c0576117bf611f7a565b5b6020026020010181815250508581815181106117df576117de611f7a565b5b6020026020010151602001516000600281106117fe576117fd611f7a565b5b60200201518260046006846118139190612579565b61181d9190612273565b8151811061182e5761182d611f7a565b5b60200260200101818152505085818151811061184d5761184c611f7a565b5b60200260200101516020015160016002811061186c5761186b611f7a565b5b60200201518260056006846118819190612579565b61188b9190612273565b8151811061189c5761189b611f7a565b5b60200260200101818152505080806118b390611fd8565b91505061163c565b506118c4611ac7565b6000602082602086026020860160086107d05a03fa905080600081036118e657fe5b5080611927576040517f08c379a000000000000000000000000000000000000000000000000000000000815260040161191e9061261f565b60405180910390fd5b60008260006001811061193d5761193c611f7a565b5b602002015114159550505050505092915050565b6040518060600160405280611964611a43565b8152602001611971611aa1565b815260200161197e611a43565b81525090565b60405180610180016040528060008019168152602001600080191681526020016000801916815260200160008152602001600081526020016000815260200160008152602001600080191681526020016000801916815260200160008019168152602001600080191681526020016000151581525090565b6040518060a00160405280611a0f611a43565b8152602001611a1c611aa1565b8152602001611a29611aa1565b8152602001611a36611aa1565b8152602001606081525090565b604051806040016040528060008152602001600081525090565b6040518060600160405280600390602082028036833780820191505090505090565b6040518060800160405280600490602082028036833780820191505090505090565b6040518060400160405280611ab4611ae9565b8152602001611ac1611ae9565b81525090565b6040518060200160405280600190602082028036833780820191505090505090565b6040518060400160405280600290602082028036833780820191505090505090565b6000604051905090565b600080fd5b600080fd5b6000601f19601f8301169050919050565b7f4e487b7100000000000000000000000000000000000000000000000000000000600052604160045260246000fd5b611b6882611b1f565b810181811067ffffffffffffffff82111715611b8757611b86611b30565b5b80604052505050565b6000611b9a611b0b565b9050611ba68282611b5f565b919050565b600067ffffffffffffffff821115611bc657611bc5611b30565b5b602082029050919050565b600080fd5b6000819050919050565b611be981611bd6565b8114611bf457600080fd5b50565b600081359050611c0681611be0565b92915050565b6000611c1f611c1a84611bab565b611b90565b90508060208402830185811115611c3957611c38611bd1565b5b835b81811015611c625780611c4e8882611bf7565b845260208401935050602081019050611c3b565b5050509392505050565b600082601f830112611c8157611c80611b1a565b5b6002611c8e848285611c0c565b91505092915050565b600067ffffffffffffffff821115611cb257611cb1611b30565b5b602082029050919050565b6000611cd0611ccb84611c97565b611b90565b90508060408402830185811115611cea57611ce9611bd1565b5b835b81811015611d135780611cff8882611c6c565b845260208401935050604081019050611cec565b5050509392505050565b600082601f830112611d3257611d31611b1a565b5b6002611d3f848285611cbd565b91505092915050565b6000806000806101408587031215611d6357611d62611b15565b5b6000611d7187828801611c6c565b9450506040611d8287828801611d1d565b93505060c0611d9387828801611c6c565b925050610100611da587828801611c6c565b91505092959194509250565b60008115159050919050565b611dc681611db1565b82525050565b6000602082019050611de16000830184611dbd565b92915050565b6000819050919050565b611dfa81611de7565b8114611e0557600080fd5b50565b600081359050611e1781611df1565b92915050565b600080600080600080600080610100898b031215611e3e57611e3d611b15565b5b6000611e4c8b828c01611e08565b9850506020611e5d8b828c01611e08565b9750506040611e6e8b828c01611bf7565b9650506060611e7f8b828c01611bf7565b9550506080611e908b828c01611e08565b94505060a0611ea18b828c01611e08565b93505060c0611eb28b828c01611e08565b92505060e0611ec38b828c01611e08565b9150509295985092959890939650565b6000806000806000806000610180888a031215611ef357611ef2611b15565b5b6000611f018a828b01611c6c565b9750506040611f128a828b01611d1d565b96505060c0611f238a828b01611c6c565b955050610100611f358a828b01611e08565b945050610120611f478a828b01611e08565b935050610140611f598a828b01611bf7565b925050610160611f6b8a828b01611bf7565b91505092959891949750929550565b7f4e487b7100000000000000000000000000000000000000000000000000000000600052603260045260246000fd5b7f4e487b7100000000000000000000000000000000000000000000000000000000600052601160045260246000fd5b6000611fe382611bd6565b91507fffffffffffffffffffffffffffffffffffffffffffffffffffffffffffffffff820361201557612014611fa9565b5b600182019050919050565b600082825260208201905092915050565b7f536869706d656e7420616c726561647920726567697374657265640000000000600082015250565b6000612067601b83612020565b915061207282612031565b602082019050919050565b600060208201905081810360008301526120968161205a565b9050919050565b7f536869706d656e74206e6f742072656769737465726564000000000000000000600082015250565b60006120d3601783612020565b91506120de8261209d565b602082019050919050565b60006020820190508181036000830152612102816120c6565b9050919050565b7f536869706d656e7420697320616c726561647920636f6e6669726d6564000000600082015250565b600061213f601d83612020565b915061214a82612109565b602082019050919050565b6000602082019050818103600083015261216e81612132565b9050919050565b7f53656e7420736869706d656e74206461746120697320616c726561647920616460008201527f6465640000000000000000000000000000000000000000000000000000000000602082015250565b60006121d1602383612020565b91506121dc82612175565b604082019050919050565b60006020820190508181036000830152612200816121c4565b9050919050565b7f496e76616c69642070726f6f6600000000000000000000000000000000000000600082015250565b600061223d600d83612020565b915061224882612207565b602082019050919050565b6000602082019050818103600083015261226c81612230565b9050919050565b600061227e82611bd6565b915061228983611bd6565b9250827fffffffffffffffffffffffffffffffffffffffffffffffffffffffffffffffff038211156122be576122bd611fa9565b5b828201905092915050565b7f76657269666965722d6261642d696e7075740000000000000000000000000000600082015250565b60006122ff601283612020565b915061230a826122c9565b602082019050919050565b6000602082019050818103600083015261232e816122f2565b9050919050565b7f76657269666965722d6774652d736e61726b2d7363616c61722d6669656c6400600082015250565b600061236b601f83612020565b915061237682612335565b602082019050919050565b6000602082019050818103600083015261239a8161235e565b9050919050565b7f70616972696e672d6d756c2d6661696c65640000000000000000000000000000600082015250565b60006123d7601283612020565b91506123e2826123a1565b602082019050919050565b60006020820190508181036000830152612406816123ca565b9050919050565b7f70616972696e672d6164642d6661696c65640000000000000000000000000000600082015250565b6000612443601283612020565b915061244e8261240d565b602082019050919050565b6000602082019050818103600083015261247281612436565b9050919050565b7f4e487b7100000000000000000000000000000000000000000000000000000000600052601260045260246000fd5b60006124b382611bd6565b91506124be83611bd6565b9250826124ce576124cd612479565b5b828206905092915050565b60006124e482611bd6565b91506124ef83611bd6565b92508282101561250257612501611fa9565b5b828203905092915050565b7f70616972696e672d6c656e677468732d6661696c656400000000000000000000600082015250565b6000612543601683612020565b915061254e8261250d565b602082019050919050565b6000602082019050818103600083015261257281612536565b9050919050565b600061258482611bd6565b915061258f83611bd6565b9250817fffffffffffffffffffffffffffffffffffffffffffffffffffffffffffffffff04831182151516156125c8576125c7611fa9565b5b828202905092915050565b7f70616972696e672d6f70636f64652d6661696c65640000000000000000000000600082015250565b6000612609601583612020565b9150612614826125d3565b602082019050919050565b60006020820190508181036000830152612638816125fc565b905091905056fea26469706673582212209a25deb5a3db843c064c333659a326e20e33e3eb27bac1a33a8c0102d4303f1e64736f6c634300080d0033",
          "opcodes": "PUSH1 0x80 PUSH1 0x40 MSTORE CALLVALUE DUP1 ISZERO PUSH2 0x10 JUMPI PUSH1 0x0 DUP1 REVERT JUMPDEST POP PUSH2 0x2675 DUP1 PUSH2 0x20 PUSH1 0x0 CODECOPY PUSH1 0x0 RETURN INVALID PUSH1 0x80 PUSH1 0x40 MSTORE CALLVALUE DUP1 ISZERO PUSH2 0x10 JUMPI PUSH1 0x0 DUP1 REVERT JUMPDEST POP PUSH1 0x4 CALLDATASIZE LT PUSH2 0x57 JUMPI PUSH1 0x0 CALLDATALOAD PUSH1 0xE0 SHR DUP1 PUSH4 0x246732B3 EQ PUSH2 0x5C JUMPI DUP1 PUSH4 0x2BCCBE46 EQ PUSH2 0x8C JUMPI DUP1 PUSH4 0x4D49694E EQ PUSH2 0xA8 JUMPI DUP1 PUSH4 0xD3C12BC3 EQ PUSH2 0xC4 JUMPI DUP1 PUSH4 0xED4C975D EQ PUSH2 0xE0 JUMPI JUMPDEST PUSH1 0x0 DUP1 REVERT JUMPDEST PUSH2 0x76 PUSH1 0x4 DUP1 CALLDATASIZE SUB DUP2 ADD SWAP1 PUSH2 0x71 SWAP2 SWAP1 PUSH2 0x1D48 JUMP JUMPDEST PUSH2 0xFC JUMP JUMPDEST PUSH1 0x40 MLOAD PUSH2 0x83 SWAP2 SWAP1 PUSH2 0x1DCC JUMP JUMPDEST PUSH1 0x40 MLOAD DUP1 SWAP2 SUB SWAP1 RETURN JUMPDEST PUSH2 0xA6 PUSH1 0x4 DUP1 CALLDATASIZE SUB DUP2 ADD SWAP1 PUSH2 0xA1 SWAP2 SWAP1 PUSH2 0x1E1D JUMP JUMPDEST PUSH2 0x375 JUMP JUMPDEST STOP JUMPDEST PUSH2 0xC2 PUSH1 0x4 DUP1 CALLDATASIZE SUB DUP2 ADD SWAP1 PUSH2 0xBD SWAP2 SWAP1 PUSH2 0x1ED3 JUMP JUMPDEST PUSH2 0x4DD JUMP JUMPDEST STOP JUMPDEST PUSH2 0xDE PUSH1 0x4 DUP1 CALLDATASIZE SUB DUP2 ADD SWAP1 PUSH2 0xD9 SWAP2 SWAP1 PUSH2 0x1ED3 JUMP JUMPDEST PUSH2 0x6EB JUMP JUMPDEST STOP JUMPDEST PUSH2 0xFA PUSH1 0x4 DUP1 CALLDATASIZE SUB DUP2 ADD SWAP1 PUSH2 0xF5 SWAP2 SWAP1 PUSH2 0x1E1D JUMP JUMPDEST PUSH2 0x8F9 JUMP JUMPDEST STOP JUMPDEST PUSH1 0x0 PUSH2 0x106 PUSH2 0x1951 JUMP JUMPDEST PUSH1 0x40 MLOAD DUP1 PUSH1 0x40 ADD PUSH1 0x40 MSTORE DUP1 DUP8 PUSH1 0x0 PUSH1 0x2 DUP2 LT PUSH2 0x125 JUMPI PUSH2 0x124 PUSH2 0x1F7A JUMP JUMPDEST JUMPDEST PUSH1 0x20 MUL ADD MLOAD DUP2 MSTORE PUSH1 0x20 ADD DUP8 PUSH1 0x1 PUSH1 0x2 DUP2 LT PUSH2 0x143 JUMPI PUSH2 0x142 PUSH2 0x1F7A JUMP JUMPDEST JUMPDEST PUSH1 0x20 MUL ADD MLOAD DUP2 MSTORE POP DUP2 PUSH1 0x0 ADD DUP2 SWAP1 MSTORE POP PUSH1 0x40 MLOAD DUP1 PUSH1 0x40 ADD PUSH1 0x40 MSTORE DUP1 PUSH1 0x40 MLOAD DUP1 PUSH1 0x40 ADD PUSH1 0x40 MSTORE DUP1 DUP9 PUSH1 0x0 PUSH1 0x2 DUP2 LT PUSH2 0x17D JUMPI PUSH2 0x17C PUSH2 0x1F7A JUMP JUMPDEST JUMPDEST PUSH1 0x20 MUL ADD MLOAD PUSH1 0x0 PUSH1 0x2 DUP2 LT PUSH2 0x195 JUMPI PUSH2 0x194 PUSH2 0x1F7A JUMP JUMPDEST JUMPDEST PUSH1 0x20 MUL ADD MLOAD DUP2 MSTORE PUSH1 0x20 ADD DUP9 PUSH1 0x0 PUSH1 0x2 DUP2 LT PUSH2 0x1B3 JUMPI PUSH2 0x1B2 PUSH2 0x1F7A JUMP JUMPDEST JUMPDEST PUSH1 0x20 MUL ADD MLOAD PUSH1 0x1 PUSH1 0x2 DUP2 LT PUSH2 0x1CB JUMPI PUSH2 0x1CA PUSH2 0x1F7A JUMP JUMPDEST JUMPDEST PUSH1 0x20 MUL ADD MLOAD DUP2 MSTORE POP DUP2 MSTORE PUSH1 0x20 ADD PUSH1 0x40 MLOAD DUP1 PUSH1 0x40 ADD PUSH1 0x40 MSTORE DUP1 DUP9 PUSH1 0x1 PUSH1 0x2 DUP2 LT PUSH2 0x1F7 JUMPI PUSH2 0x1F6 PUSH2 0x1F7A JUMP JUMPDEST JUMPDEST PUSH1 0x20 MUL ADD MLOAD PUSH1 0x0 PUSH1 0x2 DUP2 LT PUSH2 0x20F JUMPI PUSH2 0x20E PUSH2 0x1F7A JUMP JUMPDEST JUMPDEST PUSH1 0x20 MUL ADD MLOAD DUP2 MSTORE PUSH1 0x20 ADD DUP9 PUSH1 0x1 PUSH1 0x2 DUP2 LT PUSH2 0x22D JUMPI PUSH2 0x22C PUSH2 0x1F7A JUMP JUMPDEST JUMPDEST PUSH1 0x20 MUL ADD MLOAD PUSH1 0x1 PUSH1 0x2 DUP2 LT PUSH2 0x245 JUMPI PUSH2 0x244 PUSH2 0x1F7A JUMP JUMPDEST JUMPDEST PUSH1 0x20 MUL ADD MLOAD DUP2 MSTORE POP DUP2 MSTORE POP DUP2 PUSH1 0x20 ADD DUP2 SWAP1 MSTORE POP PUSH1 0x40 MLOAD DUP1 PUSH1 0x40 ADD PUSH1 0x40 MSTORE DUP1 DUP6 PUSH1 0x0 PUSH1 0x2 DUP2 LT PUSH2 0x277 JUMPI PUSH2 0x276 PUSH2 0x1F7A JUMP JUMPDEST JUMPDEST PUSH1 0x20 MUL ADD MLOAD DUP2 MSTORE PUSH1 0x20 ADD DUP6 PUSH1 0x1 PUSH1 0x2 DUP2 LT PUSH2 0x295 JUMPI PUSH2 0x294 PUSH2 0x1F7A JUMP JUMPDEST JUMPDEST PUSH1 0x20 MUL ADD MLOAD DUP2 MSTORE POP DUP2 PUSH1 0x40 ADD DUP2 SWAP1 MSTORE POP PUSH1 0x0 PUSH1 0x2 PUSH8 0xFFFFFFFFFFFFFFFF DUP2 GT ISZERO PUSH2 0x2C2 JUMPI PUSH2 0x2C1 PUSH2 0x1B30 JUMP JUMPDEST JUMPDEST PUSH1 0x40 MLOAD SWAP1 DUP1 DUP3 MSTORE DUP1 PUSH1 0x20 MUL PUSH1 0x20 ADD DUP3 ADD PUSH1 0x40 MSTORE DUP1 ISZERO PUSH2 0x2F0 JUMPI DUP2 PUSH1 0x20 ADD PUSH1 0x20 DUP3 MUL DUP1 CALLDATASIZE DUP4 CALLDATACOPY DUP1 DUP3 ADD SWAP2 POP POP SWAP1 POP JUMPDEST POP SWAP1 POP PUSH1 0x0 JUMPDEST PUSH1 0x2 DUP2 LT ISZERO PUSH2 0x349 JUMPI DUP5 DUP2 PUSH1 0x2 DUP2 LT PUSH2 0x312 JUMPI PUSH2 0x311 PUSH2 0x1F7A JUMP JUMPDEST JUMPDEST PUSH1 0x20 MUL ADD MLOAD DUP3 DUP3 DUP2 MLOAD DUP2 LT PUSH2 0x32A JUMPI PUSH2 0x329 PUSH2 0x1F7A JUMP JUMPDEST JUMPDEST PUSH1 0x20 MUL PUSH1 0x20 ADD ADD DUP2 DUP2 MSTORE POP POP DUP1 DUP1 PUSH2 0x341 SWAP1 PUSH2 0x1FD8 JUMP JUMPDEST SWAP2 POP POP PUSH2 0x2F6 JUMP JUMPDEST POP PUSH1 0x0 PUSH2 0x356 DUP3 DUP5 PUSH2 0xA61 JUMP JUMPDEST SUB PUSH2 0x366 JUMPI PUSH1 0x1 SWAP3 POP POP POP PUSH2 0x36D JUMP JUMPDEST PUSH1 0x0 SWAP3 POP POP POP JUMPDEST SWAP5 SWAP4 POP POP POP POP JUMP JUMPDEST PUSH1 0x0 DUP1 SHL PUSH1 0x0 DUP1 DUP11 DUP2 MSTORE PUSH1 0x20 ADD SWAP1 DUP2 MSTORE PUSH1 0x20 ADD PUSH1 0x0 KECCAK256 PUSH1 0x0 ADD SLOAD EQ PUSH2 0x3CF JUMPI PUSH1 0x40 MLOAD PUSH32 0x8C379A000000000000000000000000000000000000000000000000000000000 DUP2 MSTORE PUSH1 0x4 ADD PUSH2 0x3C6 SWAP1 PUSH2 0x207D JUMP JUMPDEST PUSH1 0x40 MLOAD DUP1 SWAP2 SUB SWAP1 REVERT JUMPDEST PUSH2 0x3D7 PUSH2 0x1984 JUMP JUMPDEST DUP9 DUP2 PUSH1 0x0 ADD DUP2 DUP2 MSTORE POP POP DUP8 DUP2 PUSH1 0x40 ADD DUP2 DUP2 MSTORE POP POP DUP7 DUP2 PUSH1 0x80 ADD DUP2 DUP2 MSTORE POP POP DUP6 DUP2 PUSH1 0xC0 ADD DUP2 DUP2 MSTORE POP POP DUP5 DUP2 PUSH1 0xE0 ADD DUP2 DUP2 MSTORE POP POP DUP4 DUP2 PUSH2 0x100 ADD DUP2 DUP2 MSTORE POP POP DUP3 DUP2 PUSH2 0x120 ADD DUP2 DUP2 MSTORE POP POP DUP2 DUP2 PUSH2 0x140 ADD DUP2 DUP2 MSTORE POP POP DUP1 PUSH1 0x0 DUP1 DUP12 DUP2 MSTORE PUSH1 0x20 ADD SWAP1 DUP2 MSTORE PUSH1 0x20 ADD PUSH1 0x0 KECCAK256 PUSH1 0x0 DUP3 ADD MLOAD DUP2 PUSH1 0x0 ADD SSTORE PUSH1 0x20 DUP3 ADD MLOAD DUP2 PUSH1 0x1 ADD SSTORE PUSH1 0x40 DUP3 ADD MLOAD DUP2 PUSH1 0x2 ADD SSTORE PUSH1 0x60 DUP3 ADD MLOAD DUP2 PUSH1 0x3 ADD SSTORE PUSH1 0x80 DUP3 ADD MLOAD DUP2 PUSH1 0x4 ADD SSTORE PUSH1 0xA0 DUP3 ADD MLOAD DUP2 PUSH1 0x5 ADD SSTORE PUSH1 0xC0 DUP3 ADD MLOAD DUP2 PUSH1 0x6 ADD SSTORE PUSH1 0xE0 DUP3 ADD MLOAD DUP2 PUSH1 0x7 ADD SSTORE PUSH2 0x100 DUP3 ADD MLOAD DUP2 PUSH1 0x8 ADD SSTORE PUSH2 0x120 DUP3 ADD MLOAD DUP2 PUSH1 0x9 ADD SSTORE PUSH2 0x140 DUP3 ADD MLOAD DUP2 PUSH1 0xA ADD SSTORE PUSH2 0x160 DUP3 ADD MLOAD DUP2 PUSH1 0xB ADD PUSH1 0x0 PUSH2 0x100 EXP DUP2 SLOAD DUP2 PUSH1 0xFF MUL NOT AND SWAP1 DUP4 ISZERO ISZERO MUL OR SWAP1 SSTORE POP SWAP1 POP POP POP POP POP POP POP POP POP POP POP JUMP JUMPDEST PUSH1 0x0 DUP1 SHL PUSH1 0x0 DUP1 DUP7 DUP2 MSTORE PUSH1 0x20 ADD SWAP1 DUP2 MSTORE PUSH1 0x20 ADD PUSH1 0x0 KECCAK256 PUSH1 0x0 ADD SLOAD SUB PUSH2 0x537 JUMPI PUSH1 0x40 MLOAD PUSH32 0x8C379A000000000000000000000000000000000000000000000000000000000 DUP2 MSTORE PUSH1 0x4 ADD PUSH2 0x52E SWAP1 PUSH2 0x20E9 JUMP JUMPDEST PUSH1 0x40 MLOAD DUP1 SWAP2 SUB SWAP1 REVERT JUMPDEST PUSH1 0x0 ISZERO ISZERO PUSH1 0x0 DUP1 DUP7 DUP2 MSTORE PUSH1 0x20 ADD SWAP1 DUP2 MSTORE PUSH1 0x20 ADD PUSH1 0x0 KECCAK256 PUSH1 0xB ADD PUSH1 0x0 SWAP1 SLOAD SWAP1 PUSH2 0x100 EXP SWAP1 DIV PUSH1 0xFF AND ISZERO ISZERO EQ PUSH2 0x5A0 JUMPI PUSH1 0x40 MLOAD PUSH32 0x8C379A000000000000000000000000000000000000000000000000000000000 DUP2 MSTORE PUSH1 0x4 ADD PUSH2 0x597 SWAP1 PUSH2 0x2155 JUMP JUMPDEST PUSH1 0x40 MLOAD DUP1 SWAP2 SUB SWAP1 REVERT JUMPDEST PUSH1 0x0 DUP1 SHL PUSH1 0x0 DUP1 DUP7 DUP2 MSTORE PUSH1 0x20 ADD SWAP1 DUP2 MSTORE PUSH1 0x20 ADD PUSH1 0x0 KECCAK256 PUSH1 0x1 ADD SLOAD EQ PUSH2 0x5FA JUMPI PUSH1 0x40 MLOAD PUSH32 0x8C379A000000000000000000000000000000000000000000000000000000000 DUP2 MSTORE PUSH1 0x4 ADD PUSH2 0x5F1 SWAP1 PUSH2 0x21E7 JUMP JUMPDEST PUSH1 0x40 MLOAD DUP1 SWAP2 SUB SWAP1 REVERT JUMPDEST PUSH1 0x1 ISZERO ISZERO PUSH2 0x624 DUP9 DUP9 DUP9 PUSH1 0x40 MLOAD DUP1 PUSH1 0x40 ADD PUSH1 0x40 MSTORE DUP1 DUP11 PUSH1 0x0 SHR DUP2 MSTORE PUSH1 0x20 ADD DUP10 PUSH1 0x0 SHR DUP2 MSTORE POP PUSH2 0xFC JUMP JUMPDEST ISZERO ISZERO EQ PUSH2 0x666 JUMPI PUSH1 0x40 MLOAD PUSH32 0x8C379A000000000000000000000000000000000000000000000000000000000 DUP2 MSTORE PUSH1 0x4 ADD PUSH2 0x65D SWAP1 PUSH2 0x2253 JUMP JUMPDEST PUSH1 0x40 MLOAD DUP1 SWAP2 SUB SWAP1 REVERT JUMPDEST DUP3 PUSH1 0x0 DUP1 DUP7 DUP2 MSTORE PUSH1 0x20 ADD SWAP1 DUP2 MSTORE PUSH1 0x20 ADD PUSH1 0x0 KECCAK256 PUSH1 0x1 ADD DUP2 SWAP1 SSTORE POP DUP2 PUSH1 0x0 DUP1 DUP7 DUP2 MSTORE PUSH1 0x20 ADD SWAP1 DUP2 MSTORE PUSH1 0x20 ADD PUSH1 0x0 KECCAK256 PUSH1 0x3 ADD DUP2 SWAP1 SSTORE POP DUP1 PUSH1 0x0 DUP1 DUP7 DUP2 MSTORE PUSH1 0x20 ADD SWAP1 DUP2 MSTORE PUSH1 0x20 ADD PUSH1 0x0 KECCAK256 PUSH1 0x5 ADD DUP2 SWAP1 SSTORE POP PUSH1 0x0 DUP1 PUSH1 0x0 DUP7 DUP2 MSTORE PUSH1 0x20 ADD SWAP1 DUP2 MSTORE PUSH1 0x20 ADD PUSH1 0x0 KECCAK256 PUSH1 0xB ADD PUSH1 0x0 PUSH2 0x100 EXP DUP2 SLOAD DUP2 PUSH1 0xFF MUL NOT AND SWAP1 DUP4 ISZERO ISZERO MUL OR SWAP1 SSTORE POP POP POP POP POP POP POP POP JUMP JUMPDEST PUSH1 0x0 DUP1 SHL PUSH1 0x0 DUP1 DUP7 DUP2 MSTORE PUSH1 0x20 ADD SWAP1 DUP2 MSTORE PUSH1 0x20 ADD PUSH1 0x0 KECCAK256 PUSH1 0x0 ADD SLOAD SUB PUSH2 0x745 JUMPI PUSH1 0x40 MLOAD PUSH32 0x8C379A000000000000000000000000000000000000000000000000000000000 DUP2 MSTORE PUSH1 0x4 ADD PUSH2 0x73C SWAP1 PUSH2 0x20E9 JUMP JUMPDEST PUSH1 0x40 MLOAD DUP1 SWAP2 SUB SWAP1 REVERT JUMPDEST PUSH1 0x0 ISZERO ISZERO PUSH1 0x0 DUP1 DUP7 DUP2 MSTORE PUSH1 0x20 ADD SWAP1 DUP2 MSTORE PUSH1 0x20 ADD PUSH1 0x0 KECCAK256 PUSH1 0xB ADD PUSH1 0x0 SWAP1 SLOAD SWAP1 PUSH2 0x100 EXP SWAP1 DIV PUSH1 0xFF AND ISZERO ISZERO EQ PUSH2 0x7AE JUMPI PUSH1 0x40 MLOAD PUSH32 0x8C379A000000000000000000000000000000000000000000000000000000000 DUP2 MSTORE PUSH1 0x4 ADD PUSH2 0x7A5 SWAP1 PUSH2 0x2155 JUMP JUMPDEST PUSH1 0x40 MLOAD DUP1 SWAP2 SUB SWAP1 REVERT JUMPDEST PUSH1 0x0 DUP1 SHL PUSH1 0x0 DUP1 DUP7 DUP2 MSTORE PUSH1 0x20 ADD SWAP1 DUP2 MSTORE PUSH1 0x20 ADD PUSH1 0x0 KECCAK256 PUSH1 0x2 ADD SLOAD EQ PUSH2 0x808 JUMPI PUSH1 0x40 MLOAD PUSH32 0x8C379A000000000000000000000000000000000000000000000000000000000 DUP2 MSTORE PUSH1 0x4 ADD PUSH2 0x7FF SWAP1 PUSH2 0x21E7 JUMP JUMPDEST PUSH1 0x40 MLOAD DUP1 SWAP2 SUB SWAP1 REVERT JUMPDEST PUSH1 0x1 ISZERO ISZERO PUSH2 0x832 DUP9 DUP9 DUP9 PUSH1 0x40 MLOAD DUP1 PUSH1 0x40 ADD PUSH1 0x40 MSTORE DUP1 DUP11 PUSH1 0x0 SHR DUP2 MSTORE PUSH1 0x20 ADD DUP10 PUSH1 0x0 SHR DUP2 MSTORE POP PUSH2 0xFC JUMP JUMPDEST ISZERO ISZERO EQ PUSH2 0x874 JUMPI PUSH1 0x40 MLOAD PUSH32 0x8C379A000000000000000000000000000000000000000000000000000000000 DUP2 MSTORE PUSH1 0x4 ADD PUSH2 0x86B SWAP1 PUSH2 0x2253 JUMP JUMPDEST PUSH1 0x40 MLOAD DUP1 SWAP2 SUB SWAP1 REVERT JUMPDEST DUP3 PUSH1 0x0 DUP1 DUP7 DUP2 MSTORE PUSH1 0x20 ADD SWAP1 DUP2 MSTORE PUSH1 0x20 ADD PUSH1 0x0 KECCAK256 PUSH1 0x2 ADD DUP2 SWAP1 SSTORE POP DUP2 PUSH1 0x0 DUP1 DUP7 DUP2 MSTORE PUSH1 0x20 ADD SWAP1 DUP2 MSTORE PUSH1 0x20 ADD PUSH1 0x0 KECCAK256 PUSH1 0x4 ADD DUP2 SWAP1 SSTORE POP DUP1 PUSH1 0x0 DUP1 DUP7 DUP2 MSTORE PUSH1 0x20 ADD SWAP1 DUP2 MSTORE PUSH1 0x20 ADD PUSH1 0x0 KECCAK256 PUSH1 0x6 ADD DUP2 SWAP1 SSTORE POP PUSH1 0x0 DUP1 PUSH1 0x0 DUP7 DUP2 MSTORE PUSH1 0x20 ADD SWAP1 DUP2 MSTORE PUSH1 0x20 ADD PUSH1 0x0 KECCAK256 PUSH1 0xB ADD PUSH1 0x0 PUSH2 0x100 EXP DUP2 SLOAD DUP2 PUSH1 0xFF MUL NOT AND SWAP1 DUP4 ISZERO ISZERO MUL OR SWAP1 SSTORE POP POP POP POP POP POP POP POP JUMP JUMPDEST PUSH1 0x0 DUP1 SHL PUSH1 0x0 DUP1 DUP11 DUP2 MSTORE PUSH1 0x20 ADD SWAP1 DUP2 MSTORE PUSH1 0x20 ADD PUSH1 0x0 KECCAK256 PUSH1 0x0 ADD SLOAD EQ PUSH2 0x953 JUMPI PUSH1 0x40 MLOAD PUSH32 0x8C379A000000000000000000000000000000000000000000000000000000000 DUP2 MSTORE PUSH1 0x4 ADD PUSH2 0x94A SWAP1 PUSH2 0x207D JUMP JUMPDEST PUSH1 0x40 MLOAD DUP1 SWAP2 SUB SWAP1 REVERT JUMPDEST PUSH2 0x95B PUSH2 0x1984 JUMP JUMPDEST DUP9 DUP2 PUSH1 0x0 ADD DUP2 DUP2 MSTORE POP POP DUP8 DUP2 PUSH1 0x20 ADD DUP2 DUP2 MSTORE POP POP DUP7 DUP2 PUSH1 0x60 ADD DUP2 DUP2 MSTORE POP POP DUP6 DUP2 PUSH1 0xA0 ADD DUP2 DUP2 MSTORE POP POP DUP5 DUP2 PUSH1 0xE0 ADD DUP2 DUP2 MSTORE POP POP DUP4 DUP2 PUSH2 0x100 ADD DUP2 DUP2 MSTORE POP POP DUP3 DUP2 PUSH2 0x120 ADD DUP2 DUP2 MSTORE POP POP DUP2 DUP2 PUSH2 0x140 ADD DUP2 DUP2 MSTORE POP POP DUP1 PUSH1 0x0 DUP1 DUP12 DUP2 MSTORE PUSH1 0x20 ADD SWAP1 DUP2 MSTORE PUSH1 0x20 ADD PUSH1 0x0 KECCAK256 PUSH1 0x0 DUP3 ADD MLOAD DUP2 PUSH1 0x0 ADD SSTORE PUSH1 0x20 DUP3 ADD MLOAD DUP2 PUSH1 0x1 ADD SSTORE PUSH1 0x40 DUP3 ADD MLOAD DUP2 PUSH1 0x2 ADD SSTORE PUSH1 0x60 DUP3 ADD MLOAD DUP2 PUSH1 0x3 ADD SSTORE PUSH1 0x80 DUP3 ADD MLOAD DUP2 PUSH1 0x4 ADD SSTORE PUSH1 0xA0 DUP3 ADD MLOAD DUP2 PUSH1 0x5 ADD SSTORE PUSH1 0xC0 DUP3 ADD MLOAD DUP2 PUSH1 0x6 ADD SSTORE PUSH1 0xE0 DUP3 ADD MLOAD DUP2 PUSH1 0x7 ADD SSTORE PUSH2 0x100 DUP3 ADD MLOAD DUP2 PUSH1 0x8 ADD SSTORE PUSH2 0x120 DUP3 ADD MLOAD DUP2 PUSH1 0x9 ADD SSTORE PUSH2 0x140 DUP3 ADD MLOAD DUP2 PUSH1 0xA ADD SSTORE PUSH2 0x160 DUP3 ADD MLOAD DUP2 PUSH1 0xB ADD PUSH1 0x0 PUSH2 0x100 EXP DUP2 SLOAD DUP2 PUSH1 0xFF MUL NOT AND SWAP1 DUP4 ISZERO ISZERO MUL OR SWAP1 SSTORE POP SWAP1 POP POP POP POP POP POP POP POP POP POP POP JUMP JUMPDEST PUSH1 0x0 DUP1 PUSH32 0x30644E72E131A029B85045B68181585D2833E84879B9709143E1F593F0000001 SWAP1 POP PUSH1 0x0 PUSH2 0xA91 PUSH2 0xC54 JUMP JUMPDEST SWAP1 POP DUP1 PUSH1 0x80 ADD MLOAD MLOAD PUSH1 0x1 DUP7 MLOAD PUSH2 0xAA7 SWAP2 SWAP1 PUSH2 0x2273 JUMP JUMPDEST EQ PUSH2 0xAE7 JUMPI PUSH1 0x40 MLOAD PUSH32 0x8C379A000000000000000000000000000000000000000000000000000000000 DUP2 MSTORE PUSH1 0x4 ADD PUSH2 0xADE SWAP1 PUSH2 0x2315 JUMP JUMPDEST PUSH1 0x40 MLOAD DUP1 SWAP2 SUB SWAP1 REVERT JUMPDEST PUSH1 0x0 PUSH1 0x40 MLOAD DUP1 PUSH1 0x40 ADD PUSH1 0x40 MSTORE DUP1 PUSH1 0x0 DUP2 MSTORE PUSH1 0x20 ADD PUSH1 0x0 DUP2 MSTORE POP SWAP1 POP PUSH1 0x0 JUMPDEST DUP7 MLOAD DUP2 LT ISZERO PUSH2 0xBD6 JUMPI DUP4 DUP8 DUP3 DUP2 MLOAD DUP2 LT PUSH2 0xB22 JUMPI PUSH2 0xB21 PUSH2 0x1F7A JUMP JUMPDEST JUMPDEST PUSH1 0x20 MUL PUSH1 0x20 ADD ADD MLOAD LT PUSH2 0xB6A JUMPI PUSH1 0x40 MLOAD PUSH32 0x8C379A000000000000000000000000000000000000000000000000000000000 DUP2 MSTORE PUSH1 0x4 ADD PUSH2 0xB61 SWAP1 PUSH2 0x2381 JUMP JUMPDEST PUSH1 0x40 MLOAD DUP1 SWAP2 SUB SWAP1 REVERT JUMPDEST PUSH2 0xBC1 DUP3 PUSH2 0xBBC DUP6 PUSH1 0x80 ADD MLOAD PUSH1 0x1 DUP6 PUSH2 0xB83 SWAP2 SWAP1 PUSH2 0x2273 JUMP JUMPDEST DUP2 MLOAD DUP2 LT PUSH2 0xB94 JUMPI PUSH2 0xB93 PUSH2 0x1F7A JUMP JUMPDEST JUMPDEST PUSH1 0x20 MUL PUSH1 0x20 ADD ADD MLOAD DUP11 DUP6 DUP2 MLOAD DUP2 LT PUSH2 0xBAF JUMPI PUSH2 0xBAE PUSH2 0x1F7A JUMP JUMPDEST JUMPDEST PUSH1 0x20 MUL PUSH1 0x20 ADD ADD MLOAD PUSH2 0x1147 JUMP JUMPDEST PUSH2 0x121F JUMP JUMPDEST SWAP2 POP DUP1 DUP1 PUSH2 0xBCE SWAP1 PUSH2 0x1FD8 JUMP JUMPDEST SWAP2 POP POP PUSH2 0xB05 JUMP JUMPDEST POP PUSH2 0xC00 DUP2 DUP4 PUSH1 0x80 ADD MLOAD PUSH1 0x0 DUP2 MLOAD DUP2 LT PUSH2 0xBF3 JUMPI PUSH2 0xBF2 PUSH2 0x1F7A JUMP JUMPDEST JUMPDEST PUSH1 0x20 MUL PUSH1 0x20 ADD ADD MLOAD PUSH2 0x121F JUMP JUMPDEST SWAP1 POP PUSH2 0xC36 PUSH2 0xC12 DUP7 PUSH1 0x0 ADD MLOAD PUSH2 0x131D JUMP JUMPDEST DUP7 PUSH1 0x20 ADD MLOAD DUP5 PUSH1 0x0 ADD MLOAD DUP6 PUSH1 0x20 ADD MLOAD DUP6 DUP8 PUSH1 0x40 ADD MLOAD DUP12 PUSH1 0x40 ADD MLOAD DUP10 PUSH1 0x60 ADD MLOAD PUSH2 0x13C2 JUMP JUMPDEST PUSH2 0xC46 JUMPI PUSH1 0x1 SWAP4 POP POP POP POP PUSH2 0xC4E JUMP JUMPDEST PUSH1 0x0 SWAP4 POP POP POP POP JUMPDEST SWAP3 SWAP2 POP POP JUMP JUMPDEST PUSH2 0xC5C PUSH2 0x19FC JUMP JUMPDEST PUSH1 0x40 MLOAD DUP1 PUSH1 0x40 ADD PUSH1 0x40 MSTORE DUP1 PUSH32 0x2D4D9AA7E302D9DF41749D5507949D05DBEA33FBB16C643B22F599A2BE6DF2E2 DUP2 MSTORE PUSH1 0x20 ADD PUSH32 0x14BEDD503C37CEB061D8EC60209FE345CE89830A19230301F076CAFF004D1926 DUP2 MSTORE POP DUP2 PUSH1 0x0 ADD DUP2 SWAP1 MSTORE POP PUSH1 0x40 MLOAD DUP1 PUSH1 0x40 ADD PUSH1 0x40 MSTORE DUP1 PUSH1 0x40 MLOAD DUP1 PUSH1 0x40 ADD PUSH1 0x40 MSTORE DUP1 PUSH32 0x967032FCBF776D1AFC985F88877F182D38480A653F2DECAA9794CBC3BF3060C DUP2 MSTORE PUSH1 0x20 ADD PUSH32 0xE187847AD4C798374D0D6732BF501847DD68BC0E071241E0213BC7FC13DB7AB DUP2 MSTORE POP DUP2 MSTORE PUSH1 0x20 ADD PUSH1 0x40 MLOAD DUP1 PUSH1 0x40 ADD PUSH1 0x40 MSTORE DUP1 PUSH32 0x304CFBD1E08A704A99F5E847D93F8C3CAAFDDEC46B7A0D379DA69A4D112346A7 DUP2 MSTORE PUSH1 0x20 ADD PUSH32 0x1739C1B1A457A8C7313123D24D2F9192F896B7C63EEA05A9D57F06547AD0CEC8 DUP2 MSTORE POP DUP2 MSTORE POP DUP2 PUSH1 0x20 ADD DUP2 SWAP1 MSTORE POP PUSH1 0x40 MLOAD DUP1 PUSH1 0x40 ADD PUSH1 0x40 MSTORE DUP1 PUSH1 0x40 MLOAD DUP1 PUSH1 0x40 ADD PUSH1 0x40 MSTORE DUP1 PUSH32 0x198E9393920D483A7260BFB731FB5D25F1AA493335A9E71297E485B7AEF312C2 DUP2 MSTORE PUSH1 0x20 ADD PUSH32 0x1800DEEF121F1E76426A00665E5C4479674322D4F75EDADD46DEBD5CD992F6ED DUP2 MSTORE POP DUP2 MSTORE PUSH1 0x20 ADD PUSH1 0x40 MLOAD DUP1 PUSH1 0x40 ADD PUSH1 0x40 MSTORE DUP1 PUSH32 0x90689D0585FF075EC9E99AD690C3395BC4B313370B38EF355ACDADCD122975B DUP2 MSTORE PUSH1 0x20 ADD PUSH32 0x12C85EA5DB8C6DEB4AAB71808DCB408FE3D1E7690C43D37B4CE6CC0166FA7DAA DUP2 MSTORE POP DUP2 MSTORE POP DUP2 PUSH1 0x40 ADD DUP2 SWAP1 MSTORE POP PUSH1 0x40 MLOAD DUP1 PUSH1 0x40 ADD PUSH1 0x40 MSTORE DUP1 PUSH1 0x40 MLOAD DUP1 PUSH1 0x40 ADD PUSH1 0x40 MSTORE DUP1 PUSH32 0x2D699E2F01351D10F6883FC9033E8A325DC2224686A0C6D300CCBEFFB4657CBF DUP2 MSTORE PUSH1 0x20 ADD PUSH32 0x2E5552EE4AA0572BC07521C06045449E3413A498366CEF7EF882FF34203C827F DUP2 MSTORE POP DUP2 MSTORE PUSH1 0x20 ADD PUSH1 0x40 MLOAD DUP1 PUSH1 0x40 ADD PUSH1 0x40 MSTORE DUP1 PUSH31 0xF1449ABDE0F3B4BC2929B5134AD9F35E2C1DC8FBC3678FBB6971D6307AF5EC DUP2 MSTORE PUSH1 0x20 ADD PUSH32 0x271217953733318AE757E0A110F4C3A79585B1EE847B5AD0046528A9FC06C871 DUP2 MSTORE POP DUP2 MSTORE POP DUP2 PUSH1 0x60 ADD DUP2 SWAP1 MSTORE POP PUSH1 0x4 PUSH8 0xFFFFFFFFFFFFFFFF DUP2 GT ISZERO PUSH2 0xF22 JUMPI PUSH2 0xF21 PUSH2 0x1B30 JUMP JUMPDEST JUMPDEST PUSH1 0x40 MLOAD SWAP1 DUP1 DUP3 MSTORE DUP1 PUSH1 0x20 MUL PUSH1 0x20 ADD DUP3 ADD PUSH1 0x40 MSTORE DUP1 ISZERO PUSH2 0xF5B JUMPI DUP2 PUSH1 0x20 ADD JUMPDEST PUSH2 0xF48 PUSH2 0x1A43 JUMP JUMPDEST DUP2 MSTORE PUSH1 0x20 ADD SWAP1 PUSH1 0x1 SWAP1 SUB SWAP1 DUP2 PUSH2 0xF40 JUMPI SWAP1 POP JUMPDEST POP DUP2 PUSH1 0x80 ADD DUP2 SWAP1 MSTORE POP PUSH1 0x40 MLOAD DUP1 PUSH1 0x40 ADD PUSH1 0x40 MSTORE DUP1 PUSH32 0x23FA2CDBAC7BAFE62E17C779DF0C6B841D5E9B4CFB280AD8920CAE283AEE2D06 DUP2 MSTORE PUSH1 0x20 ADD PUSH32 0xD5268089FE1B35B40839F02B827AC8C404409FDD9809A6ECEAC18CF9D5AAE9B DUP2 MSTORE POP DUP2 PUSH1 0x80 ADD MLOAD PUSH1 0x0 DUP2 MLOAD DUP2 LT PUSH2 0xFD1 JUMPI PUSH2 0xFD0 PUSH2 0x1F7A JUMP JUMPDEST JUMPDEST PUSH1 0x20 MUL PUSH1 0x20 ADD ADD DUP2 SWAP1 MSTORE POP PUSH1 0x40 MLOAD DUP1 PUSH1 0x40 ADD PUSH1 0x40 MSTORE DUP1 PUSH32 0x248A4C71AD3CEFD192882B10B7B82D2FEAFC1477AA22EFF3E0CFB929398790EC DUP2 MSTORE PUSH1 0x20 ADD PUSH32 0x17C3F1A5431012D9438FA60C89126F9157D9216E80F2AD5E9189EC3EDD81E029 DUP2 MSTORE POP DUP2 PUSH1 0x80 ADD MLOAD PUSH1 0x1 DUP2 MLOAD DUP2 LT PUSH2 0x1049 JUMPI PUSH2 0x1048 PUSH2 0x1F7A JUMP JUMPDEST JUMPDEST PUSH1 0x20 MUL PUSH1 0x20 ADD ADD DUP2 SWAP1 MSTORE POP PUSH1 0x40 MLOAD DUP1 PUSH1 0x40 ADD PUSH1 0x40 MSTORE DUP1 PUSH32 0x131C7E6E19593948A0E6C35B881532D801C0202DC82787105FC408E14A84894 DUP2 MSTORE PUSH1 0x20 ADD PUSH32 0x28785558508E5D6F86B0674F88315040333129F9B3CBB1BB088C1B8A1A8619B DUP2 MSTORE POP DUP2 PUSH1 0x80 ADD MLOAD PUSH1 0x2 DUP2 MLOAD DUP2 LT PUSH2 0x10C1 JUMPI PUSH2 0x10C0 PUSH2 0x1F7A JUMP JUMPDEST JUMPDEST PUSH1 0x20 MUL PUSH1 0x20 ADD ADD DUP2 SWAP1 MSTORE POP PUSH1 0x40 MLOAD DUP1 PUSH1 0x40 ADD PUSH1 0x40 MSTORE DUP1 PUSH32 0x269BCBFC7F83D2F231C1F189A32D508A90A12BE4EC3939BA162BDFCC27B73328 DUP2 MSTORE PUSH1 0x20 ADD PUSH32 0x20F52B08B210F9B179E628A908B8C3FF5BE6811A52787F317A47E33B5BA2A73B DUP2 MSTORE POP DUP2 PUSH1 0x80 ADD MLOAD PUSH1 0x3 DUP2 MLOAD DUP2 LT PUSH2 0x1139 JUMPI PUSH2 0x1138 PUSH2 0x1F7A JUMP JUMPDEST JUMPDEST PUSH1 0x20 MUL PUSH1 0x20 ADD ADD DUP2 SWAP1 MSTORE POP SWAP1 JUMP JUMPDEST PUSH2 0x114F PUSH2 0x1A43 JUMP JUMPDEST PUSH2 0x1157 PUSH2 0x1A5D JUMP JUMPDEST DUP4 PUSH1 0x0 ADD MLOAD DUP2 PUSH1 0x0 PUSH1 0x3 DUP2 LT PUSH2 0x1170 JUMPI PUSH2 0x116F PUSH2 0x1F7A JUMP JUMPDEST JUMPDEST PUSH1 0x20 MUL ADD DUP2 DUP2 MSTORE POP POP DUP4 PUSH1 0x20 ADD MLOAD DUP2 PUSH1 0x1 PUSH1 0x3 DUP2 LT PUSH2 0x1192 JUMPI PUSH2 0x1191 PUSH2 0x1F7A JUMP JUMPDEST JUMPDEST PUSH1 0x20 MUL ADD DUP2 DUP2 MSTORE POP POP DUP3 DUP2 PUSH1 0x2 PUSH1 0x3 DUP2 LT PUSH2 0x11B0 JUMPI PUSH2 0x11AF PUSH2 0x1F7A JUMP JUMPDEST JUMPDEST PUSH1 0x20 MUL ADD DUP2 DUP2 MSTORE POP POP PUSH1 0x0 PUSH1 0x60 DUP4 PUSH1 0x80 DUP5 PUSH1 0x7 PUSH2 0x7D0 GAS SUB STATICCALL SWAP1 POP DUP1 PUSH1 0x0 DUP2 SUB PUSH2 0x11D6 JUMPI INVALID JUMPDEST POP DUP1 PUSH2 0x1217 JUMPI PUSH1 0x40 MLOAD PUSH32 0x8C379A000000000000000000000000000000000000000000000000000000000 DUP2 MSTORE PUSH1 0x4 ADD PUSH2 0x120E SWAP1 PUSH2 0x23ED JUMP JUMPDEST PUSH1 0x40 MLOAD DUP1 SWAP2 SUB SWAP1 REVERT JUMPDEST POP POP SWAP3 SWAP2 POP POP JUMP JUMPDEST PUSH2 0x1227 PUSH2 0x1A43 JUMP JUMPDEST PUSH2 0x122F PUSH2 0x1A7F JUMP JUMPDEST DUP4 PUSH1 0x0 ADD MLOAD DUP2 PUSH1 0x0 PUSH1 0x4 DUP2 LT PUSH2 0x1248 JUMPI PUSH2 0x1247 PUSH2 0x1F7A JUMP JUMPDEST JUMPDEST PUSH1 0x20 MUL ADD DUP2 DUP2 MSTORE POP POP DUP4 PUSH1 0x20 ADD MLOAD DUP2 PUSH1 0x1 PUSH1 0x4 DUP2 LT PUSH2 0x126A JUMPI PUSH2 0x1269 PUSH2 0x1F7A JUMP JUMPDEST JUMPDEST PUSH1 0x20 MUL ADD DUP2 DUP2 MSTORE POP POP DUP3 PUSH1 0x0 ADD MLOAD DUP2 PUSH1 0x2 PUSH1 0x4 DUP2 LT PUSH2 0x128C JUMPI PUSH2 0x128B PUSH2 0x1F7A JUMP JUMPDEST JUMPDEST PUSH1 0x20 MUL ADD DUP2 DUP2 MSTORE POP POP DUP3 PUSH1 0x20 ADD MLOAD DUP2 PUSH1 0x3 PUSH1 0x4 DUP2 LT PUSH2 0x12AE JUMPI PUSH2 0x12AD PUSH2 0x1F7A JUMP JUMPDEST JUMPDEST PUSH1 0x20 MUL ADD DUP2 DUP2 MSTORE POP POP PUSH1 0x0 PUSH1 0x60 DUP4 PUSH1 0xC0 DUP5 PUSH1 0x6 PUSH2 0x7D0 GAS SUB STATICCALL SWAP1 POP DUP1 PUSH1 0x0 DUP2 SUB PUSH2 0x12D4 JUMPI INVALID JUMPDEST POP DUP1 PUSH2 0x1315 JUMPI PUSH1 0x40 MLOAD PUSH32 0x8C379A000000000000000000000000000000000000000000000000000000000 DUP2 MSTORE PUSH1 0x4 ADD PUSH2 0x130C SWAP1 PUSH2 0x2459 JUMP JUMPDEST PUSH1 0x40 MLOAD DUP1 SWAP2 SUB SWAP1 REVERT JUMPDEST POP POP SWAP3 SWAP2 POP POP JUMP JUMPDEST PUSH2 0x1325 PUSH2 0x1A43 JUMP JUMPDEST PUSH1 0x0 PUSH32 0x30644E72E131A029B85045B68181585D97816A916871CA8D3C208C16D87CFD47 SWAP1 POP PUSH1 0x0 DUP4 PUSH1 0x0 ADD MLOAD EQ DUP1 ISZERO PUSH2 0x1362 JUMPI POP PUSH1 0x0 DUP4 PUSH1 0x20 ADD MLOAD EQ JUMPDEST ISZERO PUSH2 0x1386 JUMPI PUSH1 0x40 MLOAD DUP1 PUSH1 0x40 ADD PUSH1 0x40 MSTORE DUP1 PUSH1 0x0 DUP2 MSTORE PUSH1 0x20 ADD PUSH1 0x0 DUP2 MSTORE POP SWAP2 POP POP PUSH2 0x13BD JUMP JUMPDEST PUSH1 0x40 MLOAD DUP1 PUSH1 0x40 ADD PUSH1 0x40 MSTORE DUP1 DUP5 PUSH1 0x0 ADD MLOAD DUP2 MSTORE PUSH1 0x20 ADD DUP3 DUP6 PUSH1 0x20 ADD MLOAD PUSH2 0x13AB SWAP2 SWAP1 PUSH2 0x24A8 JUMP JUMPDEST DUP4 PUSH2 0x13B6 SWAP2 SWAP1 PUSH2 0x24D9 JUMP JUMPDEST DUP2 MSTORE POP SWAP2 POP POP JUMPDEST SWAP2 SWAP1 POP JUMP JUMPDEST PUSH1 0x0 DUP1 PUSH1 0x4 PUSH8 0xFFFFFFFFFFFFFFFF DUP2 GT ISZERO PUSH2 0x13E0 JUMPI PUSH2 0x13DF PUSH2 0x1B30 JUMP JUMPDEST JUMPDEST PUSH1 0x40 MLOAD SWAP1 DUP1 DUP3 MSTORE DUP1 PUSH1 0x20 MUL PUSH1 0x20 ADD DUP3 ADD PUSH1 0x40 MSTORE DUP1 ISZERO PUSH2 0x1419 JUMPI DUP2 PUSH1 0x20 ADD JUMPDEST PUSH2 0x1406 PUSH2 0x1A43 JUMP JUMPDEST DUP2 MSTORE PUSH1 0x20 ADD SWAP1 PUSH1 0x1 SWAP1 SUB SWAP1 DUP2 PUSH2 0x13FE JUMPI SWAP1 POP JUMPDEST POP SWAP1 POP PUSH1 0x0 PUSH1 0x4 PUSH8 0xFFFFFFFFFFFFFFFF DUP2 GT ISZERO PUSH2 0x1439 JUMPI PUSH2 0x1438 PUSH2 0x1B30 JUMP JUMPDEST JUMPDEST PUSH1 0x40 MLOAD SWAP1 DUP1 DUP3 MSTORE DUP1 PUSH1 0x20 MUL PUSH1 0x20 ADD DUP3 ADD PUSH1 0x40 MSTORE DUP1 ISZERO PUSH2 0x1472 JUMPI DUP2 PUSH1 0x20 ADD JUMPDEST PUSH2 0x145F PUSH2 0x1AA1 JUMP JUMPDEST DUP2 MSTORE PUSH1 0x20 ADD SWAP1 PUSH1 0x1 SWAP1 SUB SWAP1 DUP2 PUSH2 0x1457 JUMPI SWAP1 POP JUMPDEST POP SWAP1 POP DUP11 DUP3 PUSH1 0x0 DUP2 MLOAD DUP2 LT PUSH2 0x148A JUMPI PUSH2 0x1489 PUSH2 0x1F7A JUMP JUMPDEST JUMPDEST PUSH1 0x20 MUL PUSH1 0x20 ADD ADD DUP2 SWAP1 MSTORE POP DUP9 DUP3 PUSH1 0x1 DUP2 MLOAD DUP2 LT PUSH2 0x14AA JUMPI PUSH2 0x14A9 PUSH2 0x1F7A JUMP JUMPDEST JUMPDEST PUSH1 0x20 MUL PUSH1 0x20 ADD ADD DUP2 SWAP1 MSTORE POP DUP7 DUP3 PUSH1 0x2 DUP2 MLOAD DUP2 LT PUSH2 0x14CA JUMPI PUSH2 0x14C9 PUSH2 0x1F7A JUMP JUMPDEST JUMPDEST PUSH1 0x20 MUL PUSH1 0x20 ADD ADD DUP2 SWAP1 MSTORE POP DUP5 DUP3 PUSH1 0x3 DUP2 MLOAD DUP2 LT PUSH2 0x14EA JUMPI PUSH2 0x14E9 PUSH2 0x1F7A JUMP JUMPDEST JUMPDEST PUSH1 0x20 MUL PUSH1 0x20 ADD ADD DUP2 SWAP1 MSTORE POP DUP10 DUP2 PUSH1 0x0 DUP2 MLOAD DUP2 LT PUSH2 0x150A JUMPI PUSH2 0x1509 PUSH2 0x1F7A JUMP JUMPDEST JUMPDEST PUSH1 0x20 MUL PUSH1 0x20 ADD ADD DUP2 SWAP1 MSTORE POP DUP8 DUP2 PUSH1 0x1 DUP2 MLOAD DUP2 LT PUSH2 0x152A JUMPI PUSH2 0x1529 PUSH2 0x1F7A JUMP JUMPDEST JUMPDEST PUSH1 0x20 MUL PUSH1 0x20 ADD ADD DUP2 SWAP1 MSTORE POP DUP6 DUP2 PUSH1 0x2 DUP2 MLOAD DUP2 LT PUSH2 0x154A JUMPI PUSH2 0x1549 PUSH2 0x1F7A JUMP JUMPDEST JUMPDEST PUSH1 0x20 MUL PUSH1 0x20 ADD ADD DUP2 SWAP1 MSTORE POP DUP4 DUP2 PUSH1 0x3 DUP2 MLOAD DUP2 LT PUSH2 0x156A JUMPI PUSH2 0x1569 PUSH2 0x1F7A JUMP JUMPDEST JUMPDEST PUSH1 0x20 MUL PUSH1 0x20 ADD ADD DUP2 SWAP1 MSTORE POP PUSH2 0x157F DUP3 DUP3 PUSH2 0x158F JUMP JUMPDEST SWAP3 POP POP POP SWAP9 SWAP8 POP POP POP POP POP POP POP POP JUMP JUMPDEST PUSH1 0x0 DUP2 MLOAD DUP4 MLOAD EQ PUSH2 0x15D5 JUMPI PUSH1 0x40 MLOAD PUSH32 0x8C379A000000000000000000000000000000000000000000000000000000000 DUP2 MSTORE PUSH1 0x4 ADD PUSH2 0x15CC SWAP1 PUSH2 0x2559 JUMP JUMPDEST PUSH1 0x40 MLOAD DUP1 SWAP2 SUB SWAP1 REVERT JUMPDEST PUSH1 0x0 DUP4 MLOAD SWAP1 POP PUSH1 0x0 PUSH1 0x6 DUP3 PUSH2 0x15EA SWAP2 SWAP1 PUSH2 0x2579 JUMP JUMPDEST SWAP1 POP PUSH1 0x0 DUP2 PUSH8 0xFFFFFFFFFFFFFFFF DUP2 GT ISZERO PUSH2 0x1608 JUMPI PUSH2 0x1607 PUSH2 0x1B30 JUMP JUMPDEST JUMPDEST PUSH1 0x40 MLOAD SWAP1 DUP1 DUP3 MSTORE DUP1 PUSH1 0x20 MUL PUSH1 0x20 ADD DUP3 ADD PUSH1 0x40 MSTORE DUP1 ISZERO PUSH2 0x1636 JUMPI DUP2 PUSH1 0x20 ADD PUSH1 0x20 DUP3 MUL DUP1 CALLDATASIZE DUP4 CALLDATACOPY DUP1 DUP3 ADD SWAP2 POP POP SWAP1 POP JUMPDEST POP SWAP1 POP PUSH1 0x0 JUMPDEST DUP4 DUP2 LT ISZERO PUSH2 0x18BB JUMPI DUP7 DUP2 DUP2 MLOAD DUP2 LT PUSH2 0x1657 JUMPI PUSH2 0x1656 PUSH2 0x1F7A JUMP JUMPDEST JUMPDEST PUSH1 0x20 MUL PUSH1 0x20 ADD ADD MLOAD PUSH1 0x0 ADD MLOAD DUP3 PUSH1 0x0 PUSH1 0x6 DUP5 PUSH2 0x1673 SWAP2 SWAP1 PUSH2 0x2579 JUMP JUMPDEST PUSH2 0x167D SWAP2 SWAP1 PUSH2 0x2273 JUMP JUMPDEST DUP2 MLOAD DUP2 LT PUSH2 0x168E JUMPI PUSH2 0x168D PUSH2 0x1F7A JUMP JUMPDEST JUMPDEST PUSH1 0x20 MUL PUSH1 0x20 ADD ADD DUP2 DUP2 MSTORE POP POP DUP7 DUP2 DUP2 MLOAD DUP2 LT PUSH2 0x16AD JUMPI PUSH2 0x16AC PUSH2 0x1F7A JUMP JUMPDEST JUMPDEST PUSH1 0x20 MUL PUSH1 0x20 ADD ADD MLOAD PUSH1 0x20 ADD MLOAD DUP3 PUSH1 0x1 PUSH1 0x6 DUP5 PUSH2 0x16C9 SWAP2 SWAP1 PUSH2 0x2579 JUMP JUMPDEST PUSH2 0x16D3 SWAP2 SWAP1 PUSH2 0x2273 JUMP JUMPDEST DUP2 MLOAD DUP2 LT PUSH2 0x16E4 JUMPI PUSH2 0x16E3 PUSH2 0x1F7A JUMP JUMPDEST JUMPDEST PUSH1 0x20 MUL PUSH1 0x20 ADD ADD DUP2 DUP2 MSTORE POP POP DUP6 DUP2 DUP2 MLOAD DUP2 LT PUSH2 0x1703 JUMPI PUSH2 0x1702 PUSH2 0x1F7A JUMP JUMPDEST JUMPDEST PUSH1 0x20 MUL PUSH1 0x20 ADD ADD MLOAD PUSH1 0x0 ADD MLOAD PUSH1 0x0 PUSH1 0x2 DUP2 LT PUSH2 0x1722 JUMPI PUSH2 0x1721 PUSH2 0x1F7A JUMP JUMPDEST JUMPDEST PUSH1 0x20 MUL ADD MLOAD DUP3 PUSH1 0x2 PUSH1 0x6 DUP5 PUSH2 0x1737 SWAP2 SWAP1 PUSH2 0x2579 JUMP JUMPDEST PUSH2 0x1741 SWAP2 SWAP1 PUSH2 0x2273 JUMP JUMPDEST DUP2 MLOAD DUP2 LT PUSH2 0x1752 JUMPI PUSH2 0x1751 PUSH2 0x1F7A JUMP JUMPDEST JUMPDEST PUSH1 0x20 MUL PUSH1 0x20 ADD ADD DUP2 DUP2 MSTORE POP POP DUP6 DUP2 DUP2 MLOAD DUP2 LT PUSH2 0x1771 JUMPI PUSH2 0x1770 PUSH2 0x1F7A JUMP JUMPDEST JUMPDEST PUSH1 0x20 MUL PUSH1 0x20 ADD ADD MLOAD PUSH1 0x0 ADD MLOAD PUSH1 0x1 PUSH1 0x2 DUP2 LT PUSH2 0x1790 JUMPI PUSH2 0x178F PUSH2 0x1F7A JUMP JUMPDEST JUMPDEST PUSH1 0x20 MUL ADD MLOAD DUP3 PUSH1 0x3 PUSH1 0x6 DUP5 PUSH2 0x17A5 SWAP2 SWAP1 PUSH2 0x2579 JUMP JUMPDEST PUSH2 0x17AF SWAP2 SWAP1 PUSH2 0x2273 JUMP JUMPDEST DUP2 MLOAD DUP2 LT PUSH2 0x17C0 JUMPI PUSH2 0x17BF PUSH2 0x1F7A JUMP JUMPDEST JUMPDEST PUSH1 0x20 MUL PUSH1 0x20 ADD ADD DUP2 DUP2 MSTORE POP POP DUP6 DUP2 DUP2 MLOAD DUP2 LT PUSH2 0x17DF JUMPI PUSH2 0x17DE PUSH2 0x1F7A JUMP JUMPDEST JUMPDEST PUSH1 0x20 MUL PUSH1 0x20 ADD ADD MLOAD PUSH1 0x20 ADD MLOAD PUSH1 0x0 PUSH1 0x2 DUP2 LT PUSH2 0x17FE JUMPI PUSH2 0x17FD PUSH2 0x1F7A JUMP JUMPDEST JUMPDEST PUSH1 0x20 MUL ADD MLOAD DUP3 PUSH1 0x4 PUSH1 0x6 DUP5 PUSH2 0x1813 SWAP2 SWAP1 PUSH2 0x2579 JUMP JUMPDEST PUSH2 0x181D SWAP2 SWAP1 PUSH2 0x2273 JUMP JUMPDEST DUP2 MLOAD DUP2 LT PUSH2 0x182E JUMPI PUSH2 0x182D PUSH2 0x1F7A JUMP JUMPDEST JUMPDEST PUSH1 0x20 MUL PUSH1 0x20 ADD ADD DUP2 DUP2 MSTORE POP POP DUP6 DUP2 DUP2 MLOAD DUP2 LT PUSH2 0x184D JUMPI PUSH2 0x184C PUSH2 0x1F7A JUMP JUMPDEST JUMPDEST PUSH1 0x20 MUL PUSH1 0x20 ADD ADD MLOAD PUSH1 0x20 ADD MLOAD PUSH1 0x1 PUSH1 0x2 DUP2 LT PUSH2 0x186C JUMPI PUSH2 0x186B PUSH2 0x1F7A JUMP JUMPDEST JUMPDEST PUSH1 0x20 MUL ADD MLOAD DUP3 PUSH1 0x5 PUSH1 0x6 DUP5 PUSH2 0x1881 SWAP2 SWAP1 PUSH2 0x2579 JUMP JUMPDEST PUSH2 0x188B SWAP2 SWAP1 PUSH2 0x2273 JUMP JUMPDEST DUP2 MLOAD DUP2 LT PUSH2 0x189C JUMPI PUSH2 0x189B PUSH2 0x1F7A JUMP JUMPDEST JUMPDEST PUSH1 0x20 MUL PUSH1 0x20 ADD ADD DUP2 DUP2 MSTORE POP POP DUP1 DUP1 PUSH2 0x18B3 SWAP1 PUSH2 0x1FD8 JUMP JUMPDEST SWAP2 POP POP PUSH2 0x163C JUMP JUMPDEST POP PUSH2 0x18C4 PUSH2 0x1AC7 JUMP JUMPDEST PUSH1 0x0 PUSH1 0x20 DUP3 PUSH1 0x20 DUP7 MUL PUSH1 0x20 DUP7 ADD PUSH1 0x8 PUSH2 0x7D0 GAS SUB STATICCALL SWAP1 POP DUP1 PUSH1 0x0 DUP2 SUB PUSH2 0x18E6 JUMPI INVALID JUMPDEST POP DUP1 PUSH2 0x1927 JUMPI PUSH1 0x40 MLOAD PUSH32 0x8C379A000000000000000000000000000000000000000000000000000000000 DUP2 MSTORE PUSH1 0x4 ADD PUSH2 0x191E SWAP1 PUSH2 0x261F JUMP JUMPDEST PUSH1 0x40 MLOAD DUP1 SWAP2 SUB SWAP1 REVERT JUMPDEST PUSH1 0x0 DUP3 PUSH1 0x0 PUSH1 0x1 DUP2 LT PUSH2 0x193D JUMPI PUSH2 0x193C PUSH2 0x1F7A JUMP JUMPDEST JUMPDEST PUSH1 0x20 MUL ADD MLOAD EQ ISZERO SWAP6 POP POP POP POP POP POP SWAP3 SWAP2 POP POP JUMP JUMPDEST PUSH1 0x40 MLOAD DUP1 PUSH1 0x60 ADD PUSH1 0x40 MSTORE DUP1 PUSH2 0x1964 PUSH2 0x1A43 JUMP JUMPDEST DUP2 MSTORE PUSH1 0x20 ADD PUSH2 0x1971 PUSH2 0x1AA1 JUMP JUMPDEST DUP2 MSTORE PUSH1 0x20 ADD PUSH2 0x197E PUSH2 0x1A43 JUMP JUMPDEST DUP2 MSTORE POP SWAP1 JUMP JUMPDEST PUSH1 0x40 MLOAD DUP1 PUSH2 0x180 ADD PUSH1 0x40 MSTORE DUP1 PUSH1 0x0 DUP1 NOT AND DUP2 MSTORE PUSH1 0x20 ADD PUSH1 0x0 DUP1 NOT AND DUP2 MSTORE PUSH1 0x20 ADD PUSH1 0x0 DUP1 NOT AND DUP2 MSTORE PUSH1 0x20 ADD PUSH1 0x0 DUP2 MSTORE PUSH1 0x20 ADD PUSH1 0x0 DUP2 MSTORE PUSH1 0x20 ADD PUSH1 0x0 DUP2 MSTORE PUSH1 0x20 ADD PUSH1 0x0 DUP2 MSTORE PUSH1 0x20 ADD PUSH1 0x0 DUP1 NOT AND DUP2 MSTORE PUSH1 0x20 ADD PUSH1 0x0 DUP1 NOT AND DUP2 MSTORE PUSH1 0x20 ADD PUSH1 0x0 DUP1 NOT AND DUP2 MSTORE PUSH1 0x20 ADD PUSH1 0x0 DUP1 NOT AND DUP2 MSTORE PUSH1 0x20 ADD PUSH1 0x0 ISZERO ISZERO DUP2 MSTORE POP SWAP1 JUMP JUMPDEST PUSH1 0x40 MLOAD DUP1 PUSH1 0xA0 ADD PUSH1 0x40 MSTORE DUP1 PUSH2 0x1A0F PUSH2 0x1A43 JUMP JUMPDEST DUP2 MSTORE PUSH1 0x20 ADD PUSH2 0x1A1C PUSH2 0x1AA1 JUMP JUMPDEST DUP2 MSTORE PUSH1 0x20 ADD PUSH2 0x1A29 PUSH2 0x1AA1 JUMP JUMPDEST DUP2 MSTORE PUSH1 0x20 ADD PUSH2 0x1A36 PUSH2 0x1AA1 JUMP JUMPDEST DUP2 MSTORE PUSH1 0x20 ADD PUSH1 0x60 DUP2 MSTORE POP SWAP1 JUMP JUMPDEST PUSH1 0x40 MLOAD DUP1 PUSH1 0x40 ADD PUSH1 0x40 MSTORE DUP1 PUSH1 0x0 DUP2 MSTORE PUSH1 0x20 ADD PUSH1 0x0 DUP2 MSTORE POP SWAP1 JUMP JUMPDEST PUSH1 0x40 MLOAD DUP1 PUSH1 0x60 ADD PUSH1 0x40 MSTORE DUP1 PUSH1 0x3 SWAP1 PUSH1 0x20 DUP3 MUL DUP1 CALLDATASIZE DUP4 CALLDATACOPY DUP1 DUP3 ADD SWAP2 POP POP SWAP1 POP POP SWAP1 JUMP JUMPDEST PUSH1 0x40 MLOAD DUP1 PUSH1 0x80 ADD PUSH1 0x40 MSTORE DUP1 PUSH1 0x4 SWAP1 PUSH1 0x20 DUP3 MUL DUP1 CALLDATASIZE DUP4 CALLDATACOPY DUP1 DUP3 ADD SWAP2 POP POP SWAP1 POP POP SWAP1 JUMP JUMPDEST PUSH1 0x40 MLOAD DUP1 PUSH1 0x40 ADD PUSH1 0x40 MSTORE DUP1 PUSH2 0x1AB4 PUSH2 0x1AE9 JUMP JUMPDEST DUP2 MSTORE PUSH1 0x20 ADD PUSH2 0x1AC1 PUSH2 0x1AE9 JUMP JUMPDEST DUP2 MSTORE POP SWAP1 JUMP JUMPDEST PUSH1 0x40 MLOAD DUP1 PUSH1 0x20 ADD PUSH1 0x40 MSTORE DUP1 PUSH1 0x1 SWAP1 PUSH1 0x20 DUP3 MUL DUP1 CALLDATASIZE DUP4 CALLDATACOPY DUP1 DUP3 ADD SWAP2 POP POP SWAP1 POP POP SWAP1 JUMP JUMPDEST PUSH1 0x40 MLOAD DUP1 PUSH1 0x40 ADD PUSH1 0x40 MSTORE DUP1 PUSH1 0x2 SWAP1 PUSH1 0x20 DUP3 MUL DUP1 CALLDATASIZE DUP4 CALLDATACOPY DUP1 DUP3 ADD SWAP2 POP POP SWAP1 POP POP SWAP1 JUMP JUMPDEST PUSH1 0x0 PUSH1 0x40 MLOAD SWAP1 POP SWAP1 JUMP JUMPDEST PUSH1 0x0 DUP1 REVERT JUMPDEST PUSH1 0x0 DUP1 REVERT JUMPDEST PUSH1 0x0 PUSH1 0x1F NOT PUSH1 0x1F DUP4 ADD AND SWAP1 POP SWAP2 SWAP1 POP JUMP JUMPDEST PUSH32 0x4E487B7100000000000000000000000000000000000000000000000000000000 PUSH1 0x0 MSTORE PUSH1 0x41 PUSH1 0x4 MSTORE PUSH1 0x24 PUSH1 0x0 REVERT JUMPDEST PUSH2 0x1B68 DUP3 PUSH2 0x1B1F JUMP JUMPDEST DUP2 ADD DUP2 DUP2 LT PUSH8 0xFFFFFFFFFFFFFFFF DUP3 GT OR ISZERO PUSH2 0x1B87 JUMPI PUSH2 0x1B86 PUSH2 0x1B30 JUMP JUMPDEST JUMPDEST DUP1 PUSH1 0x40 MSTORE POP POP POP JUMP JUMPDEST PUSH1 0x0 PUSH2 0x1B9A PUSH2 0x1B0B JUMP JUMPDEST SWAP1 POP PUSH2 0x1BA6 DUP3 DUP3 PUSH2 0x1B5F JUMP JUMPDEST SWAP2 SWAP1 POP JUMP JUMPDEST PUSH1 0x0 PUSH8 0xFFFFFFFFFFFFFFFF DUP3 GT ISZERO PUSH2 0x1BC6 JUMPI PUSH2 0x1BC5 PUSH2 0x1B30 JUMP JUMPDEST JUMPDEST PUSH1 0x20 DUP3 MUL SWAP1 POP SWAP2 SWAP1 POP JUMP JUMPDEST PUSH1 0x0 DUP1 REVERT JUMPDEST PUSH1 0x0 DUP2 SWAP1 POP SWAP2 SWAP1 POP JUMP JUMPDEST PUSH2 0x1BE9 DUP2 PUSH2 0x1BD6 JUMP JUMPDEST DUP2 EQ PUSH2 0x1BF4 JUMPI PUSH1 0x0 DUP1 REVERT JUMPDEST POP JUMP JUMPDEST PUSH1 0x0 DUP2 CALLDATALOAD SWAP1 POP PUSH2 0x1C06 DUP2 PUSH2 0x1BE0 JUMP JUMPDEST SWAP3 SWAP2 POP POP JUMP JUMPDEST PUSH1 0x0 PUSH2 0x1C1F PUSH2 0x1C1A DUP5 PUSH2 0x1BAB JUMP JUMPDEST PUSH2 0x1B90 JUMP JUMPDEST SWAP1 POP DUP1 PUSH1 0x20 DUP5 MUL DUP4 ADD DUP6 DUP2 GT ISZERO PUSH2 0x1C39 JUMPI PUSH2 0x1C38 PUSH2 0x1BD1 JUMP JUMPDEST JUMPDEST DUP4 JUMPDEST DUP2 DUP2 LT ISZERO PUSH2 0x1C62 JUMPI DUP1 PUSH2 0x1C4E DUP9 DUP3 PUSH2 0x1BF7 JUMP JUMPDEST DUP5 MSTORE PUSH1 0x20 DUP5 ADD SWAP4 POP POP PUSH1 0x20 DUP2 ADD SWAP1 POP PUSH2 0x1C3B JUMP JUMPDEST POP POP POP SWAP4 SWAP3 POP POP POP JUMP JUMPDEST PUSH1 0x0 DUP3 PUSH1 0x1F DUP4 ADD SLT PUSH2 0x1C81 JUMPI PUSH2 0x1C80 PUSH2 0x1B1A JUMP JUMPDEST JUMPDEST PUSH1 0x2 PUSH2 0x1C8E DUP5 DUP3 DUP6 PUSH2 0x1C0C JUMP JUMPDEST SWAP2 POP POP SWAP3 SWAP2 POP POP JUMP JUMPDEST PUSH1 0x0 PUSH8 0xFFFFFFFFFFFFFFFF DUP3 GT ISZERO PUSH2 0x1CB2 JUMPI PUSH2 0x1CB1 PUSH2 0x1B30 JUMP JUMPDEST JUMPDEST PUSH1 0x20 DUP3 MUL SWAP1 POP SWAP2 SWAP1 POP JUMP JUMPDEST PUSH1 0x0 PUSH2 0x1CD0 PUSH2 0x1CCB DUP5 PUSH2 0x1C97 JUMP JUMPDEST PUSH2 0x1B90 JUMP JUMPDEST SWAP1 POP DUP1 PUSH1 0x40 DUP5 MUL DUP4 ADD DUP6 DUP2 GT ISZERO PUSH2 0x1CEA JUMPI PUSH2 0x1CE9 PUSH2 0x1BD1 JUMP JUMPDEST JUMPDEST DUP4 JUMPDEST DUP2 DUP2 LT ISZERO PUSH2 0x1D13 JUMPI DUP1 PUSH2 0x1CFF DUP9 DUP3 PUSH2 0x1C6C JUMP JUMPDEST DUP5 MSTORE PUSH1 0x20 DUP5 ADD SWAP4 POP POP PUSH1 0x40 DUP2 ADD SWAP1 POP PUSH2 0x1CEC JUMP JUMPDEST POP POP POP SWAP4 SWAP3 POP POP POP JUMP JUMPDEST PUSH1 0x0 DUP3 PUSH1 0x1F DUP4 ADD SLT PUSH2 0x1D32 JUMPI PUSH2 0x1D31 PUSH2 0x1B1A JUMP JUMPDEST JUMPDEST PUSH1 0x2 PUSH2 0x1D3F DUP5 DUP3 DUP6 PUSH2 0x1CBD JUMP JUMPDEST SWAP2 POP POP SWAP3 SWAP2 POP POP JUMP JUMPDEST PUSH1 0x0 DUP1 PUSH1 0x0 DUP1 PUSH2 0x140 DUP6 DUP8 SUB SLT ISZERO PUSH2 0x1D63 JUMPI PUSH2 0x1D62 PUSH2 0x1B15 JUMP JUMPDEST JUMPDEST PUSH1 0x0 PUSH2 0x1D71 DUP8 DUP3 DUP9 ADD PUSH2 0x1C6C JUMP JUMPDEST SWAP5 POP POP PUSH1 0x40 PUSH2 0x1D82 DUP8 DUP3 DUP9 ADD PUSH2 0x1D1D JUMP JUMPDEST SWAP4 POP POP PUSH1 0xC0 PUSH2 0x1D93 DUP8 DUP3 DUP9 ADD PUSH2 0x1C6C JUMP JUMPDEST SWAP3 POP POP PUSH2 0x100 PUSH2 0x1DA5 DUP8 DUP3 DUP9 ADD PUSH2 0x1C6C JUMP JUMPDEST SWAP2 POP POP SWAP3 SWAP6 SWAP2 SWAP5 POP SWAP3 POP JUMP JUMPDEST PUSH1 0x0 DUP2 ISZERO ISZERO SWAP1 POP SWAP2 SWAP1 POP JUMP JUMPDEST PUSH2 0x1DC6 DUP2 PUSH2 0x1DB1 JUMP JUMPDEST DUP3 MSTORE POP POP JUMP JUMPDEST PUSH1 0x0 PUSH1 0x20 DUP3 ADD SWAP1 POP PUSH2 0x1DE1 PUSH1 0x0 DUP4 ADD DUP5 PUSH2 0x1DBD JUMP JUMPDEST SWAP3 SWAP2 POP POP JUMP JUMPDEST PUSH1 0x0 DUP2 SWAP1 POP SWAP2 SWAP1 POP JUMP JUMPDEST PUSH2 0x1DFA DUP2 PUSH2 0x1DE7 JUMP JUMPDEST DUP2 EQ PUSH2 0x1E05 JUMPI PUSH1 0x0 DUP1 REVERT JUMPDEST POP JUMP JUMPDEST PUSH1 0x0 DUP2 CALLDATALOAD SWAP1 POP PUSH2 0x1E17 DUP2 PUSH2 0x1DF1 JUMP JUMPDEST SWAP3 SWAP2 POP POP JUMP JUMPDEST PUSH1 0x0 DUP1 PUSH1 0x0 DUP1 PUSH1 0x0 DUP1 PUSH1 0x0 DUP1 PUSH2 0x100 DUP10 DUP12 SUB SLT ISZERO PUSH2 0x1E3E JUMPI PUSH2 0x1E3D PUSH2 0x1B15 JUMP JUMPDEST JUMPDEST PUSH1 0x0 PUSH2 0x1E4C DUP12 DUP3 DUP13 ADD PUSH2 0x1E08 JUMP JUMPDEST SWAP9 POP POP PUSH1 0x20 PUSH2 0x1E5D DUP12 DUP3 DUP13 ADD PUSH2 0x1E08 JUMP JUMPDEST SWAP8 POP POP PUSH1 0x40 PUSH2 0x1E6E DUP12 DUP3 DUP13 ADD PUSH2 0x1BF7 JUMP JUMPDEST SWAP7 POP POP PUSH1 0x60 PUSH2 0x1E7F DUP12 DUP3 DUP13 ADD PUSH2 0x1BF7 JUMP JUMPDEST SWAP6 POP POP PUSH1 0x80 PUSH2 0x1E90 DUP12 DUP3 DUP13 ADD PUSH2 0x1E08 JUMP JUMPDEST SWAP5 POP POP PUSH1 0xA0 PUSH2 0x1EA1 DUP12 DUP3 DUP13 ADD PUSH2 0x1E08 JUMP JUMPDEST SWAP4 POP POP PUSH1 0xC0 PUSH2 0x1EB2 DUP12 DUP3 DUP13 ADD PUSH2 0x1E08 JUMP JUMPDEST SWAP3 POP POP PUSH1 0xE0 PUSH2 0x1EC3 DUP12 DUP3 DUP13 ADD PUSH2 0x1E08 JUMP JUMPDEST SWAP2 POP POP SWAP3 SWAP6 SWAP9 POP SWAP3 SWAP6 SWAP9 SWAP1 SWAP4 SWAP7 POP JUMP JUMPDEST PUSH1 0x0 DUP1 PUSH1 0x0 DUP1 PUSH1 0x0 DUP1 PUSH1 0x0 PUSH2 0x180 DUP9 DUP11 SUB SLT ISZERO PUSH2 0x1EF3 JUMPI PUSH2 0x1EF2 PUSH2 0x1B15 JUMP JUMPDEST JUMPDEST PUSH1 0x0 PUSH2 0x1F01 DUP11 DUP3 DUP12 ADD PUSH2 0x1C6C JUMP JUMPDEST SWAP8 POP POP PUSH1 0x40 PUSH2 0x1F12 DUP11 DUP3 DUP12 ADD PUSH2 0x1D1D JUMP JUMPDEST SWAP7 POP POP PUSH1 0xC0 PUSH2 0x1F23 DUP11 DUP3 DUP12 ADD PUSH2 0x1C6C JUMP JUMPDEST SWAP6 POP POP PUSH2 0x100 PUSH2 0x1F35 DUP11 DUP3 DUP12 ADD PUSH2 0x1E08 JUMP JUMPDEST SWAP5 POP POP PUSH2 0x120 PUSH2 0x1F47 DUP11 DUP3 DUP12 ADD PUSH2 0x1E08 JUMP JUMPDEST SWAP4 POP POP PUSH2 0x140 PUSH2 0x1F59 DUP11 DUP3 DUP12 ADD PUSH2 0x1BF7 JUMP JUMPDEST SWAP3 POP POP PUSH2 0x160 PUSH2 0x1F6B DUP11 DUP3 DUP12 ADD PUSH2 0x1BF7 JUMP JUMPDEST SWAP2 POP POP SWAP3 SWAP6 SWAP9 SWAP2 SWAP5 SWAP8 POP SWAP3 SWAP6 POP JUMP JUMPDEST PUSH32 0x4E487B7100000000000000000000000000000000000000000000000000000000 PUSH1 0x0 MSTORE PUSH1 0x32 PUSH1 0x4 MSTORE PUSH1 0x24 PUSH1 0x0 REVERT JUMPDEST PUSH32 0x4E487B7100000000000000000000000000000000000000000000000000000000 PUSH1 0x0 MSTORE PUSH1 0x11 PUSH1 0x4 MSTORE PUSH1 0x24 PUSH1 0x0 REVERT JUMPDEST PUSH1 0x0 PUSH2 0x1FE3 DUP3 PUSH2 0x1BD6 JUMP JUMPDEST SWAP2 POP PUSH32 0xFFFFFFFFFFFFFFFFFFFFFFFFFFFFFFFFFFFFFFFFFFFFFFFFFFFFFFFFFFFFFFFF DUP3 SUB PUSH2 0x2015 JUMPI PUSH2 0x2014 PUSH2 0x1FA9 JUMP JUMPDEST JUMPDEST PUSH1 0x1 DUP3 ADD SWAP1 POP SWAP2 SWAP1 POP JUMP JUMPDEST PUSH1 0x0 DUP3 DUP3 MSTORE PUSH1 0x20 DUP3 ADD SWAP1 POP SWAP3 SWAP2 POP POP JUMP JUMPDEST PUSH32 0x536869706D656E7420616C726561647920726567697374657265640000000000 PUSH1 0x0 DUP3 ADD MSTORE POP JUMP JUMPDEST PUSH1 0x0 PUSH2 0x2067 PUSH1 0x1B DUP4 PUSH2 0x2020 JUMP JUMPDEST SWAP2 POP PUSH2 0x2072 DUP3 PUSH2 0x2031 JUMP JUMPDEST PUSH1 0x20 DUP3 ADD SWAP1 POP SWAP2 SWAP1 POP JUMP JUMPDEST PUSH1 0x0 PUSH1 0x20 DUP3 ADD SWAP1 POP DUP2 DUP2 SUB PUSH1 0x0 DUP4 ADD MSTORE PUSH2 0x2096 DUP2 PUSH2 0x205A JUMP JUMPDEST SWAP1 POP SWAP2 SWAP1 POP JUMP JUMPDEST PUSH32 0x536869706D656E74206E6F742072656769737465726564000000000000000000 PUSH1 0x0 DUP3 ADD MSTORE POP JUMP JUMPDEST PUSH1 0x0 PUSH2 0x20D3 PUSH1 0x17 DUP4 PUSH2 0x2020 JUMP JUMPDEST SWAP2 POP PUSH2 0x20DE DUP3 PUSH2 0x209D JUMP JUMPDEST PUSH1 0x20 DUP3 ADD SWAP1 POP SWAP2 SWAP1 POP JUMP JUMPDEST PUSH1 0x0 PUSH1 0x20 DUP3 ADD SWAP1 POP DUP2 DUP2 SUB PUSH1 0x0 DUP4 ADD MSTORE PUSH2 0x2102 DUP2 PUSH2 0x20C6 JUMP JUMPDEST SWAP1 POP SWAP2 SWAP1 POP JUMP JUMPDEST PUSH32 0x536869706D656E7420697320616C726561647920636F6E6669726D6564000000 PUSH1 0x0 DUP3 ADD MSTORE POP JUMP JUMPDEST PUSH1 0x0 PUSH2 0x213F PUSH1 0x1D DUP4 PUSH2 0x2020 JUMP JUMPDEST SWAP2 POP PUSH2 0x214A DUP3 PUSH2 0x2109 JUMP JUMPDEST PUSH1 0x20 DUP3 ADD SWAP1 POP SWAP2 SWAP1 POP JUMP JUMPDEST PUSH1 0x0 PUSH1 0x20 DUP3 ADD SWAP1 POP DUP2 DUP2 SUB PUSH1 0x0 DUP4 ADD MSTORE PUSH2 0x216E DUP2 PUSH2 0x2132 JUMP JUMPDEST SWAP1 POP SWAP2 SWAP1 POP JUMP JUMPDEST PUSH32 0x53656E7420736869706D656E74206461746120697320616C7265616479206164 PUSH1 0x0 DUP3 ADD MSTORE PUSH32 0x6465640000000000000000000000000000000000000000000000000000000000 PUSH1 0x20 DUP3 ADD MSTORE POP JUMP JUMPDEST PUSH1 0x0 PUSH2 0x21D1 PUSH1 0x23 DUP4 PUSH2 0x2020 JUMP JUMPDEST SWAP2 POP PUSH2 0x21DC DUP3 PUSH2 0x2175 JUMP JUMPDEST PUSH1 0x40 DUP3 ADD SWAP1 POP SWAP2 SWAP1 POP JUMP JUMPDEST PUSH1 0x0 PUSH1 0x20 DUP3 ADD SWAP1 POP DUP2 DUP2 SUB PUSH1 0x0 DUP4 ADD MSTORE PUSH2 0x2200 DUP2 PUSH2 0x21C4 JUMP JUMPDEST SWAP1 POP SWAP2 SWAP1 POP JUMP JUMPDEST PUSH32 0x496E76616C69642070726F6F6600000000000000000000000000000000000000 PUSH1 0x0 DUP3 ADD MSTORE POP JUMP JUMPDEST PUSH1 0x0 PUSH2 0x223D PUSH1 0xD DUP4 PUSH2 0x2020 JUMP JUMPDEST SWAP2 POP PUSH2 0x2248 DUP3 PUSH2 0x2207 JUMP JUMPDEST PUSH1 0x20 DUP3 ADD SWAP1 POP SWAP2 SWAP1 POP JUMP JUMPDEST PUSH1 0x0 PUSH1 0x20 DUP3 ADD SWAP1 POP DUP2 DUP2 SUB PUSH1 0x0 DUP4 ADD MSTORE PUSH2 0x226C DUP2 PUSH2 0x2230 JUMP JUMPDEST SWAP1 POP SWAP2 SWAP1 POP JUMP JUMPDEST PUSH1 0x0 PUSH2 0x227E DUP3 PUSH2 0x1BD6 JUMP JUMPDEST SWAP2 POP PUSH2 0x2289 DUP4 PUSH2 0x1BD6 JUMP JUMPDEST SWAP3 POP DUP3 PUSH32 0xFFFFFFFFFFFFFFFFFFFFFFFFFFFFFFFFFFFFFFFFFFFFFFFFFFFFFFFFFFFFFFFF SUB DUP3 GT ISZERO PUSH2 0x22BE JUMPI PUSH2 0x22BD PUSH2 0x1FA9 JUMP JUMPDEST JUMPDEST DUP3 DUP3 ADD SWAP1 POP SWAP3 SWAP2 POP POP JUMP JUMPDEST PUSH32 0x76657269666965722D6261642D696E7075740000000000000000000000000000 PUSH1 0x0 DUP3 ADD MSTORE POP JUMP JUMPDEST PUSH1 0x0 PUSH2 0x22FF PUSH1 0x12 DUP4 PUSH2 0x2020 JUMP JUMPDEST SWAP2 POP PUSH2 0x230A DUP3 PUSH2 0x22C9 JUMP JUMPDEST PUSH1 0x20 DUP3 ADD SWAP1 POP SWAP2 SWAP1 POP JUMP JUMPDEST PUSH1 0x0 PUSH1 0x20 DUP3 ADD SWAP1 POP DUP2 DUP2 SUB PUSH1 0x0 DUP4 ADD MSTORE PUSH2 0x232E DUP2 PUSH2 0x22F2 JUMP JUMPDEST SWAP1 POP SWAP2 SWAP1 POP JUMP JUMPDEST PUSH32 0x76657269666965722D6774652D736E61726B2D7363616C61722D6669656C6400 PUSH1 0x0 DUP3 ADD MSTORE POP JUMP JUMPDEST PUSH1 0x0 PUSH2 0x236B PUSH1 0x1F DUP4 PUSH2 0x2020 JUMP JUMPDEST SWAP2 POP PUSH2 0x2376 DUP3 PUSH2 0x2335 JUMP JUMPDEST PUSH1 0x20 DUP3 ADD SWAP1 POP SWAP2 SWAP1 POP JUMP JUMPDEST PUSH1 0x0 PUSH1 0x20 DUP3 ADD SWAP1 POP DUP2 DUP2 SUB PUSH1 0x0 DUP4 ADD MSTORE PUSH2 0x239A DUP2 PUSH2 0x235E JUMP JUMPDEST SWAP1 POP SWAP2 SWAP1 POP JUMP JUMPDEST PUSH32 0x70616972696E672D6D756C2D6661696C65640000000000000000000000000000 PUSH1 0x0 DUP3 ADD MSTORE POP JUMP JUMPDEST PUSH1 0x0 PUSH2 0x23D7 PUSH1 0x12 DUP4 PUSH2 0x2020 JUMP JUMPDEST SWAP2 POP PUSH2 0x23E2 DUP3 PUSH2 0x23A1 JUMP JUMPDEST PUSH1 0x20 DUP3 ADD SWAP1 POP SWAP2 SWAP1 POP JUMP JUMPDEST PUSH1 0x0 PUSH1 0x20 DUP3 ADD SWAP1 POP DUP2 DUP2 SUB PUSH1 0x0 DUP4 ADD MSTORE PUSH2 0x2406 DUP2 PUSH2 0x23CA JUMP JUMPDEST SWAP1 POP SWAP2 SWAP1 POP JUMP JUMPDEST PUSH32 0x70616972696E672D6164642D6661696C65640000000000000000000000000000 PUSH1 0x0 DUP3 ADD MSTORE POP JUMP JUMPDEST PUSH1 0x0 PUSH2 0x2443 PUSH1 0x12 DUP4 PUSH2 0x2020 JUMP JUMPDEST SWAP2 POP PUSH2 0x244E DUP3 PUSH2 0x240D JUMP JUMPDEST PUSH1 0x20 DUP3 ADD SWAP1 POP SWAP2 SWAP1 POP JUMP JUMPDEST PUSH1 0x0 PUSH1 0x20 DUP3 ADD SWAP1 POP DUP2 DUP2 SUB PUSH1 0x0 DUP4 ADD MSTORE PUSH2 0x2472 DUP2 PUSH2 0x2436 JUMP JUMPDEST SWAP1 POP SWAP2 SWAP1 POP JUMP JUMPDEST PUSH32 0x4E487B7100000000000000000000000000000000000000000000000000000000 PUSH1 0x0 MSTORE PUSH1 0x12 PUSH1 0x4 MSTORE PUSH1 0x24 PUSH1 0x0 REVERT JUMPDEST PUSH1 0x0 PUSH2 0x24B3 DUP3 PUSH2 0x1BD6 JUMP JUMPDEST SWAP2 POP PUSH2 0x24BE DUP4 PUSH2 0x1BD6 JUMP JUMPDEST SWAP3 POP DUP3 PUSH2 0x24CE JUMPI PUSH2 0x24CD PUSH2 0x2479 JUMP JUMPDEST JUMPDEST DUP3 DUP3 MOD SWAP1 POP SWAP3 SWAP2 POP POP JUMP JUMPDEST PUSH1 0x0 PUSH2 0x24E4 DUP3 PUSH2 0x1BD6 JUMP JUMPDEST SWAP2 POP PUSH2 0x24EF DUP4 PUSH2 0x1BD6 JUMP JUMPDEST SWAP3 POP DUP3 DUP3 LT ISZERO PUSH2 0x2502 JUMPI PUSH2 0x2501 PUSH2 0x1FA9 JUMP JUMPDEST JUMPDEST DUP3 DUP3 SUB SWAP1 POP SWAP3 SWAP2 POP POP JUMP JUMPDEST PUSH32 0x70616972696E672D6C656E677468732D6661696C656400000000000000000000 PUSH1 0x0 DUP3 ADD MSTORE POP JUMP JUMPDEST PUSH1 0x0 PUSH2 0x2543 PUSH1 0x16 DUP4 PUSH2 0x2020 JUMP JUMPDEST SWAP2 POP PUSH2 0x254E DUP3 PUSH2 0x250D JUMP JUMPDEST PUSH1 0x20 DUP3 ADD SWAP1 POP SWAP2 SWAP1 POP JUMP JUMPDEST PUSH1 0x0 PUSH1 0x20 DUP3 ADD SWAP1 POP DUP2 DUP2 SUB PUSH1 0x0 DUP4 ADD MSTORE PUSH2 0x2572 DUP2 PUSH2 0x2536 JUMP JUMPDEST SWAP1 POP SWAP2 SWAP1 POP JUMP JUMPDEST PUSH1 0x0 PUSH2 0x2584 DUP3 PUSH2 0x1BD6 JUMP JUMPDEST SWAP2 POP PUSH2 0x258F DUP4 PUSH2 0x1BD6 JUMP JUMPDEST SWAP3 POP DUP2 PUSH32 0xFFFFFFFFFFFFFFFFFFFFFFFFFFFFFFFFFFFFFFFFFFFFFFFFFFFFFFFFFFFFFFFF DIV DUP4 GT DUP3 ISZERO ISZERO AND ISZERO PUSH2 0x25C8 JUMPI PUSH2 0x25C7 PUSH2 0x1FA9 JUMP JUMPDEST JUMPDEST DUP3 DUP3 MUL SWAP1 POP SWAP3 SWAP2 POP POP JUMP JUMPDEST PUSH32 0x70616972696E672D6F70636F64652D6661696C65640000000000000000000000 PUSH1 0x0 DUP3 ADD MSTORE POP JUMP JUMPDEST PUSH1 0x0 PUSH2 0x2609 PUSH1 0x15 DUP4 PUSH2 0x2020 JUMP JUMPDEST SWAP2 POP PUSH2 0x2614 DUP3 PUSH2 0x25D3 JUMP JUMPDEST PUSH1 0x20 DUP3 ADD SWAP1 POP SWAP2 SWAP1 POP JUMP JUMPDEST PUSH1 0x0 PUSH1 0x20 DUP3 ADD SWAP1 POP DUP2 DUP2 SUB PUSH1 0x0 DUP4 ADD MSTORE PUSH2 0x2638 DUP2 PUSH2 0x25FC JUMP JUMPDEST SWAP1 POP SWAP2 SWAP1 POP JUMP INVALID LOG2 PUSH5 0x6970667358 0x22 SLT KECCAK256 SWAP11 0x25 0xDE 0xB5 LOG3 0xDB DUP5 EXTCODECOPY MOD 0x4C CALLER CALLDATASIZE MSIZE LOG3 0x26 0xE2 0xE CALLER 0xE3 0xEB 0x27 0xBA 0xC1 LOG3 GASPRICE DUP13 ADD MUL 0xD4 ADDRESS EXTCODEHASH 0x1E PUSH5 0x736F6C6343 STOP ADDMOD 0xD STOP CALLER "
        },
        "methodIdentifiers": {
          "confirmReceivedShipment(uint256[2],uint256[2][2],uint256[2],bytes32,bytes32,uint256,uint256)": "d3c12bc3",
          "confirmSentShipment(uint256[2],uint256[2][2],uint256[2],bytes32,bytes32,uint256,uint256)": "4d49694e",
          "registerReceivedShipment(bytes32,bytes32,uint256,uint256,bytes32,bytes32,bytes32,bytes32)": "2bccbe46",
          "registerSentShipment(bytes32,bytes32,uint256,uint256,bytes32,bytes32,bytes32,bytes32)": "ed4c975d",
          "verifyMerkleProof(uint256[2],uint256[2][2],uint256[2],uint256[2])": "246732b3"
        }
      }
    }
  }
}