{
  "_format": "hh-sol-artifact-1",
  "contractName": "Fibers",
  "sourceName": "contracts/fibers.sol",
  "abi": [
    {
      "anonymous": false,
      "inputs": [
        {
          "indexed": false,
          "internalType": "bytes32",
          "name": "shipmentLabelHash",
          "type": "bytes32"
        }
      ],
      "name": "ShipmentConfirmed",
      "type": "event"
    },
    {
      "anonymous": false,
      "inputs": [
        {
          "indexed": false,
          "internalType": "bytes32",
          "name": "shipmentLabelHash",
          "type": "bytes32"
        },
        {
          "indexed": false,
          "internalType": "bytes32",
          "name": "senderDepartment",
          "type": "bytes32"
        },
        {
          "indexed": false,
          "internalType": "bytes32",
          "name": "recipientDepartment",
          "type": "bytes32"
        }
      ],
      "name": "ShipmentRegistered",
      "type": "event"
    },
    {
      "inputs": [
        {
          "internalType": "uint256[2]",
          "name": "a",
          "type": "uint256[2]"
        },
        {
          "internalType": "uint256[2][2]",
          "name": "b",
          "type": "uint256[2][2]"
        },
        {
          "internalType": "uint256[2]",
          "name": "c",
          "type": "uint256[2]"
        },
        {
          "internalType": "bytes32",
          "name": "shipmentLabelHash",
          "type": "bytes32"
        },
        {
          "internalType": "bytes32",
          "name": "receivedShipmentHash",
          "type": "bytes32"
        },
        {
          "internalType": "uint256",
          "name": "receivedMass",
          "type": "uint256"
        },
        {
          "internalType": "uint256",
          "name": "receivedDate",
          "type": "uint256"
        }
      ],
      "name": "confirmReceivedShipment",
      "outputs": [],
      "stateMutability": "nonpayable",
      "type": "function"
    },
    {
      "inputs": [
        {
          "internalType": "uint256[2]",
          "name": "a",
          "type": "uint256[2]"
        },
        {
          "internalType": "uint256[2][2]",
          "name": "b",
          "type": "uint256[2][2]"
        },
        {
          "internalType": "uint256[2]",
          "name": "c",
          "type": "uint256[2]"
        },
        {
          "internalType": "bytes32",
          "name": "shipmentLabelHash",
          "type": "bytes32"
        },
        {
          "internalType": "bytes32",
          "name": "sentShipmentHash",
          "type": "bytes32"
        },
        {
          "internalType": "uint256",
          "name": "sentMass",
          "type": "uint256"
        },
        {
          "internalType": "uint256",
          "name": "sentDate",
          "type": "uint256"
        }
      ],
      "name": "confirmSentShipment",
      "outputs": [],
      "stateMutability": "nonpayable",
      "type": "function"
    },
    {
      "inputs": [
        {
          "internalType": "bytes32",
          "name": "shipmentLabelHash",
          "type": "bytes32"
        }
      ],
      "name": "getShipment",
      "outputs": [
        {
          "components": [
            {
              "internalType": "bytes32",
              "name": "shipmentLabelHash",
              "type": "bytes32"
            },
            {
              "internalType": "bytes32",
              "name": "sentShipmentHash",
              "type": "bytes32"
            },
            {
              "internalType": "bytes32",
              "name": "receivedShipmentHash",
              "type": "bytes32"
            },
            {
              "internalType": "uint256",
              "name": "sentMass",
              "type": "uint256"
            },
            {
              "internalType": "uint256",
              "name": "receivedMass",
              "type": "uint256"
            },
            {
              "internalType": "uint256",
              "name": "sentDate",
              "type": "uint256"
            },
            {
              "internalType": "uint256",
              "name": "receivedDate",
              "type": "uint256"
            },
            {
              "internalType": "bytes32",
              "name": "senderCompany",
              "type": "bytes32"
            },
            {
              "internalType": "bytes32",
              "name": "senderDepartment",
              "type": "bytes32"
            },
            {
              "internalType": "bytes32",
              "name": "recipientCompany",
              "type": "bytes32"
            },
            {
              "internalType": "bytes32",
              "name": "recipientDepartment",
              "type": "bytes32"
            },
            {
              "internalType": "bytes32",
              "name": "shipmentCreator",
              "type": "bytes32"
            },
            {
              "internalType": "bool",
              "name": "isConfirmed",
              "type": "bool"
            }
          ],
          "internalType": "struct Fibers.Shipment",
          "name": "s",
          "type": "tuple"
        }
      ],
      "stateMutability": "view",
      "type": "function"
    },
    {
      "inputs": [
        {
          "internalType": "bytes32",
          "name": "shipmentLabelHash",
          "type": "bytes32"
        },
        {
          "internalType": "bytes32",
          "name": "receivedShipmentHash",
          "type": "bytes32"
        },
        {
          "internalType": "uint256",
          "name": "receivedMass",
          "type": "uint256"
        },
        {
          "internalType": "uint256",
          "name": "receivedDate",
          "type": "uint256"
        },
        {
          "internalType": "bytes32",
          "name": "senderCompany",
          "type": "bytes32"
        },
        {
          "internalType": "bytes32",
          "name": "senderDepartment",
          "type": "bytes32"
        },
        {
          "internalType": "bytes32",
          "name": "recipientCompany",
          "type": "bytes32"
        },
        {
          "internalType": "bytes32",
          "name": "recipientDepartment",
          "type": "bytes32"
        }
      ],
      "name": "registerReceivedShipment",
      "outputs": [],
      "stateMutability": "nonpayable",
      "type": "function"
    },
    {
      "inputs": [
        {
          "internalType": "bytes32",
          "name": "shipmentLabelHash",
          "type": "bytes32"
        },
        {
          "internalType": "bytes32",
          "name": "sentShipmentHash",
          "type": "bytes32"
        },
        {
          "internalType": "uint256",
          "name": "sentMass",
          "type": "uint256"
        },
        {
          "internalType": "uint256",
          "name": "sentDate",
          "type": "uint256"
        },
        {
          "internalType": "bytes32",
          "name": "senderCompany",
          "type": "bytes32"
        },
        {
          "internalType": "bytes32",
          "name": "senderDepartment",
          "type": "bytes32"
        },
        {
          "internalType": "bytes32",
          "name": "recipientCompany",
          "type": "bytes32"
        },
        {
          "internalType": "bytes32",
          "name": "recipientDepartment",
          "type": "bytes32"
        }
      ],
      "name": "registerSentShipment",
      "outputs": [],
      "stateMutability": "nonpayable",
      "type": "function"
    },
    {
      "inputs": [
        {
          "internalType": "uint256[2]",
          "name": "a",
          "type": "uint256[2]"
        },
        {
          "internalType": "uint256[2][2]",
          "name": "b",
          "type": "uint256[2][2]"
        },
        {
          "internalType": "uint256[2]",
          "name": "c",
          "type": "uint256[2]"
        },
        {
          "internalType": "uint256[2]",
          "name": "input",
          "type": "uint256[2]"
        }
      ],
      "name": "verifyProof",
      "outputs": [
        {
          "internalType": "bool",
          "name": "r",
          "type": "bool"
        }
      ],
      "stateMutability": "view",
      "type": "function"
    }
  ],
  "bytecode": "0x608060405234801561001057600080fd5b506129f4806100206000396000f3fe608060405234801561001057600080fd5b50600436106100625760003560e01c80632bccbe46146100675780634d49694e1461008357806358cb7c411461009f578063d3c12bc3146100cf578063ed4c975d146100eb578063f5c9d69e14610107575b600080fd5b610081600480360381019061007c9190611d23565b610137565b005b61009d60048036038101906100989190611fd1565b6102f0565b005b6100b960048036038101906100b49190612078565b610535565b6040516100c691906121e9565b60405180910390f35b6100e960048036038101906100e49190611fd1565b6105f5565b005b61010560048036038101906101009190611d23565b61083a565b005b610121600480360381019061011c9190612205565b6109f3565b60405161012e919061227d565b60405180910390f35b6000801b6000808a81526020019081526020016000206000015414610191576040517f08c379a0000000000000000000000000000000000000000000000000000000008152600401610188906122f5565b60405180910390fd5b610199611ae4565b888160000181815250508781604001818152505086816080018181525050858160c0018181525050848160e00181815250508381610100018181525050828161012001818152505081816101400181815250508181610160018181525050806000808b8152602001908152602001600020600082015181600001556020820151816001015560408201518160020155606082015181600301556080820151816004015560a0820151816005015560c0820151816006015560e082015181600701556101008201518160080155610120820151816009015561014082015181600a015561016082015181600b015561018082015181600c0160006101000a81548160ff0219169083151502179055509050507fb058793d038b81e2e09e747d297034346a05bc2fe388cc3ee8666d65e83e41588985846040516102dd93929190612324565b60405180910390a1505050505050505050565b6000801b600080868152602001908152602001600020600001540361034a576040517f08c379a0000000000000000000000000000000000000000000000000000000008152600401610341906123a7565b60405180910390fd5b60001515600080868152602001908152602001600020600c0160009054906101000a900460ff161515146103b3576040517f08c379a00000000000000000000000000000000000000000000000000000000081526004016103aa90612413565b60405180910390fd5b6000801b600080868152602001908152602001600020600101541461040d576040517f08c379a0000000000000000000000000000000000000000000000000000000008152600401610404906124a5565b60405180910390fd5b6001151561043788888860405180604001604052808a60001c81526020018960001c8152506109f3565b151514610479576040517f08c379a000000000000000000000000000000000000000000000000000000000815260040161047090612511565b60405180910390fd5b8260008086815260200190815260200160002060010181905550816000808681526020019081526020016000206003018190555080600080868152602001908152602001600020600501819055506001600080868152602001908152602001600020600c0160006101000a81548160ff0219169083151502179055507f025ddaf9272fb0d3ffccf99058ffec2b4a6bfb03dd75d149d689d7ee6f87b0fd846040516105249190612531565b60405180910390a150505050505050565b61053d611ae4565b600080838152602001908152602001600020604051806101a001604052908160008201548152602001600182015481526020016002820154815260200160038201548152602001600482015481526020016005820154815260200160068201548152602001600782015481526020016008820154815260200160098201548152602001600a8201548152602001600b8201548152602001600c820160009054906101000a900460ff1615151515815250509050919050565b6000801b600080868152602001908152602001600020600001540361064f576040517f08c379a0000000000000000000000000000000000000000000000000000000008152600401610646906123a7565b60405180910390fd5b60001515600080868152602001908152602001600020600c0160009054906101000a900460ff161515146106b8576040517f08c379a00000000000000000000000000000000000000000000000000000000081526004016106af90612413565b60405180910390fd5b6000801b6000808681526020019081526020016000206002015414610712576040517f08c379a0000000000000000000000000000000000000000000000000000000008152600401610709906124a5565b60405180910390fd5b6001151561073c88888860405180604001604052808a60001c81526020018960001c8152506109f3565b15151461077e576040517f08c379a000000000000000000000000000000000000000000000000000000000815260040161077590612511565b60405180910390fd5b8260008086815260200190815260200160002060020181905550816000808681526020019081526020016000206004018190555080600080868152602001908152602001600020600601819055506001600080868152602001908152602001600020600c0160006101000a81548160ff0219169083151502179055507f025ddaf9272fb0d3ffccf99058ffec2b4a6bfb03dd75d149d689d7ee6f87b0fd846040516108299190612531565b60405180910390a150505050505050565b6000801b6000808a81526020019081526020016000206000015414610894576040517f08c379a000000000000000000000000000000000000000000000000000000000815260040161088b906122f5565b60405180910390fd5b61089c611ae4565b888160000181815250508781602001818152505086816060018181525050858160a0018181525050848160e00181815250508381610100018181525050828161012001818152505081816101400181815250508381610160018181525050806000808b8152602001908152602001600020600082015181600001556020820151816001015560408201518160020155606082015181600301556080820151816004015560a0820151816005015560c0820151816006015560e082015181600701556101008201518160080155610120820151816009015561014082015181600a015561016082015181600b015561018082015181600c0160006101000a81548160ff0219169083151502179055509050507fb058793d038b81e2e09e747d297034346a05bc2fe388cc3ee8666d65e83e41588985846040516109e093929190612324565b60405180910390a1505050505050505050565b60006109fd611b66565b604051806040016040528087600060028110610a1c57610a1b61254c565b5b6020020151815260200187600160028110610a3a57610a3961254c565b5b602002015181525081600001819052506040518060400160405280604051806040016040528088600060028110610a7457610a7361254c565b5b6020020151600060028110610a8c57610a8b61254c565b5b6020020151815260200188600060028110610aaa57610aa961254c565b5b6020020151600160028110610ac257610ac161254c565b5b60200201518152508152602001604051806040016040528088600160028110610aee57610aed61254c565b5b6020020151600060028110610b0657610b0561254c565b5b6020020151815260200188600160028110610b2457610b2361254c565b5b6020020151600160028110610b3c57610b3b61254c565b5b60200201518152508152508160200181905250604051806040016040528085600060028110610b6e57610b6d61254c565b5b6020020151815260200185600160028110610b8c57610b8b61254c565b5b602002015181525081604001819052506000600267ffffffffffffffff811115610bb957610bb8611def565b5b604051908082528060200260200182016040528015610be75781602001602082028036833780820191505090505b50905060005b6002811015610c4057848160028110610c0957610c0861254c565b5b6020020151828281518110610c2157610c2061254c565b5b6020026020010181815250508080610c38906125aa565b915050610bed565b506000610c4d8284610c6c565b03610c5d57600192505050610c64565b6000925050505b949350505050565b6000807f30644e72e131a029b85045b68181585d2833e84879b9709143e1f593f000000190506000610c9c610e5f565b905080608001515160018651610cb291906125f2565b14610cf2576040517f08c379a0000000000000000000000000000000000000000000000000000000008152600401610ce990612694565b60405180910390fd5b60006040518060400160405280600081526020016000815250905060005b8651811015610de15783878281518110610d2d57610d2c61254c565b5b602002602001015110610d75576040517f08c379a0000000000000000000000000000000000000000000000000000000008152600401610d6c90612700565b60405180910390fd5b610dcc82610dc78560800151600185610d8e91906125f2565b81518110610d9f57610d9e61254c565b5b60200260200101518a8581518110610dba57610db961254c565b5b60200260200101516112da565b6113b2565b91508080610dd9906125aa565b915050610d10565b50610e0b818360800151600081518110610dfe57610dfd61254c565b5b60200260200101516113b2565b9050610e41610e1d86600001516114b0565b8660200151846000015185602001518587604001518b604001518960600151611555565b610e515760019350505050610e59565b600093505050505b92915050565b610e67611b99565b60405180604001604052807f2d4d9aa7e302d9df41749d5507949d05dbea33fbb16c643b22f599a2be6df2e281526020017f14bedd503c37ceb061d8ec60209fe345ce89830a19230301f076caff004d19268152508160000181905250604051806040016040528060405180604001604052807f0967032fcbf776d1afc985f88877f182d38480a653f2decaa9794cbc3bf3060c81526020017f0e187847ad4c798374d0d6732bf501847dd68bc0e071241e0213bc7fc13db7ab815250815260200160405180604001604052807f304cfbd1e08a704a99f5e847d93f8c3caafddec46b7a0d379da69a4d112346a781526020017f1739c1b1a457a8c7313123d24d2f9192f896b7c63eea05a9d57f06547ad0cec88152508152508160200181905250604051806040016040528060405180604001604052807f198e9393920d483a7260bfb731fb5d25f1aa493335a9e71297e485b7aef312c281526020017f1800deef121f1e76426a00665e5c4479674322d4f75edadd46debd5cd992f6ed815250815260200160405180604001604052807f090689d0585ff075ec9e99ad690c3395bc4b313370b38ef355acdadcd122975b81526020017f12c85ea5db8c6deb4aab71808dcb408fe3d1e7690c43d37b4ce6cc0166fa7daa8152508152508160400181905250604051806040016040528060405180604001604052807f2f18b0aecf85d2c5a891c57a53bd212ec667e91f11e83f31a88004ea8f2a30d781526020017f2664edc7f6aa80df0db615a18d803a1f45ff701de24ce4322c1ad711b0a1e204815250815260200160405180604001604052807f25c42cf0eb3abaa866391ba97e528dd3f70dd92b2c2f16460c184f96d62d400881526020017f2c02f23949fb0e18c3a55a09277b0f9f1507ed9b51173743a310c2b23696ffdb8152508152508160600181905250600367ffffffffffffffff81111561112e5761112d611def565b5b60405190808252806020026020018201604052801561116757816020015b611154611be0565b81526020019060019003908161114c5790505b50816080018190525060405180604001604052807f174da0e6de7e99bd682b721c1dbb67649ca85f599348c3242283f1125faf43ce81526020017f2c4f882b45472ded04fcbec8cc3e6a687d72ba3bc10371785e988a38b907d77f81525081608001516000815181106111dd576111dc61254c565b5b602002602001018190525060405180604001604052807f1538889dbabc4b53eb5fa317f807aa238f11380e9a35806edf11b31cdf7a957781526020017e6782ecf67f73ec5df8474948a8ebf29dd220453bf231e70c0d69ae559fe14c81525081608001516001815181106112545761125361254c565b5b602002602001018190525060405180604001604052807f02dd2cc3bcf0f2251c72793fe6be836c53190b8ab5bb45d9a41bfee0736cb0a981526020017f18fc828afd30955032d5ffec835054337c1c0748443440a86a4d39b617e5ec1981525081608001516002815181106112cc576112cb61254c565b5b602002602001018190525090565b6112e2611be0565b6112ea611bfa565b8360000151816000600381106113035761130261254c565b5b6020020181815250508360200151816001600381106113255761132461254c565b5b60200201818152505082816002600381106113435761134261254c565b5b602002018181525050600060608360808460076107d05a03fa9050806000810361136957fe5b50806113aa576040517f08c379a00000000000000000000000000000000000000000000000000000000081526004016113a19061276c565b60405180910390fd5b505092915050565b6113ba611be0565b6113c2611c1c565b8360000151816000600481106113db576113da61254c565b5b6020020181815250508360200151816001600481106113fd576113fc61254c565b5b60200201818152505082600001518160026004811061141f5761141e61254c565b5b6020020181815250508260200151816003600481106114415761144061254c565b5b602002018181525050600060608360c08460066107d05a03fa9050806000810361146757fe5b50806114a8576040517f08c379a000000000000000000000000000000000000000000000000000000000815260040161149f906127d8565b60405180910390fd5b505092915050565b6114b8611be0565b60007f30644e72e131a029b85045b68181585d97816a916871ca8d3c208c16d87cfd479050600083600001511480156114f5575060008360200151145b15611519576040518060400160405280600081526020016000815250915050611550565b60405180604001604052808460000151815260200182856020015161153e9190612827565b836115499190612858565b8152509150505b919050565b600080600467ffffffffffffffff81111561157357611572611def565b5b6040519080825280602002602001820160405280156115ac57816020015b611599611be0565b8152602001906001900390816115915790505b5090506000600467ffffffffffffffff8111156115cc576115cb611def565b5b60405190808252806020026020018201604052801561160557816020015b6115f2611c3e565b8152602001906001900390816115ea5790505b5090508a8260008151811061161d5761161c61254c565b5b6020026020010181905250888260018151811061163d5761163c61254c565b5b6020026020010181905250868260028151811061165d5761165c61254c565b5b6020026020010181905250848260038151811061167d5761167c61254c565b5b6020026020010181905250898160008151811061169d5761169c61254c565b5b602002602001018190525087816001815181106116bd576116bc61254c565b5b602002602001018190525085816002815181106116dd576116dc61254c565b5b602002602001018190525083816003815181106116fd576116fc61254c565b5b60200260200101819052506117128282611722565b9250505098975050505050505050565b60008151835114611768576040517f08c379a000000000000000000000000000000000000000000000000000000000815260040161175f906128d8565b60405180910390fd5b600083519050600060068261177d91906128f8565b905060008167ffffffffffffffff81111561179b5761179a611def565b5b6040519080825280602002602001820160405280156117c95781602001602082028036833780820191505090505b50905060005b83811015611a4e578681815181106117ea576117e961254c565b5b60200260200101516000015182600060068461180691906128f8565b61181091906125f2565b815181106118215761182061254c565b5b6020026020010181815250508681815181106118405761183f61254c565b5b60200260200101516020015182600160068461185c91906128f8565b61186691906125f2565b815181106118775761187661254c565b5b6020026020010181815250508581815181106118965761189561254c565b5b6020026020010151600001516000600281106118b5576118b461254c565b5b60200201518260026006846118ca91906128f8565b6118d491906125f2565b815181106118e5576118e461254c565b5b6020026020010181815250508581815181106119045761190361254c565b5b6020026020010151600001516001600281106119235761192261254c565b5b602002015182600360068461193891906128f8565b61194291906125f2565b815181106119535761195261254c565b5b6020026020010181815250508581815181106119725761197161254c565b5b6020026020010151602001516000600281106119915761199061254c565b5b60200201518260046006846119a691906128f8565b6119b091906125f2565b815181106119c1576119c061254c565b5b6020026020010181815250508581815181106119e0576119df61254c565b5b6020026020010151602001516001600281106119ff576119fe61254c565b5b6020020151826005600684611a1491906128f8565b611a1e91906125f2565b81518110611a2f57611a2e61254c565b5b6020026020010181815250508080611a46906125aa565b9150506117cf565b50611a57611c64565b6000602082602086026020860160086107d05a03fa90508060008103611a7957fe5b5080611aba576040517f08c379a0000000000000000000000000000000000000000000000000000000008152600401611ab19061299e565b60405180910390fd5b600082600060018110611ad057611acf61254c565b5b602002015114159550505050505092915050565b604051806101a001604052806000801916815260200160008019168152602001600080191681526020016000815260200160008152602001600081526020016000815260200160008019168152602001600080191681526020016000801916815260200160008019168152602001600080191681526020016000151581525090565b6040518060600160405280611b79611be0565b8152602001611b86611c3e565b8152602001611b93611be0565b81525090565b6040518060a00160405280611bac611be0565b8152602001611bb9611c3e565b8152602001611bc6611c3e565b8152602001611bd3611c3e565b8152602001606081525090565b604051806040016040528060008152602001600081525090565b6040518060600160405280600390602082028036833780820191505090505090565b6040518060800160405280600490602082028036833780820191505090505090565b6040518060400160405280611c51611c86565b8152602001611c5e611c86565b81525090565b6040518060200160405280600190602082028036833780820191505090505090565b6040518060400160405280600290602082028036833780820191505090505090565b6000604051905090565b600080fd5b6000819050919050565b611cca81611cb7565b8114611cd557600080fd5b50565b600081359050611ce781611cc1565b92915050565b6000819050919050565b611d0081611ced565b8114611d0b57600080fd5b50565b600081359050611d1d81611cf7565b92915050565b600080600080600080600080610100898b031215611d4457611d43611cb2565b5b6000611d528b828c01611cd8565b9850506020611d638b828c01611cd8565b9750506040611d748b828c01611d0e565b9650506060611d858b828c01611d0e565b9550506080611d968b828c01611cd8565b94505060a0611da78b828c01611cd8565b93505060c0611db88b828c01611cd8565b92505060e0611dc98b828c01611cd8565b9150509295985092959890939650565b600080fd5b6000601f19601f8301169050919050565b7f4e487b7100000000000000000000000000000000000000000000000000000000600052604160045260246000fd5b611e2782611dde565b810181811067ffffffffffffffff82111715611e4657611e45611def565b5b80604052505050565b6000611e59611ca8565b9050611e658282611e1e565b919050565b600067ffffffffffffffff821115611e8557611e84611def565b5b602082029050919050565b600080fd5b6000611ea8611ea384611e6a565b611e4f565b90508060208402830185811115611ec257611ec1611e90565b5b835b81811015611eeb5780611ed78882611d0e565b845260208401935050602081019050611ec4565b5050509392505050565b600082601f830112611f0a57611f09611dd9565b5b6002611f17848285611e95565b91505092915050565b600067ffffffffffffffff821115611f3b57611f3a611def565b5b602082029050919050565b6000611f59611f5484611f20565b611e4f565b90508060408402830185811115611f7357611f72611e90565b5b835b81811015611f9c5780611f888882611ef5565b845260208401935050604081019050611f75565b5050509392505050565b600082601f830112611fbb57611fba611dd9565b5b6002611fc8848285611f46565b91505092915050565b6000806000806000806000610180888a031215611ff157611ff0611cb2565b5b6000611fff8a828b01611ef5565b97505060406120108a828b01611fa6565b96505060c06120218a828b01611ef5565b9550506101006120338a828b01611cd8565b9450506101206120458a828b01611cd8565b9350506101406120578a828b01611d0e565b9250506101606120698a828b01611d0e565b91505092959891949750929550565b60006020828403121561208e5761208d611cb2565b5b600061209c84828501611cd8565b91505092915050565b6120ae81611cb7565b82525050565b6120bd81611ced565b82525050565b60008115159050919050565b6120d8816120c3565b82525050565b6101a0820160008201516120f560008501826120a5565b50602082015161210860208501826120a5565b50604082015161211b60408501826120a5565b50606082015161212e60608501826120b4565b50608082015161214160808501826120b4565b5060a082015161215460a08501826120b4565b5060c082015161216760c08501826120b4565b5060e082015161217a60e08501826120a5565b5061010082015161218f6101008501826120a5565b506101208201516121a46101208501826120a5565b506101408201516121b96101408501826120a5565b506101608201516121ce6101608501826120a5565b506101808201516121e36101808501826120cf565b50505050565b60006101a0820190506121ff60008301846120de565b92915050565b60008060008061014085870312156122205761221f611cb2565b5b600061222e87828801611ef5565b945050604061223f87828801611fa6565b93505060c061225087828801611ef5565b92505061010061226287828801611ef5565b91505092959194509250565b612277816120c3565b82525050565b6000602082019050612292600083018461226e565b92915050565b600082825260208201905092915050565b7f536869706d656e7420616c726561647920726567697374657265640000000000600082015250565b60006122df601b83612298565b91506122ea826122a9565b602082019050919050565b6000602082019050818103600083015261230e816122d2565b9050919050565b61231e81611cb7565b82525050565b60006060820190506123396000830186612315565b6123466020830185612315565b6123536040830184612315565b949350505050565b7f536869706d656e74206e6f742072656769737465726564000000000000000000600082015250565b6000612391601783612298565b915061239c8261235b565b602082019050919050565b600060208201905081810360008301526123c081612384565b9050919050565b7f536869706d656e7420697320616c726561647920636f6e6669726d6564000000600082015250565b60006123fd601d83612298565b9150612408826123c7565b602082019050919050565b6000602082019050818103600083015261242c816123f0565b9050919050565b7f53656e7420736869706d656e74206461746120697320616c726561647920616460008201527f6465640000000000000000000000000000000000000000000000000000000000602082015250565b600061248f602383612298565b915061249a82612433565b604082019050919050565b600060208201905081810360008301526124be81612482565b9050919050565b7f496e76616c69642070726f6f6600000000000000000000000000000000000000600082015250565b60006124fb600d83612298565b9150612506826124c5565b602082019050919050565b6000602082019050818103600083015261252a816124ee565b9050919050565b60006020820190506125466000830184612315565b92915050565b7f4e487b7100000000000000000000000000000000000000000000000000000000600052603260045260246000fd5b7f4e487b7100000000000000000000000000000000000000000000000000000000600052601160045260246000fd5b60006125b582611ced565b91507fffffffffffffffffffffffffffffffffffffffffffffffffffffffffffffffff82036125e7576125e661257b565b5b600182019050919050565b60006125fd82611ced565b915061260883611ced565b9250827fffffffffffffffffffffffffffffffffffffffffffffffffffffffffffffffff0382111561263d5761263c61257b565b5b828201905092915050565b7f76657269666965722d6261642d696e7075740000000000000000000000000000600082015250565b600061267e601283612298565b915061268982612648565b602082019050919050565b600060208201905081810360008301526126ad81612671565b9050919050565b7f76657269666965722d6774652d736e61726b2d7363616c61722d6669656c6400600082015250565b60006126ea601f83612298565b91506126f5826126b4565b602082019050919050565b60006020820190508181036000830152612719816126dd565b9050919050565b7f70616972696e672d6d756c2d6661696c65640000000000000000000000000000600082015250565b6000612756601283612298565b915061276182612720565b602082019050919050565b6000602082019050818103600083015261278581612749565b9050919050565b7f70616972696e672d6164642d6661696c65640000000000000000000000000000600082015250565b60006127c2601283612298565b91506127cd8261278c565b602082019050919050565b600060208201905081810360008301526127f1816127b5565b9050919050565b7f4e487b7100000000000000000000000000000000000000000000000000000000600052601260045260246000fd5b600061283282611ced565b915061283d83611ced565b92508261284d5761284c6127f8565b5b828206905092915050565b600061286382611ced565b915061286e83611ced565b9250828210156128815761288061257b565b5b828203905092915050565b7f70616972696e672d6c656e677468732d6661696c656400000000000000000000600082015250565b60006128c2601683612298565b91506128cd8261288c565b602082019050919050565b600060208201905081810360008301526128f1816128b5565b9050919050565b600061290382611ced565b915061290e83611ced565b9250817fffffffffffffffffffffffffffffffffffffffffffffffffffffffffffffffff04831182151516156129475761294661257b565b5b828202905092915050565b7f70616972696e672d6f70636f64652d6661696c65640000000000000000000000600082015250565b6000612988601583612298565b915061299382612952565b602082019050919050565b600060208201905081810360008301526129b78161297b565b905091905056fea264697066735822122036ea7707ed14bb3871f8fe09de093bb1311163fb6241161bd5af7da877d57d7e64736f6c634300080d0033",
  "linkReferences": {},
  "deployedLinkReferences": {}
}