{
  "_format": "hh-sol-artifact-1",
  "contractName": "Fibers",
  "sourceName": "contracts/fibers.sol",
  "abi": [
    {
      "inputs": [],
      "stateMutability": "nonpayable",
      "type": "constructor"
    },
    {
      "anonymous": false,
      "inputs": [
        {
          "indexed": false,
          "internalType": "bytes32",
          "name": "shipmentLabelHash",
          "type": "bytes32"
        }
      ],
      "name": "ShipmentConfirmed",
      "type": "event"
    },
    {
      "anonymous": false,
      "inputs": [
        {
          "indexed": false,
          "internalType": "bytes32",
          "name": "shipmentLabelHash",
          "type": "bytes32"
        },
        {
          "indexed": false,
          "internalType": "bytes32",
          "name": "senderDepartment",
          "type": "bytes32"
        },
        {
          "indexed": false,
          "internalType": "bytes32",
          "name": "recipientDepartment",
          "type": "bytes32"
        }
      ],
      "name": "ShipmentRegistered",
      "type": "event"
    },
    {
      "inputs": [
        {
          "internalType": "address",
          "name": "wallet",
          "type": "address"
        },
        {
          "internalType": "bytes32",
          "name": "companyId",
          "type": "bytes32"
        },
        {
          "internalType": "bytes32",
          "name": "departmentId",
          "type": "bytes32"
        }
      ],
      "name": "addUser",
      "outputs": [],
      "stateMutability": "nonpayable",
      "type": "function"
    },
    {
      "inputs": [
        {
          "internalType": "uint256[2]",
          "name": "a",
          "type": "uint256[2]"
        },
        {
          "internalType": "uint256[2][2]",
          "name": "b",
          "type": "uint256[2][2]"
        },
        {
          "internalType": "uint256[2]",
          "name": "c",
          "type": "uint256[2]"
        },
        {
          "internalType": "bytes32",
          "name": "shipmentLabelHash",
          "type": "bytes32"
        },
        {
          "internalType": "bytes32",
          "name": "shipmentHash",
          "type": "bytes32"
        },
        {
          "internalType": "uint256",
          "name": "shipmentMass",
          "type": "uint256"
        },
        {
          "internalType": "uint256",
          "name": "shipmentDate",
          "type": "uint256"
        }
      ],
      "name": "confirmShipment",
      "outputs": [],
      "stateMutability": "nonpayable",
      "type": "function"
    },
    {
      "inputs": [
        {
          "internalType": "address",
          "name": "wallet",
          "type": "address"
        }
      ],
      "name": "deactivateUser",
      "outputs": [],
      "stateMutability": "nonpayable",
      "type": "function"
    },
    {
      "inputs": [
        {
          "internalType": "bytes32",
          "name": "shipmentLabelHash",
          "type": "bytes32"
        }
      ],
      "name": "getShipment",
      "outputs": [
        {
          "components": [
            {
              "internalType": "bytes32",
              "name": "shipmentLabelHash",
              "type": "bytes32"
            },
            {
              "internalType": "bytes32",
              "name": "sentShipmentHash",
              "type": "bytes32"
            },
            {
              "internalType": "bytes32",
              "name": "receivedShipmentHash",
              "type": "bytes32"
            },
            {
              "internalType": "uint256",
              "name": "sentMass",
              "type": "uint256"
            },
            {
              "internalType": "uint256",
              "name": "receivedMass",
              "type": "uint256"
            },
            {
              "internalType": "uint256",
              "name": "sentDate",
              "type": "uint256"
            },
            {
              "internalType": "uint256",
              "name": "receivedDate",
              "type": "uint256"
            },
            {
              "internalType": "bytes32",
              "name": "senderCompany",
              "type": "bytes32"
            },
            {
              "internalType": "bytes32",
              "name": "senderDepartment",
              "type": "bytes32"
            },
            {
              "internalType": "bytes32",
              "name": "recipientCompany",
              "type": "bytes32"
            },
            {
              "internalType": "bytes32",
              "name": "recipientDepartment",
              "type": "bytes32"
            },
            {
              "internalType": "bytes32",
              "name": "shipmentCreator",
              "type": "bytes32"
            },
            {
              "internalType": "uint256",
              "name": "creationTimestamp",
              "type": "uint256"
            },
            {
              "internalType": "bool",
              "name": "isConfirmed",
              "type": "bool"
            }
          ],
          "internalType": "struct Fibers.Shipment",
          "name": "s",
          "type": "tuple"
        }
      ],
      "stateMutability": "view",
      "type": "function"
    },
    {
      "inputs": [
        {
          "internalType": "bytes32",
          "name": "shipmentLabelHash",
          "type": "bytes32"
        },
        {
          "internalType": "bytes32",
          "name": "shipmentHash",
          "type": "bytes32"
        },
        {
          "internalType": "uint256",
          "name": "shipmentMass",
          "type": "uint256"
        },
        {
          "internalType": "uint256",
          "name": "shipmentDate",
          "type": "uint256"
        },
        {
          "internalType": "bytes32",
          "name": "senderCompany",
          "type": "bytes32"
        },
        {
          "internalType": "bytes32",
          "name": "senderDepartment",
          "type": "bytes32"
        },
        {
          "internalType": "bytes32",
          "name": "recipientCompany",
          "type": "bytes32"
        },
        {
          "internalType": "bytes32",
          "name": "recipientDepartment",
          "type": "bytes32"
        }
      ],
      "name": "registerShipment",
      "outputs": [],
      "stateMutability": "nonpayable",
      "type": "function"
    },
    {
      "inputs": [
        {
          "internalType": "uint256[2]",
          "name": "a",
          "type": "uint256[2]"
        },
        {
          "internalType": "uint256[2][2]",
          "name": "b",
          "type": "uint256[2][2]"
        },
        {
          "internalType": "uint256[2]",
          "name": "c",
          "type": "uint256[2]"
        },
        {
          "internalType": "uint256[2]",
          "name": "input",
          "type": "uint256[2]"
        }
      ],
      "name": "verifyProof",
      "outputs": [
        {
          "internalType": "bool",
          "name": "r",
          "type": "bool"
        }
      ],
      "stateMutability": "view",
      "type": "function"
    }
  ],
  "bytecode": "0x608060405234801561001057600080fd5b50336000806101000a81548173ffffffffffffffffffffffffffffffffffffffff021916908373ffffffffffffffffffffffffffffffffffffffff1602179055506131d1806100606000396000f3fe608060405234801561001057600080fd5b50600436106100625760003560e01c80631a47767b1461006757806358cb7c4114610083578063910112bb146100b3578063f20856dc146100cf578063f5c9d69e146100eb578063fad84a801461011b575b600080fd5b610081600480360381019061007c9190612275565b610137565b005b61009d600480360381019061009891906122d8565b610274565b6040516100aa9190612468565b60405180910390f35b6100cd60048036038101906100c89190612484565b61033f565b005b6100e960048036038101906100e491906126fb565b61050b565b005b610105600480360381019061010091906127a2565b610a4b565b604051610112919061281a565b60405180910390f35b61013560048036038101906101309190612835565b610cc4565b005b60008054906101000a900473ffffffffffffffffffffffffffffffffffffffff1673ffffffffffffffffffffffffffffffffffffffff163373ffffffffffffffffffffffffffffffffffffffff161461018f57600080fd5b6000801b600160008373ffffffffffffffffffffffffffffffffffffffff1673ffffffffffffffffffffffffffffffffffffffff1681526020019081526020016000206000015403610216576040517f08c379a000000000000000000000000000000000000000000000000000000000815260040161020d90612948565b60405180910390fd5b6000600160008373ffffffffffffffffffffffffffffffffffffffff1673ffffffffffffffffffffffffffffffffffffffff16815260200190815260200160002060020160006101000a81548160ff02191690831515021790555050565b61027c61203d565b60026000838152602001908152602001600020604051806101c001604052908160008201548152602001600182015481526020016002820154815260200160038201548152602001600482015481526020016005820154815260200160068201548152602001600782015481526020016008820154815260200160098201548152602001600a8201548152602001600b8201548152602001600c8201548152602001600d820160009054906101000a900460ff1615151515815250509050919050565b60008054906101000a900473ffffffffffffffffffffffffffffffffffffffff1673ffffffffffffffffffffffffffffffffffffffff163373ffffffffffffffffffffffffffffffffffffffff161461039757600080fd5b6000801b600160008573ffffffffffffffffffffffffffffffffffffffff1673ffffffffffffffffffffffffffffffffffffffff168152602001908152602001600020600001541461041e576040517f08c379a0000000000000000000000000000000000000000000000000000000008152600401610415906129b4565b60405180910390fd5b81600160008573ffffffffffffffffffffffffffffffffffffffff1673ffffffffffffffffffffffffffffffffffffffff1681526020019081526020016000206000018190555080600160008573ffffffffffffffffffffffffffffffffffffffff1673ffffffffffffffffffffffffffffffffffffffff1681526020019081526020016000206001018190555060018060008573ffffffffffffffffffffffffffffffffffffffff1673ffffffffffffffffffffffffffffffffffffffff16815260200190815260200160002060020160006101000a81548160ff021916908315150217905550505050565b6000801b600260008681526020019081526020016000206000015403610566576040517f08c379a000000000000000000000000000000000000000000000000000000000815260040161055d90612a20565b60405180910390fd5b6000151560026000868152602001908152602001600020600d0160009054906101000a900460ff161515146105d0576040517f08c379a00000000000000000000000000000000000000000000000000000000081526004016105c790612a8c565b60405180910390fd5b600160003373ffffffffffffffffffffffffffffffffffffffff1673ffffffffffffffffffffffffffffffffffffffff16815260200190815260200160002060020160009054906101000a900460ff1661065f576040517f08c379a000000000000000000000000000000000000000000000000000000000815260040161065690612af8565b60405180910390fd5b6001151561068988888860405180604001604052808a60001c81526020018960001c815250610a4b565b1515146106cb576040517f08c379a00000000000000000000000000000000000000000000000000000000081526004016106c290612b64565b60405180910390fd5b6000801b600260008681526020019081526020016000206001015414801561074a57506002600085815260200190815260200160002060070154600160003373ffffffffffffffffffffffffffffffffffffffff1673ffffffffffffffffffffffffffffffffffffffff16815260200190815260200160002060000154145b80156107ad57506002600085815260200190815260200160002060080154600160003373ffffffffffffffffffffffffffffffffffffffff1673ffffffffffffffffffffffffffffffffffffffff16815260200190815260200160002060010154145b8061089657506000801b600260008681526020019081526020016000206002015414801561083257506002600085815260200190815260200160002060090154600160003373ffffffffffffffffffffffffffffffffffffffff1673ffffffffffffffffffffffffffffffffffffffff16815260200190815260200160002060000154145b8015610895575060026000858152602001908152602001600020600a0154600160003373ffffffffffffffffffffffffffffffffffffffff1673ffffffffffffffffffffffffffffffffffffffff16815260200190815260200160002060010154145b5b6108d5576040517f08c379a00000000000000000000000000000000000000000000000000000000081526004016108cc90612bd0565b60405180910390fd5b600160026000868152602001908152602001600020600d0160006101000a81548160ff0219169083151502179055506002600085815260200190815260200160002060070154600160003373ffffffffffffffffffffffffffffffffffffffff1673ffffffffffffffffffffffffffffffffffffffff16815260200190815260200160002060000154036109b957826002600086815260200190815260200160002060010181905550816002600086815260200190815260200160002060030181905550806002600086815260200190815260200160002060050181905550610a0b565b8260026000868152602001908152602001600020600201819055508160026000868152602001908152602001600020600401819055508060026000868152602001908152602001600020600601819055505b7f025ddaf9272fb0d3ffccf99058ffec2b4a6bfb03dd75d149d689d7ee6f87b0fd84604051610a3a9190612bff565b60405180910390a150505050505050565b6000610a556120c6565b604051806040016040528087600060028110610a7457610a73612c1a565b5b6020020151815260200187600160028110610a9257610a91612c1a565b5b602002015181525081600001819052506040518060400160405280604051806040016040528088600060028110610acc57610acb612c1a565b5b6020020151600060028110610ae457610ae3612c1a565b5b6020020151815260200188600060028110610b0257610b01612c1a565b5b6020020151600160028110610b1a57610b19612c1a565b5b60200201518152508152602001604051806040016040528088600160028110610b4657610b45612c1a565b5b6020020151600060028110610b5e57610b5d612c1a565b5b6020020151815260200188600160028110610b7c57610b7b612c1a565b5b6020020151600160028110610b9457610b93612c1a565b5b60200201518152508152508160200181905250604051806040016040528085600060028110610bc657610bc5612c1a565b5b6020020151815260200185600160028110610be457610be3612c1a565b5b602002015181525081604001819052506000600267ffffffffffffffff811115610c1157610c106124ed565b5b604051908082528060200260200182016040528015610c3f5781602001602082028036833780820191505090505b50905060005b6002811015610c9857848160028110610c6157610c60612c1a565b5b6020020151828281518110610c7957610c78612c1a565b5b6020026020010181815250508080610c9090612c78565b915050610c45565b506000610ca582846111c4565b03610cb557600192505050610cbc565b6000925050505b949350505050565b6000801b600260008a81526020019081526020016000206000015414610d1f576040517f08c379a0000000000000000000000000000000000000000000000000000000008152600401610d1690612d0c565b60405180910390fd5b6000801b600160003373ffffffffffffffffffffffffffffffffffffffff1673ffffffffffffffffffffffffffffffffffffffff1681526020019081526020016000206000015403610da6576040517f08c379a0000000000000000000000000000000000000000000000000000000008152600401610d9d90612948565b60405180910390fd5b600160003373ffffffffffffffffffffffffffffffffffffffff1673ffffffffffffffffffffffffffffffffffffffff16815260200190815260200160002060020160009054906101000a900460ff16610e35576040517f08c379a0000000000000000000000000000000000000000000000000000000008152600401610e2c90612af8565b60405180910390fd5b83600160003373ffffffffffffffffffffffffffffffffffffffff1673ffffffffffffffffffffffffffffffffffffffff16815260200190815260200160002060000154148015610ec7575082600160003373ffffffffffffffffffffffffffffffffffffffff1673ffffffffffffffffffffffffffffffffffffffff16815260200190815260200160002060010154145b80610f60575081600160003373ffffffffffffffffffffffffffffffffffffffff1673ffffffffffffffffffffffffffffffffffffffff16815260200190815260200160002060000154148015610f5f575080600160003373ffffffffffffffffffffffffffffffffffffffff1673ffffffffffffffffffffffffffffffffffffffff16815260200190815260200160002060010154145b5b610f9f576040517f08c379a0000000000000000000000000000000000000000000000000000000008152600401610f9690612d78565b60405180910390fd5b610fa761203d565b848160e0018181525050838161010001818152505082816101200181815250508181610140018181525050600160003373ffffffffffffffffffffffffffffffffffffffff1673ffffffffffffffffffffffffffffffffffffffff168152602001908152602001600020600101548161016001818152505088816000018181525050428161018001818152505084600160003373ffffffffffffffffffffffffffffffffffffffff1673ffffffffffffffffffffffffffffffffffffffff16815260200190815260200160002060000154036110a0578781602001818152505086816060018181525050858160a00181815250506110bf565b8781604001818152505086816080018181525050858160c00181815250505b80600260008b8152602001908152602001600020600082015181600001556020820151816001015560408201518160020155606082015181600301556080820151816004015560a0820151816005015560c0820151816006015560e082015181600701556101008201518160080155610120820151816009015561014082015181600a015561016082015181600b015561018082015181600c01556101a082015181600d0160006101000a81548160ff0219169083151502179055509050507fb058793d038b81e2e09e747d297034346a05bc2fe388cc3ee8666d65e83e41588985846040516111b193929190612d98565b60405180910390a1505050505050505050565b6000807f30644e72e131a029b85045b68181585d2833e84879b9709143e1f593f0000001905060006111f46113b7565b90508060800151516001865161120a9190612dcf565b1461124a576040517f08c379a000000000000000000000000000000000000000000000000000000000815260040161124190612e71565b60405180910390fd5b60006040518060400160405280600081526020016000815250905060005b8651811015611339578387828151811061128557611284612c1a565b5b6020026020010151106112cd576040517f08c379a00000000000000000000000000000000000000000000000000000000081526004016112c490612edd565b60405180910390fd5b6113248261131f85608001516001856112e69190612dcf565b815181106112f7576112f6612c1a565b5b60200260200101518a858151811061131257611311612c1a565b5b6020026020010151611833565b61190b565b9150808061133190612c78565b915050611268565b5061136381836080015160008151811061135657611355612c1a565b5b602002602001015161190b565b90506113996113758660000151611a09565b8660200151846000015185602001518587604001518b604001518960600151611aae565b6113a957600193505050506113b1565b600093505050505b92915050565b6113bf6120f9565b60405180604001604052807f2d4d9aa7e302d9df41749d5507949d05dbea33fbb16c643b22f599a2be6df2e281526020017f14bedd503c37ceb061d8ec60209fe345ce89830a19230301f076caff004d19268152508160000181905250604051806040016040528060405180604001604052807f0967032fcbf776d1afc985f88877f182d38480a653f2decaa9794cbc3bf3060c81526020017f0e187847ad4c798374d0d6732bf501847dd68bc0e071241e0213bc7fc13db7ab815250815260200160405180604001604052807f304cfbd1e08a704a99f5e847d93f8c3caafddec46b7a0d379da69a4d112346a781526020017f1739c1b1a457a8c7313123d24d2f9192f896b7c63eea05a9d57f06547ad0cec88152508152508160200181905250604051806040016040528060405180604001604052807f198e9393920d483a7260bfb731fb5d25f1aa493335a9e71297e485b7aef312c281526020017f1800deef121f1e76426a00665e5c4479674322d4f75edadd46debd5cd992f6ed815250815260200160405180604001604052807f090689d0585ff075ec9e99ad690c3395bc4b313370b38ef355acdadcd122975b81526020017f12c85ea5db8c6deb4aab71808dcb408fe3d1e7690c43d37b4ce6cc0166fa7daa8152508152508160400181905250604051806040016040528060405180604001604052807f0b74c83bee136099e749ab084dafafe915cb1020993e3636745c0978f0357b5381526020017f07aaf14e8e3cb75425cba4327136bd0f4b9e48740102f9672216b5930312a711815250815260200160405180604001604052807f2f510fb345794e01bb9f953a393d8dca99932e82cdda1e7645761d10d16e57c481526020017f279c498699f2947557ac157c813e70817b3b99d6839e125f5bf3b73619f197c28152508152508160600181905250600367ffffffffffffffff811115611686576116856124ed565b5b6040519080825280602002602001820160405280156116bf57816020015b6116ac612140565b8152602001906001900390816116a45790505b50816080018190525060405180604001604052807f0b9736f7678df29acf5a8f87c5d9f470bee57f4c93390af6be310536de57a2e981526020017f18b896d189b6e8342fff7cf73bca49897e7899f4a43c45f3258531d66c7ae58b815250816080015160008151811061173557611734612c1a565b5b602002602001018190525060405180604001604052807f02b6a8dd39c6967dae388caa812fee6006110b65e58c8e52ca39dcf99dab1cfc81526020017f1d59dcc00edc3002aca3db20a0ebac135dcf2f434251d9245e7638ee829c8cab81525081608001516001815181106117ad576117ac612c1a565b5b602002602001018190525060405180604001604052807f19e822b0ea9b021678b1e1da729e85cd27c73b47b3cf5ac53d54cc2fab4c697d81526020017f29bb21d9c4f2a2a6dca324e6074758ba79494d4ad5d6142fb7dea2007aa6d986815250816080015160028151811061182557611824612c1a565b5b602002602001018190525090565b61183b612140565b61184361215a565b83600001518160006003811061185c5761185b612c1a565b5b60200201818152505083602001518160016003811061187e5761187d612c1a565b5b602002018181525050828160026003811061189c5761189b612c1a565b5b602002018181525050600060608360808460076107d05a03fa905080600081036118c257fe5b5080611903576040517f08c379a00000000000000000000000000000000000000000000000000000000081526004016118fa90612f49565b60405180910390fd5b505092915050565b611913612140565b61191b61217c565b83600001518160006004811061193457611933612c1a565b5b60200201818152505083602001518160016004811061195657611955612c1a565b5b60200201818152505082600001518160026004811061197857611977612c1a565b5b60200201818152505082602001518160036004811061199a57611999612c1a565b5b602002018181525050600060608360c08460066107d05a03fa905080600081036119c057fe5b5080611a01576040517f08c379a00000000000000000000000000000000000000000000000000000000081526004016119f890612fb5565b60405180910390fd5b505092915050565b611a11612140565b60007f30644e72e131a029b85045b68181585d97816a916871ca8d3c208c16d87cfd47905060008360000151148015611a4e575060008360200151145b15611a72576040518060400160405280600081526020016000815250915050611aa9565b604051806040016040528084600001518152602001828560200151611a979190613004565b83611aa29190613035565b8152509150505b919050565b600080600467ffffffffffffffff811115611acc57611acb6124ed565b5b604051908082528060200260200182016040528015611b0557816020015b611af2612140565b815260200190600190039081611aea5790505b5090506000600467ffffffffffffffff811115611b2557611b246124ed565b5b604051908082528060200260200182016040528015611b5e57816020015b611b4b61219e565b815260200190600190039081611b435790505b5090508a82600081518110611b7657611b75612c1a565b5b60200260200101819052508882600181518110611b9657611b95612c1a565b5b60200260200101819052508682600281518110611bb657611bb5612c1a565b5b60200260200101819052508482600381518110611bd657611bd5612c1a565b5b60200260200101819052508981600081518110611bf657611bf5612c1a565b5b60200260200101819052508781600181518110611c1657611c15612c1a565b5b60200260200101819052508581600281518110611c3657611c35612c1a565b5b60200260200101819052508381600381518110611c5657611c55612c1a565b5b6020026020010181905250611c6b8282611c7b565b9250505098975050505050505050565b60008151835114611cc1576040517f08c379a0000000000000000000000000000000000000000000000000000000008152600401611cb8906130b5565b60405180910390fd5b6000835190506000600682611cd691906130d5565b905060008167ffffffffffffffff811115611cf457611cf36124ed565b5b604051908082528060200260200182016040528015611d225781602001602082028036833780820191505090505b50905060005b83811015611fa757868181518110611d4357611d42612c1a565b5b602002602001015160000151826000600684611d5f91906130d5565b611d699190612dcf565b81518110611d7a57611d79612c1a565b5b602002602001018181525050868181518110611d9957611d98612c1a565b5b602002602001015160200151826001600684611db591906130d5565b611dbf9190612dcf565b81518110611dd057611dcf612c1a565b5b602002602001018181525050858181518110611def57611dee612c1a565b5b602002602001015160000151600060028110611e0e57611e0d612c1a565b5b6020020151826002600684611e2391906130d5565b611e2d9190612dcf565b81518110611e3e57611e3d612c1a565b5b602002602001018181525050858181518110611e5d57611e5c612c1a565b5b602002602001015160000151600160028110611e7c57611e7b612c1a565b5b6020020151826003600684611e9191906130d5565b611e9b9190612dcf565b81518110611eac57611eab612c1a565b5b602002602001018181525050858181518110611ecb57611eca612c1a565b5b602002602001015160200151600060028110611eea57611ee9612c1a565b5b6020020151826004600684611eff91906130d5565b611f099190612dcf565b81518110611f1a57611f19612c1a565b5b602002602001018181525050858181518110611f3957611f38612c1a565b5b602002602001015160200151600160028110611f5857611f57612c1a565b5b6020020151826005600684611f6d91906130d5565b611f779190612dcf565b81518110611f8857611f87612c1a565b5b6020026020010181815250508080611f9f90612c78565b915050611d28565b50611fb06121c4565b6000602082602086026020860160086107d05a03fa90508060008103611fd257fe5b5080612013576040517f08c379a000000000000000000000000000000000000000000000000000000000815260040161200a9061317b565b60405180910390fd5b60008260006001811061202957612028612c1a565b5b602002015114159550505050505092915050565b604051806101c00160405280600080191681526020016000801916815260200160008019168152602001600081526020016000815260200160008152602001600081526020016000801916815260200160008019168152602001600080191681526020016000801916815260200160008019168152602001600081526020016000151581525090565b60405180606001604052806120d9612140565b81526020016120e661219e565b81526020016120f3612140565b81525090565b6040518060a0016040528061210c612140565b815260200161211961219e565b815260200161212661219e565b815260200161213361219e565b8152602001606081525090565b604051806040016040528060008152602001600081525090565b6040518060600160405280600390602082028036833780820191505090505090565b6040518060800160405280600490602082028036833780820191505090505090565b60405180604001604052806121b16121e6565b81526020016121be6121e6565b81525090565b6040518060200160405280600190602082028036833780820191505090505090565b6040518060400160405280600290602082028036833780820191505090505090565b6000604051905090565b600080fd5b600073ffffffffffffffffffffffffffffffffffffffff82169050919050565b600061224282612217565b9050919050565b61225281612237565b811461225d57600080fd5b50565b60008135905061226f81612249565b92915050565b60006020828403121561228b5761228a612212565b5b600061229984828501612260565b91505092915050565b6000819050919050565b6122b5816122a2565b81146122c057600080fd5b50565b6000813590506122d2816122ac565b92915050565b6000602082840312156122ee576122ed612212565b5b60006122fc848285016122c3565b91505092915050565b61230e816122a2565b82525050565b6000819050919050565b61232781612314565b82525050565b60008115159050919050565b6123428161232d565b82525050565b6101c08201600082015161235f6000850182612305565b5060208201516123726020850182612305565b5060408201516123856040850182612305565b506060820151612398606085018261231e565b5060808201516123ab608085018261231e565b5060a08201516123be60a085018261231e565b5060c08201516123d160c085018261231e565b5060e08201516123e460e0850182612305565b506101008201516123f9610100850182612305565b5061012082015161240e610120850182612305565b50610140820151612423610140850182612305565b50610160820151612438610160850182612305565b5061018082015161244d61018085018261231e565b506101a08201516124626101a0850182612339565b50505050565b60006101c08201905061247e6000830184612348565b92915050565b60008060006060848603121561249d5761249c612212565b5b60006124ab86828701612260565b93505060206124bc868287016122c3565b92505060406124cd868287016122c3565b9150509250925092565b600080fd5b6000601f19601f8301169050919050565b7f4e487b7100000000000000000000000000000000000000000000000000000000600052604160045260246000fd5b612525826124dc565b810181811067ffffffffffffffff82111715612544576125436124ed565b5b80604052505050565b6000612557612208565b9050612563828261251c565b919050565b600067ffffffffffffffff821115612583576125826124ed565b5b602082029050919050565b600080fd5b61259c81612314565b81146125a757600080fd5b50565b6000813590506125b981612593565b92915050565b60006125d26125cd84612568565b61254d565b905080602084028301858111156125ec576125eb61258e565b5b835b81811015612615578061260188826125aa565b8452602084019350506020810190506125ee565b5050509392505050565b600082601f830112612634576126336124d7565b5b60026126418482856125bf565b91505092915050565b600067ffffffffffffffff821115612665576126646124ed565b5b602082029050919050565b600061268361267e8461264a565b61254d565b9050806040840283018581111561269d5761269c61258e565b5b835b818110156126c657806126b2888261261f565b84526020840193505060408101905061269f565b5050509392505050565b600082601f8301126126e5576126e46124d7565b5b60026126f2848285612670565b91505092915050565b6000806000806000806000610180888a03121561271b5761271a612212565b5b60006127298a828b0161261f565b975050604061273a8a828b016126d0565b96505060c061274b8a828b0161261f565b95505061010061275d8a828b016122c3565b94505061012061276f8a828b016122c3565b9350506101406127818a828b016125aa565b9250506101606127938a828b016125aa565b91505092959891949750929550565b60008060008061014085870312156127bd576127bc612212565b5b60006127cb8782880161261f565b94505060406127dc878288016126d0565b93505060c06127ed8782880161261f565b9250506101006127ff8782880161261f565b91505092959194509250565b6128148161232d565b82525050565b600060208201905061282f600083018461280b565b92915050565b600080600080600080600080610100898b03121561285657612855612212565b5b60006128648b828c016122c3565b98505060206128758b828c016122c3565b97505060406128868b828c016125aa565b96505060606128978b828c016125aa565b95505060806128a88b828c016122c3565b94505060a06128b98b828c016122c3565b93505060c06128ca8b828c016122c3565b92505060e06128db8b828c016122c3565b9150509295985092959890939650565b600082825260208201905092915050565b7f556e6b6e6f776e20757365720000000000000000000000000000000000000000600082015250565b6000612932600c836128eb565b915061293d826128fc565b602082019050919050565b6000602082019050818103600083015261296181612925565b9050919050565b7f5573657220616c72656164792072656769737465726564000000000000000000600082015250565b600061299e6017836128eb565b91506129a982612968565b602082019050919050565b600060208201905081810360008301526129cd81612991565b9050919050565b7f536869706d656e74206e6f742072656769737465726564000000000000000000600082015250565b6000612a0a6017836128eb565b9150612a15826129d4565b602082019050919050565b60006020820190508181036000830152612a39816129fd565b9050919050565b7f536869706d656e7420697320616c726561647920636f6e6669726d6564000000600082015250565b6000612a76601d836128eb565b9150612a8182612a40565b602082019050919050565b60006020820190508181036000830152612aa581612a69565b9050919050565b7f496e616374697665207573657200000000000000000000000000000000000000600082015250565b6000612ae2600d836128eb565b9150612aed82612aac565b602082019050919050565b60006020820190508181036000830152612b1181612ad5565b9050919050565b7f496e76616c69642070726f6f6600000000000000000000000000000000000000600082015250565b6000612b4e600d836128eb565b9150612b5982612b18565b602082019050919050565b60006020820190508181036000830152612b7d81612b41565b9050919050565b7f496e76616c6964207573657220616374696f6e00000000000000000000000000600082015250565b6000612bba6013836128eb565b9150612bc582612b84565b602082019050919050565b60006020820190508181036000830152612be981612bad565b9050919050565b612bf9816122a2565b82525050565b6000602082019050612c146000830184612bf0565b92915050565b7f4e487b7100000000000000000000000000000000000000000000000000000000600052603260045260246000fd5b7f4e487b7100000000000000000000000000000000000000000000000000000000600052601160045260246000fd5b6000612c8382612314565b91507fffffffffffffffffffffffffffffffffffffffffffffffffffffffffffffffff8203612cb557612cb4612c49565b5b600182019050919050565b7f536869706d656e7420616c726561647920726567697374657265640000000000600082015250565b6000612cf6601b836128eb565b9150612d0182612cc0565b602082019050919050565b60006020820190508181036000830152612d2581612ce9565b9050919050565b7f55736572206973206e6f742073656e646572206e6f7220726563697069656e74600082015250565b6000612d626020836128eb565b9150612d6d82612d2c565b602082019050919050565b60006020820190508181036000830152612d9181612d55565b9050919050565b6000606082019050612dad6000830186612bf0565b612dba6020830185612bf0565b612dc76040830184612bf0565b949350505050565b6000612dda82612314565b9150612de583612314565b9250827fffffffffffffffffffffffffffffffffffffffffffffffffffffffffffffffff03821115612e1a57612e19612c49565b5b828201905092915050565b7f76657269666965722d6261642d696e7075740000000000000000000000000000600082015250565b6000612e5b6012836128eb565b9150612e6682612e25565b602082019050919050565b60006020820190508181036000830152612e8a81612e4e565b9050919050565b7f76657269666965722d6774652d736e61726b2d7363616c61722d6669656c6400600082015250565b6000612ec7601f836128eb565b9150612ed282612e91565b602082019050919050565b60006020820190508181036000830152612ef681612eba565b9050919050565b7f70616972696e672d6d756c2d6661696c65640000000000000000000000000000600082015250565b6000612f336012836128eb565b9150612f3e82612efd565b602082019050919050565b60006020820190508181036000830152612f6281612f26565b9050919050565b7f70616972696e672d6164642d6661696c65640000000000000000000000000000600082015250565b6000612f9f6012836128eb565b9150612faa82612f69565b602082019050919050565b60006020820190508181036000830152612fce81612f92565b9050919050565b7f4e487b7100000000000000000000000000000000000000000000000000000000600052601260045260246000fd5b600061300f82612314565b915061301a83612314565b92508261302a57613029612fd5565b5b828206905092915050565b600061304082612314565b915061304b83612314565b92508282101561305e5761305d612c49565b5b828203905092915050565b7f70616972696e672d6c656e677468732d6661696c656400000000000000000000600082015250565b600061309f6016836128eb565b91506130aa82613069565b602082019050919050565b600060208201905081810360008301526130ce81613092565b9050919050565b60006130e082612314565b91506130eb83612314565b9250817fffffffffffffffffffffffffffffffffffffffffffffffffffffffffffffffff048311821515161561312457613123612c49565b5b828202905092915050565b7f70616972696e672d6f70636f64652d6661696c65640000000000000000000000600082015250565b60006131656015836128eb565b91506131708261312f565b602082019050919050565b6000602082019050818103600083015261319481613158565b905091905056fea2646970667358221220b0a1f80fe8e1681dd89904007d222dcdbd0805b1a7d2140dc4be34e86aaf0a4a64736f6c634300080d0033",
  "linkReferences": {},
  "deployedLinkReferences": {}
}