{
  "_format": "hh-sol-artifact-1",
  "contractName": "ShipmentVerifier",
  "sourceName": "contracts/shipment-verifier.sol",
  "abi": [
    {
      "inputs": [
        {
          "internalType": "uint256[2]",
          "name": "a",
          "type": "uint256[2]"
        },
        {
          "internalType": "uint256[2][2]",
          "name": "b",
          "type": "uint256[2][2]"
        },
        {
          "internalType": "uint256[2]",
          "name": "c",
          "type": "uint256[2]"
        },
        {
          "internalType": "uint256[2]",
          "name": "input",
          "type": "uint256[2]"
        }
      ],
      "name": "verifyProof",
      "outputs": [
        {
          "internalType": "bool",
          "name": "r",
          "type": "bool"
        }
      ],
      "stateMutability": "view",
      "type": "function"
    }
  ],
  "bytecode": "0x608060405234801561001057600080fd5b50611a28806100206000396000f3fe608060405234801561001057600080fd5b506004361061002b5760003560e01c8063f5c9d69e14610030575b600080fd5b61004a600480360381019061004591906114d0565b610060565b6040516100579190611554565b60405180910390f35b600061006a611151565b6040518060400160405280876000600281106100895761008861156f565b5b60200201518152602001876001600281106100a7576100a661156f565b5b6020020151815250816000018190525060405180604001604052806040518060400160405280886000600281106100e1576100e061156f565b5b60200201516000600281106100f9576100f861156f565b5b60200201518152602001886000600281106101175761011661156f565b5b602002015160016002811061012f5761012e61156f565b5b6020020151815250815260200160405180604001604052808860016002811061015b5761015a61156f565b5b60200201516000600281106101735761017261156f565b5b60200201518152602001886001600281106101915761019061156f565b5b60200201516001600281106101a9576101a861156f565b5b602002015181525081525081602001819052506040518060400160405280856000600281106101db576101da61156f565b5b60200201518152602001856001600281106101f9576101f861156f565b5b602002015181525081604001819052506000600267ffffffffffffffff811115610226576102256112b8565b5b6040519080825280602002602001820160405280156102545781602001602082028036833780820191505090505b50905060005b60028110156102ad578481600281106102765761027561156f565b5b602002015182828151811061028e5761028d61156f565b5b60200260200101818152505080806102a5906115cd565b91505061025a565b5060006102ba82846102d9565b036102ca576001925050506102d1565b6000925050505b949350505050565b6000807f30644e72e131a029b85045b68181585d2833e84879b9709143e1f593f0000001905060006103096104cc565b90508060800151516001865161031f9190611615565b1461035f576040517f08c379a0000000000000000000000000000000000000000000000000000000008152600401610356906116c8565b60405180910390fd5b60006040518060400160405280600081526020016000815250905060005b865181101561044e578387828151811061039a5761039961156f565b5b6020026020010151106103e2576040517f08c379a00000000000000000000000000000000000000000000000000000000081526004016103d990611734565b60405180910390fd5b6104398261043485608001516001856103fb9190611615565b8151811061040c5761040b61156f565b5b60200260200101518a85815181106104275761042661156f565b5b6020026020010151610947565b610a1f565b91508080610446906115cd565b91505061037d565b5061047881836080015160008151811061046b5761046a61156f565b5b6020026020010151610a1f565b90506104ae61048a8660000151610b1d565b8660200151846000015185602001518587604001518b604001518960600151610bc2565b6104be57600193505050506104c6565b600093505050505b92915050565b6104d4611184565b60405180604001604052807f2d4d9aa7e302d9df41749d5507949d05dbea33fbb16c643b22f599a2be6df2e281526020017f14bedd503c37ceb061d8ec60209fe345ce89830a19230301f076caff004d19268152508160000181905250604051806040016040528060405180604001604052807f0967032fcbf776d1afc985f88877f182d38480a653f2decaa9794cbc3bf3060c81526020017f0e187847ad4c798374d0d6732bf501847dd68bc0e071241e0213bc7fc13db7ab815250815260200160405180604001604052807f304cfbd1e08a704a99f5e847d93f8c3caafddec46b7a0d379da69a4d112346a781526020017f1739c1b1a457a8c7313123d24d2f9192f896b7c63eea05a9d57f06547ad0cec88152508152508160200181905250604051806040016040528060405180604001604052807f198e9393920d483a7260bfb731fb5d25f1aa493335a9e71297e485b7aef312c281526020017f1800deef121f1e76426a00665e5c4479674322d4f75edadd46debd5cd992f6ed815250815260200160405180604001604052807f090689d0585ff075ec9e99ad690c3395bc4b313370b38ef355acdadcd122975b81526020017f12c85ea5db8c6deb4aab71808dcb408fe3d1e7690c43d37b4ce6cc0166fa7daa8152508152508160400181905250604051806040016040528060405180604001604052807f2f18b0aecf85d2c5a891c57a53bd212ec667e91f11e83f31a88004ea8f2a30d781526020017f2664edc7f6aa80df0db615a18d803a1f45ff701de24ce4322c1ad711b0a1e204815250815260200160405180604001604052807f25c42cf0eb3abaa866391ba97e528dd3f70dd92b2c2f16460c184f96d62d400881526020017f2c02f23949fb0e18c3a55a09277b0f9f1507ed9b51173743a310c2b23696ffdb8152508152508160600181905250600367ffffffffffffffff81111561079b5761079a6112b8565b5b6040519080825280602002602001820160405280156107d457816020015b6107c16111cb565b8152602001906001900390816107b95790505b50816080018190525060405180604001604052807f174da0e6de7e99bd682b721c1dbb67649ca85f599348c3242283f1125faf43ce81526020017f2c4f882b45472ded04fcbec8cc3e6a687d72ba3bc10371785e988a38b907d77f815250816080015160008151811061084a5761084961156f565b5b602002602001018190525060405180604001604052807f1538889dbabc4b53eb5fa317f807aa238f11380e9a35806edf11b31cdf7a957781526020017e6782ecf67f73ec5df8474948a8ebf29dd220453bf231e70c0d69ae559fe14c81525081608001516001815181106108c1576108c061156f565b5b602002602001018190525060405180604001604052807f02dd2cc3bcf0f2251c72793fe6be836c53190b8ab5bb45d9a41bfee0736cb0a981526020017f18fc828afd30955032d5ffec835054337c1c0748443440a86a4d39b617e5ec1981525081608001516002815181106109395761093861156f565b5b602002602001018190525090565b61094f6111cb565b6109576111e5565b8360000151816000600381106109705761096f61156f565b5b6020020181815250508360200151816001600381106109925761099161156f565b5b60200201818152505082816002600381106109b0576109af61156f565b5b602002018181525050600060608360808460076107d05a03fa905080600081036109d657fe5b5080610a17576040517f08c379a0000000000000000000000000000000000000000000000000000000008152600401610a0e906117a0565b60405180910390fd5b505092915050565b610a276111cb565b610a2f611207565b836000015181600060048110610a4857610a4761156f565b5b602002018181525050836020015181600160048110610a6a57610a6961156f565b5b602002018181525050826000015181600260048110610a8c57610a8b61156f565b5b602002018181525050826020015181600360048110610aae57610aad61156f565b5b602002018181525050600060608360c08460066107d05a03fa90508060008103610ad457fe5b5080610b15576040517f08c379a0000000000000000000000000000000000000000000000000000000008152600401610b0c9061180c565b60405180910390fd5b505092915050565b610b256111cb565b60007f30644e72e131a029b85045b68181585d97816a916871ca8d3c208c16d87cfd47905060008360000151148015610b62575060008360200151145b15610b86576040518060400160405280600081526020016000815250915050610bbd565b604051806040016040528084600001518152602001828560200151610bab919061185b565b83610bb6919061188c565b8152509150505b919050565b600080600467ffffffffffffffff811115610be057610bdf6112b8565b5b604051908082528060200260200182016040528015610c1957816020015b610c066111cb565b815260200190600190039081610bfe5790505b5090506000600467ffffffffffffffff811115610c3957610c386112b8565b5b604051908082528060200260200182016040528015610c7257816020015b610c5f611229565b815260200190600190039081610c575790505b5090508a82600081518110610c8a57610c8961156f565b5b60200260200101819052508882600181518110610caa57610ca961156f565b5b60200260200101819052508682600281518110610cca57610cc961156f565b5b60200260200101819052508482600381518110610cea57610ce961156f565b5b60200260200101819052508981600081518110610d0a57610d0961156f565b5b60200260200101819052508781600181518110610d2a57610d2961156f565b5b60200260200101819052508581600281518110610d4a57610d4961156f565b5b60200260200101819052508381600381518110610d6a57610d6961156f565b5b6020026020010181905250610d7f8282610d8f565b9250505098975050505050505050565b60008151835114610dd5576040517f08c379a0000000000000000000000000000000000000000000000000000000008152600401610dcc9061190c565b60405180910390fd5b6000835190506000600682610dea919061192c565b905060008167ffffffffffffffff811115610e0857610e076112b8565b5b604051908082528060200260200182016040528015610e365781602001602082028036833780820191505090505b50905060005b838110156110bb57868181518110610e5757610e5661156f565b5b602002602001015160000151826000600684610e73919061192c565b610e7d9190611615565b81518110610e8e57610e8d61156f565b5b602002602001018181525050868181518110610ead57610eac61156f565b5b602002602001015160200151826001600684610ec9919061192c565b610ed39190611615565b81518110610ee457610ee361156f565b5b602002602001018181525050858181518110610f0357610f0261156f565b5b602002602001015160000151600060028110610f2257610f2161156f565b5b6020020151826002600684610f37919061192c565b610f419190611615565b81518110610f5257610f5161156f565b5b602002602001018181525050858181518110610f7157610f7061156f565b5b602002602001015160000151600160028110610f9057610f8f61156f565b5b6020020151826003600684610fa5919061192c565b610faf9190611615565b81518110610fc057610fbf61156f565b5b602002602001018181525050858181518110610fdf57610fde61156f565b5b602002602001015160200151600060028110610ffe57610ffd61156f565b5b6020020151826004600684611013919061192c565b61101d9190611615565b8151811061102e5761102d61156f565b5b60200260200101818152505085818151811061104d5761104c61156f565b5b60200260200101516020015160016002811061106c5761106b61156f565b5b6020020151826005600684611081919061192c565b61108b9190611615565b8151811061109c5761109b61156f565b5b60200260200101818152505080806110b3906115cd565b915050610e3c565b506110c461124f565b6000602082602086026020860160086107d05a03fa905080600081036110e657fe5b5080611127576040517f08c379a000000000000000000000000000000000000000000000000000000000815260040161111e906119d2565b60405180910390fd5b60008260006001811061113d5761113c61156f565b5b602002015114159550505050505092915050565b60405180606001604052806111646111cb565b8152602001611171611229565b815260200161117e6111cb565b81525090565b6040518060a001604052806111976111cb565b81526020016111a4611229565b81526020016111b1611229565b81526020016111be611229565b8152602001606081525090565b604051806040016040528060008152602001600081525090565b6040518060600160405280600390602082028036833780820191505090505090565b6040518060800160405280600490602082028036833780820191505090505090565b604051806040016040528061123c611271565b8152602001611249611271565b81525090565b6040518060200160405280600190602082028036833780820191505090505090565b6040518060400160405280600290602082028036833780820191505090505090565b6000604051905090565b600080fd5b600080fd5b6000601f19601f8301169050919050565b7f4e487b7100000000000000000000000000000000000000000000000000000000600052604160045260246000fd5b6112f0826112a7565b810181811067ffffffffffffffff8211171561130f5761130e6112b8565b5b80604052505050565b6000611322611293565b905061132e82826112e7565b919050565b600067ffffffffffffffff82111561134e5761134d6112b8565b5b602082029050919050565b600080fd5b6000819050919050565b6113718161135e565b811461137c57600080fd5b50565b60008135905061138e81611368565b92915050565b60006113a76113a284611333565b611318565b905080602084028301858111156113c1576113c0611359565b5b835b818110156113ea57806113d6888261137f565b8452602084019350506020810190506113c3565b5050509392505050565b600082601f830112611409576114086112a2565b5b6002611416848285611394565b91505092915050565b600067ffffffffffffffff82111561143a576114396112b8565b5b602082029050919050565b60006114586114538461141f565b611318565b9050806040840283018581111561147257611471611359565b5b835b8181101561149b578061148788826113f4565b845260208401935050604081019050611474565b5050509392505050565b600082601f8301126114ba576114b96112a2565b5b60026114c7848285611445565b91505092915050565b60008060008061014085870312156114eb576114ea61129d565b5b60006114f9878288016113f4565b945050604061150a878288016114a5565b93505060c061151b878288016113f4565b92505061010061152d878288016113f4565b91505092959194509250565b60008115159050919050565b61154e81611539565b82525050565b60006020820190506115696000830184611545565b92915050565b7f4e487b7100000000000000000000000000000000000000000000000000000000600052603260045260246000fd5b7f4e487b7100000000000000000000000000000000000000000000000000000000600052601160045260246000fd5b60006115d88261135e565b91507fffffffffffffffffffffffffffffffffffffffffffffffffffffffffffffffff820361160a5761160961159e565b5b600182019050919050565b60006116208261135e565b915061162b8361135e565b9250827fffffffffffffffffffffffffffffffffffffffffffffffffffffffffffffffff038211156116605761165f61159e565b5b828201905092915050565b600082825260208201905092915050565b7f76657269666965722d6261642d696e7075740000000000000000000000000000600082015250565b60006116b260128361166b565b91506116bd8261167c565b602082019050919050565b600060208201905081810360008301526116e1816116a5565b9050919050565b7f76657269666965722d6774652d736e61726b2d7363616c61722d6669656c6400600082015250565b600061171e601f8361166b565b9150611729826116e8565b602082019050919050565b6000602082019050818103600083015261174d81611711565b9050919050565b7f70616972696e672d6d756c2d6661696c65640000000000000000000000000000600082015250565b600061178a60128361166b565b915061179582611754565b602082019050919050565b600060208201905081810360008301526117b98161177d565b9050919050565b7f70616972696e672d6164642d6661696c65640000000000000000000000000000600082015250565b60006117f660128361166b565b9150611801826117c0565b602082019050919050565b60006020820190508181036000830152611825816117e9565b9050919050565b7f4e487b7100000000000000000000000000000000000000000000000000000000600052601260045260246000fd5b60006118668261135e565b91506118718361135e565b9250826118815761188061182c565b5b828206905092915050565b60006118978261135e565b91506118a28361135e565b9250828210156118b5576118b461159e565b5b828203905092915050565b7f70616972696e672d6c656e677468732d6661696c656400000000000000000000600082015250565b60006118f660168361166b565b9150611901826118c0565b602082019050919050565b60006020820190508181036000830152611925816118e9565b9050919050565b60006119378261135e565b91506119428361135e565b9250817fffffffffffffffffffffffffffffffffffffffffffffffffffffffffffffffff048311821515161561197b5761197a61159e565b5b828202905092915050565b7f70616972696e672d6f70636f64652d6661696c65640000000000000000000000600082015250565b60006119bc60158361166b565b91506119c782611986565b602082019050919050565b600060208201905081810360008301526119eb816119af565b905091905056fea26469706673582212202ef340f3a8d1d821624c5e7e3aabc413f1b3f8158c84145f99a53d16ac22a19164736f6c634300080d0033",
  "linkReferences": {},
  "deployedLinkReferences": {}
}