{
  "_format": "hh-sol-artifact-1",
  "contractName": "PublicValidationVerifier",
  "sourceName": "contracts/public-validation-verifier.sol",
  "abi": [
    {
      "inputs": [
        {
          "internalType": "uint256[2]",
          "name": "a",
          "type": "uint256[2]"
        },
        {
          "internalType": "uint256[2][2]",
          "name": "b",
          "type": "uint256[2][2]"
        },
        {
          "internalType": "uint256[2]",
          "name": "c",
          "type": "uint256[2]"
        },
        {
          "internalType": "uint256[5]",
          "name": "input",
          "type": "uint256[5]"
        }
      ],
      "name": "verifyPublicValidationProof",
      "outputs": [
        {
          "internalType": "bool",
          "name": "r",
          "type": "bool"
        }
      ],
      "stateMutability": "view",
      "type": "function"
    }
  ],
  "bytecode": "0x608060405234801561001057600080fd5b50611c42806100206000396000f3fe608060405234801561001057600080fd5b506004361061002b5760003560e01c8063aacdebfe14610030575b600080fd5b61004a600480360381019061004591906116ea565b610060565b604051610057919061176e565b60405180910390f35b600061006a6112ba565b60405180604001604052808760006002811061008957610088611789565b5b60200201518152602001876001600281106100a7576100a6611789565b5b6020020151815250816000018190525060405180604001604052806040518060400160405280886000600281106100e1576100e0611789565b5b60200201516000600281106100f9576100f8611789565b5b602002015181526020018860006002811061011757610116611789565b5b602002015160016002811061012f5761012e611789565b5b6020020151815250815260200160405180604001604052808860016002811061015b5761015a611789565b5b602002015160006002811061017357610172611789565b5b602002015181526020018860016002811061019157610190611789565b5b60200201516001600281106101a9576101a8611789565b5b602002015181525081525081602001819052506040518060400160405280856000600281106101db576101da611789565b5b60200201518152602001856001600281106101f9576101f8611789565b5b602002015181525081604001819052506000600567ffffffffffffffff81111561022657610225611421565b5b6040519080825280602002602001820160405280156102545781602001602082028036833780820191505090505b50905060005b60058110156102ad5784816005811061027657610275611789565b5b602002015182828151811061028e5761028d611789565b5b60200260200101818152505080806102a5906117e7565b91505061025a565b5060006102ba82846102d9565b036102ca576001925050506102d1565b6000925050505b949350505050565b6000807f30644e72e131a029b85045b68181585d2833e84879b9709143e1f593f0000001905060006103096104cc565b90508060800151516001865161031f919061182f565b1461035f576040517f08c379a0000000000000000000000000000000000000000000000000000000008152600401610356906118e2565b60405180910390fd5b60006040518060400160405280600081526020016000815250905060005b865181101561044e578387828151811061039a57610399611789565b5b6020026020010151106103e2576040517f08c379a00000000000000000000000000000000000000000000000000000000081526004016103d99061194e565b60405180910390fd5b6104398261043485608001516001856103fb919061182f565b8151811061040c5761040b611789565b5b60200260200101518a858151811061042757610426611789565b5b6020026020010151610ab0565b610b88565b91508080610446906117e7565b91505061037d565b5061047881836080015160008151811061046b5761046a611789565b5b6020026020010151610b88565b90506104ae61048a8660000151610c86565b8660200151846000015185602001518587604001518b604001518960600151610d2b565b6104be57600193505050506104c6565b600093505050505b92915050565b6104d46112ed565b60405180604001604052807f2d4d9aa7e302d9df41749d5507949d05dbea33fbb16c643b22f599a2be6df2e281526020017f14bedd503c37ceb061d8ec60209fe345ce89830a19230301f076caff004d19268152508160000181905250604051806040016040528060405180604001604052807f0967032fcbf776d1afc985f88877f182d38480a653f2decaa9794cbc3bf3060c81526020017f0e187847ad4c798374d0d6732bf501847dd68bc0e071241e0213bc7fc13db7ab815250815260200160405180604001604052807f304cfbd1e08a704a99f5e847d93f8c3caafddec46b7a0d379da69a4d112346a781526020017f1739c1b1a457a8c7313123d24d2f9192f896b7c63eea05a9d57f06547ad0cec88152508152508160200181905250604051806040016040528060405180604001604052807f198e9393920d483a7260bfb731fb5d25f1aa493335a9e71297e485b7aef312c281526020017f1800deef121f1e76426a00665e5c4479674322d4f75edadd46debd5cd992f6ed815250815260200160405180604001604052807f090689d0585ff075ec9e99ad690c3395bc4b313370b38ef355acdadcd122975b81526020017f12c85ea5db8c6deb4aab71808dcb408fe3d1e7690c43d37b4ce6cc0166fa7daa8152508152508160400181905250604051806040016040528060405180604001604052807f07662170c52e5ee93348a675471c7edcd7b72a66be0c9ff32d8ab5cc79b8f1f881526020017f25dfa377ee26a624509fb8faa153e977784bfa1726c607827b0583a3cb879e1b815250815260200160405180604001604052807f28b03cc961dd731fb9f6bbda1a2323139ae19b434745546d425d04266f99808981526020017f1d30f5393dba40937ca37a4ac464791e89f39817533b07fd8af383c81906f2f78152508152508160600181905250600667ffffffffffffffff81111561079b5761079a611421565b5b6040519080825280602002602001820160405280156107d457816020015b6107c1611334565b8152602001906001900390816107b95790505b50816080018190525060405180604001604052807f04c597046104b199ee20ee5edf0305911708badb78f6d299a6ad6025bc55cbce81526020017f052f20a10132f207eff4070a22436f41b9f3c3532280224588aff10a64dea2a5815250816080015160008151811061084a57610849611789565b5b602002602001018190525060405180604001604052807f0998e18c7b17a94c174e52b406f967a735266dd1e39b192e7e17b8f4a511f60481526020017f2d0d625683f7ecd525941bf1ec29298650ce8707e1ce49017bb660442a49dbce81525081608001516001815181106108c2576108c1611789565b5b602002602001018190525060405180604001604052807f0aa78c65dff1e10170cbbf2daa0062aefe00e79a8d35d85bc6e4546b2465878581526020017f2a62f7dcc9319a80da826e29d3214815ba9937b4768aafacaf5a4c193e99ba4a815250816080015160028151811061093a57610939611789565b5b602002602001018190525060405180604001604052807f1021941ba81d39c26f502184de3cf3672adcc0ad5805788db5e11cc7bb60f9f681526020017f2d70ebe421ecbfba688f280cbacde3021230977c8f2fb3e3044d14245d5e3bdc81525081608001516003815181106109b2576109b1611789565b5b602002602001018190525060405180604001604052807f132ff2b540c478b4280c394c652f609e1ee321ae14e93099c08876c00aaab94881526020017f1bd6645a8cd59d9b0b890ebf1427159a60afa5bbda2c7029f72c0f48ecb96c118152508160800151600481518110610a2a57610a29611789565b5b602002602001018190525060405180604001604052807f2532bc5d59f3692060759506e301e6dc37f62615eca648b9b64404ebd5531a1a81526020017f103b3ff73164775cf4213dd401aa79387dabfcac6f63ea51fde45e164ca2fa6a8152508160800151600581518110610aa257610aa1611789565b5b602002602001018190525090565b610ab8611334565b610ac061134e565b836000015181600060038110610ad957610ad8611789565b5b602002018181525050836020015181600160038110610afb57610afa611789565b5b6020020181815250508281600260038110610b1957610b18611789565b5b602002018181525050600060608360808460076107d05a03fa90508060008103610b3f57fe5b5080610b80576040517f08c379a0000000000000000000000000000000000000000000000000000000008152600401610b77906119ba565b60405180910390fd5b505092915050565b610b90611334565b610b98611370565b836000015181600060048110610bb157610bb0611789565b5b602002018181525050836020015181600160048110610bd357610bd2611789565b5b602002018181525050826000015181600260048110610bf557610bf4611789565b5b602002018181525050826020015181600360048110610c1757610c16611789565b5b602002018181525050600060608360c08460066107d05a03fa90508060008103610c3d57fe5b5080610c7e576040517f08c379a0000000000000000000000000000000000000000000000000000000008152600401610c7590611a26565b60405180910390fd5b505092915050565b610c8e611334565b60007f30644e72e131a029b85045b68181585d97816a916871ca8d3c208c16d87cfd47905060008360000151148015610ccb575060008360200151145b15610cef576040518060400160405280600081526020016000815250915050610d26565b604051806040016040528084600001518152602001828560200151610d149190611a75565b83610d1f9190611aa6565b8152509150505b919050565b600080600467ffffffffffffffff811115610d4957610d48611421565b5b604051908082528060200260200182016040528015610d8257816020015b610d6f611334565b815260200190600190039081610d675790505b5090506000600467ffffffffffffffff811115610da257610da1611421565b5b604051908082528060200260200182016040528015610ddb57816020015b610dc8611392565b815260200190600190039081610dc05790505b5090508a82600081518110610df357610df2611789565b5b60200260200101819052508882600181518110610e1357610e12611789565b5b60200260200101819052508682600281518110610e3357610e32611789565b5b60200260200101819052508482600381518110610e5357610e52611789565b5b60200260200101819052508981600081518110610e7357610e72611789565b5b60200260200101819052508781600181518110610e9357610e92611789565b5b60200260200101819052508581600281518110610eb357610eb2611789565b5b60200260200101819052508381600381518110610ed357610ed2611789565b5b6020026020010181905250610ee88282610ef8565b9250505098975050505050505050565b60008151835114610f3e576040517f08c379a0000000000000000000000000000000000000000000000000000000008152600401610f3590611b26565b60405180910390fd5b6000835190506000600682610f539190611b46565b905060008167ffffffffffffffff811115610f7157610f70611421565b5b604051908082528060200260200182016040528015610f9f5781602001602082028036833780820191505090505b50905060005b8381101561122457868181518110610fc057610fbf611789565b5b602002602001015160000151826000600684610fdc9190611b46565b610fe6919061182f565b81518110610ff757610ff6611789565b5b60200260200101818152505086818151811061101657611015611789565b5b6020026020010151602001518260016006846110329190611b46565b61103c919061182f565b8151811061104d5761104c611789565b5b60200260200101818152505085818151811061106c5761106b611789565b5b60200260200101516000015160006002811061108b5761108a611789565b5b60200201518260026006846110a09190611b46565b6110aa919061182f565b815181106110bb576110ba611789565b5b6020026020010181815250508581815181106110da576110d9611789565b5b6020026020010151600001516001600281106110f9576110f8611789565b5b602002015182600360068461110e9190611b46565b611118919061182f565b8151811061112957611128611789565b5b60200260200101818152505085818151811061114857611147611789565b5b60200260200101516020015160006002811061116757611166611789565b5b602002015182600460068461117c9190611b46565b611186919061182f565b8151811061119757611196611789565b5b6020026020010181815250508581815181106111b6576111b5611789565b5b6020026020010151602001516001600281106111d5576111d4611789565b5b60200201518260056006846111ea9190611b46565b6111f4919061182f565b8151811061120557611204611789565b5b602002602001018181525050808061121c906117e7565b915050610fa5565b5061122d6113b8565b6000602082602086026020860160086107d05a03fa9050806000810361124f57fe5b5080611290576040517f08c379a000000000000000000000000000000000000000000000000000000000815260040161128790611bec565b60405180910390fd5b6000826000600181106112a6576112a5611789565b5b602002015114159550505050505092915050565b60405180606001604052806112cd611334565b81526020016112da611392565b81526020016112e7611334565b81525090565b6040518060a00160405280611300611334565b815260200161130d611392565b815260200161131a611392565b8152602001611327611392565b8152602001606081525090565b604051806040016040528060008152602001600081525090565b6040518060600160405280600390602082028036833780820191505090505090565b6040518060800160405280600490602082028036833780820191505090505090565b60405180604001604052806113a56113da565b81526020016113b26113da565b81525090565b6040518060200160405280600190602082028036833780820191505090505090565b6040518060400160405280600290602082028036833780820191505090505090565b6000604051905090565b600080fd5b600080fd5b6000601f19601f8301169050919050565b7f4e487b7100000000000000000000000000000000000000000000000000000000600052604160045260246000fd5b61145982611410565b810181811067ffffffffffffffff8211171561147857611477611421565b5b80604052505050565b600061148b6113fc565b90506114978282611450565b919050565b600067ffffffffffffffff8211156114b7576114b6611421565b5b602082029050919050565b600080fd5b6000819050919050565b6114da816114c7565b81146114e557600080fd5b50565b6000813590506114f7816114d1565b92915050565b600061151061150b8461149c565b611481565b9050806020840283018581111561152a576115296114c2565b5b835b81811015611553578061153f88826114e8565b84526020840193505060208101905061152c565b5050509392505050565b600082601f8301126115725761157161140b565b5b600261157f8482856114fd565b91505092915050565b600067ffffffffffffffff8211156115a3576115a2611421565b5b602082029050919050565b60006115c16115bc84611588565b611481565b905080604084028301858111156115db576115da6114c2565b5b835b8181101561160457806115f0888261155d565b8452602084019350506040810190506115dd565b5050509392505050565b600082601f8301126116235761162261140b565b5b60026116308482856115ae565b91505092915050565b600067ffffffffffffffff82111561165457611653611421565b5b602082029050919050565b600061167261166d84611639565b611481565b9050806020840283018581111561168c5761168b6114c2565b5b835b818110156116b557806116a188826114e8565b84526020840193505060208101905061168e565b5050509392505050565b600082601f8301126116d4576116d361140b565b5b60056116e184828561165f565b91505092915050565b6000806000806101a0858703121561170557611704611406565b5b60006117138782880161155d565b94505060406117248782880161160e565b93505060c06117358782880161155d565b925050610100611747878288016116bf565b91505092959194509250565b60008115159050919050565b61176881611753565b82525050565b6000602082019050611783600083018461175f565b92915050565b7f4e487b7100000000000000000000000000000000000000000000000000000000600052603260045260246000fd5b7f4e487b7100000000000000000000000000000000000000000000000000000000600052601160045260246000fd5b60006117f2826114c7565b91507fffffffffffffffffffffffffffffffffffffffffffffffffffffffffffffffff8203611824576118236117b8565b5b600182019050919050565b600061183a826114c7565b9150611845836114c7565b9250827fffffffffffffffffffffffffffffffffffffffffffffffffffffffffffffffff0382111561187a576118796117b8565b5b828201905092915050565b600082825260208201905092915050565b7f76657269666965722d6261642d696e7075740000000000000000000000000000600082015250565b60006118cc601283611885565b91506118d782611896565b602082019050919050565b600060208201905081810360008301526118fb816118bf565b9050919050565b7f76657269666965722d6774652d736e61726b2d7363616c61722d6669656c6400600082015250565b6000611938601f83611885565b915061194382611902565b602082019050919050565b600060208201905081810360008301526119678161192b565b9050919050565b7f70616972696e672d6d756c2d6661696c65640000000000000000000000000000600082015250565b60006119a4601283611885565b91506119af8261196e565b602082019050919050565b600060208201905081810360008301526119d381611997565b9050919050565b7f70616972696e672d6164642d6661696c65640000000000000000000000000000600082015250565b6000611a10601283611885565b9150611a1b826119da565b602082019050919050565b60006020820190508181036000830152611a3f81611a03565b9050919050565b7f4e487b7100000000000000000000000000000000000000000000000000000000600052601260045260246000fd5b6000611a80826114c7565b9150611a8b836114c7565b925082611a9b57611a9a611a46565b5b828206905092915050565b6000611ab1826114c7565b9150611abc836114c7565b925082821015611acf57611ace6117b8565b5b828203905092915050565b7f70616972696e672d6c656e677468732d6661696c656400000000000000000000600082015250565b6000611b10601683611885565b9150611b1b82611ada565b602082019050919050565b60006020820190508181036000830152611b3f81611b03565b9050919050565b6000611b51826114c7565b9150611b5c836114c7565b9250817fffffffffffffffffffffffffffffffffffffffffffffffffffffffffffffffff0483118215151615611b9557611b946117b8565b5b828202905092915050565b7f70616972696e672d6f70636f64652d6661696c65640000000000000000000000600082015250565b6000611bd6601583611885565b9150611be182611ba0565b602082019050919050565b60006020820190508181036000830152611c0581611bc9565b905091905056fea2646970667358221220a8498951007f831913302b664ca2e87715a6523d385a5aa8af7c3d8bb3dba1e564736f6c634300080d0033",
  "linkReferences": {},
  "deployedLinkReferences": {}
}